{
  "contractName": "TicketSmartContract",
  "abi": [
    {
      "inputs": [],
      "stateMutability": "nonpayable",
      "type": "constructor"
    },
    {
      "anonymous": false,
      "inputs": [
        {
          "indexed": true,
          "internalType": "address",
          "name": "owner",
          "type": "address"
        },
        {
          "indexed": true,
          "internalType": "address",
          "name": "approved",
          "type": "address"
        },
        {
          "indexed": true,
          "internalType": "uint256",
          "name": "tokenId",
          "type": "uint256"
        }
      ],
      "name": "Approval",
      "type": "event"
    },
    {
      "anonymous": false,
      "inputs": [
        {
          "indexed": true,
          "internalType": "address",
          "name": "owner",
          "type": "address"
        },
        {
          "indexed": true,
          "internalType": "address",
          "name": "operator",
          "type": "address"
        },
        {
          "indexed": false,
          "internalType": "bool",
          "name": "approved",
          "type": "bool"
        }
      ],
      "name": "ApprovalForAll",
      "type": "event"
    },
    {
      "anonymous": false,
      "inputs": [
        {
          "indexed": true,
          "internalType": "address",
          "name": "previousOwner",
          "type": "address"
        },
        {
          "indexed": true,
          "internalType": "address",
          "name": "newOwner",
          "type": "address"
        }
      ],
      "name": "OwnershipTransferred",
      "type": "event"
    },
    {
      "anonymous": false,
      "inputs": [
        {
          "indexed": true,
          "internalType": "address",
          "name": "from",
          "type": "address"
        },
        {
          "indexed": true,
          "internalType": "address",
          "name": "to",
          "type": "address"
        },
        {
          "indexed": true,
          "internalType": "uint256",
          "name": "tokenId",
          "type": "uint256"
        }
      ],
      "name": "Transfer",
      "type": "event"
    },
    {
      "anonymous": false,
      "inputs": [
        {
          "indexed": false,
          "internalType": "address",
          "name": "eventOrganizer",
          "type": "address"
        }
      ],
      "name": "eventCreated",
      "type": "event"
    },
    {
      "anonymous": false,
      "inputs": [
        {
          "indexed": false,
          "internalType": "address",
          "name": "seller",
          "type": "address"
        },
        {
          "indexed": false,
          "internalType": "uint256",
          "name": "amount",
          "type": "uint256"
        }
      ],
      "name": "ticketForSale",
      "type": "event"
    },
    {
      "anonymous": false,
      "inputs": [
        {
          "indexed": false,
          "internalType": "address",
          "name": "buyer",
          "type": "address"
        },
        {
          "indexed": false,
          "internalType": "uint256",
          "name": "amountSold",
          "type": "uint256"
        }
      ],
      "name": "ticketSold",
      "type": "event"
    },
    {
      "inputs": [
        {
          "internalType": "address",
          "name": "to",
          "type": "address"
        },
        {
          "internalType": "uint256",
          "name": "tokenId",
          "type": "uint256"
        }
      ],
      "name": "approve",
      "outputs": [],
      "stateMutability": "nonpayable",
      "type": "function"
    },
    {
      "inputs": [
        {
          "internalType": "address",
          "name": "owner",
          "type": "address"
        }
      ],
      "name": "balanceOf",
      "outputs": [
        {
          "internalType": "uint256",
          "name": "",
          "type": "uint256"
        }
      ],
      "stateMutability": "view",
      "type": "function"
    },
    {
      "inputs": [
        {
          "internalType": "uint256",
          "name": "tokenId",
          "type": "uint256"
        }
      ],
      "name": "getApproved",
      "outputs": [
        {
          "internalType": "address",
          "name": "",
          "type": "address"
        }
      ],
      "stateMutability": "view",
      "type": "function"
    },
    {
      "inputs": [
        {
          "internalType": "address",
          "name": "owner",
          "type": "address"
        },
        {
          "internalType": "address",
          "name": "operator",
          "type": "address"
        }
      ],
      "name": "isApprovedForAll",
      "outputs": [
        {
          "internalType": "bool",
          "name": "",
          "type": "bool"
        }
      ],
      "stateMutability": "view",
      "type": "function"
    },
    {
      "inputs": [],
      "name": "name",
      "outputs": [
        {
          "internalType": "string",
          "name": "",
          "type": "string"
        }
      ],
      "stateMutability": "view",
      "type": "function"
    },
    {
      "inputs": [],
      "name": "owner",
      "outputs": [
        {
          "internalType": "address",
          "name": "",
          "type": "address"
        }
      ],
      "stateMutability": "view",
      "type": "function"
    },
    {
      "inputs": [
        {
          "internalType": "uint256",
          "name": "tokenId",
          "type": "uint256"
        }
      ],
      "name": "ownerOf",
      "outputs": [
        {
          "internalType": "address",
          "name": "",
          "type": "address"
        }
      ],
      "stateMutability": "view",
      "type": "function"
    },
    {
      "inputs": [],
      "name": "renounceOwnership",
      "outputs": [],
      "stateMutability": "nonpayable",
      "type": "function"
    },
    {
      "inputs": [
        {
          "internalType": "address",
          "name": "from",
          "type": "address"
        },
        {
          "internalType": "address",
          "name": "to",
          "type": "address"
        },
        {
          "internalType": "uint256",
          "name": "tokenId",
          "type": "uint256"
        }
      ],
      "name": "safeTransferFrom",
      "outputs": [],
      "stateMutability": "nonpayable",
      "type": "function"
    },
    {
      "inputs": [
        {
          "internalType": "address",
          "name": "from",
          "type": "address"
        },
        {
          "internalType": "address",
          "name": "to",
          "type": "address"
        },
        {
          "internalType": "uint256",
          "name": "tokenId",
          "type": "uint256"
        },
        {
          "internalType": "bytes",
          "name": "data",
          "type": "bytes"
        }
      ],
      "name": "safeTransferFrom",
      "outputs": [],
      "stateMutability": "nonpayable",
      "type": "function"
    },
    {
      "inputs": [
        {
          "internalType": "address",
          "name": "operator",
          "type": "address"
        },
        {
          "internalType": "bool",
          "name": "approved",
          "type": "bool"
        }
      ],
      "name": "setApprovalForAll",
      "outputs": [],
      "stateMutability": "nonpayable",
      "type": "function"
    },
    {
      "inputs": [
        {
          "internalType": "bytes4",
          "name": "interfaceId",
          "type": "bytes4"
        }
      ],
      "name": "supportsInterface",
      "outputs": [
        {
          "internalType": "bool",
          "name": "",
          "type": "bool"
        }
      ],
      "stateMutability": "view",
      "type": "function"
    },
    {
      "inputs": [],
      "name": "symbol",
      "outputs": [
        {
          "internalType": "string",
          "name": "",
          "type": "string"
        }
      ],
      "stateMutability": "view",
      "type": "function"
    },
    {
      "inputs": [
        {
          "internalType": "uint256",
          "name": "tokenId",
          "type": "uint256"
        }
      ],
      "name": "tokenURI",
      "outputs": [
        {
          "internalType": "string",
          "name": "",
          "type": "string"
        }
      ],
      "stateMutability": "view",
      "type": "function"
    },
    {
      "inputs": [
        {
          "internalType": "address",
          "name": "from",
          "type": "address"
        },
        {
          "internalType": "address",
          "name": "to",
          "type": "address"
        },
        {
          "internalType": "uint256",
          "name": "tokenId",
          "type": "uint256"
        }
      ],
      "name": "transferFrom",
      "outputs": [],
      "stateMutability": "nonpayable",
      "type": "function"
    },
    {
      "inputs": [
        {
          "internalType": "address",
          "name": "newOwner",
          "type": "address"
        }
      ],
      "name": "transferOwnership",
      "outputs": [],
      "stateMutability": "nonpayable",
      "type": "function"
    },
    {
      "inputs": [
        {
          "internalType": "uint256",
          "name": "availableTickets",
          "type": "uint256"
        },
        {
          "internalType": "uint256",
          "name": "ticketPrice",
          "type": "uint256"
        }
      ],
      "name": "createEvent",
      "outputs": [],
      "stateMutability": "payable",
      "type": "function"
    },
    {
      "inputs": [
        {
          "internalType": "uint256",
          "name": "tokenID",
          "type": "uint256"
        }
      ],
      "name": "buyTicket",
      "outputs": [],
      "stateMutability": "payable",
      "type": "function"
    },
    {
      "inputs": [
        {
          "internalType": "uint256",
          "name": "sellingAmount",
          "type": "uint256"
        },
        {
          "internalType": "uint256",
          "name": "tokenID",
          "type": "uint256"
        }
      ],
      "name": "sellTicket",
      "outputs": [],
      "stateMutability": "payable",
      "type": "function"
    },
    {
      "inputs": [
        {
          "internalType": "uint256",
          "name": "eventID",
          "type": "uint256"
        }
      ],
      "name": "viewAllEventTickets",
      "outputs": [
        {
          "components": [
            {
              "internalType": "uint256",
              "name": "eventID",
              "type": "uint256"
            },
            {
              "internalType": "uint256",
              "name": "tokenID",
              "type": "uint256"
            },
            {
              "internalType": "uint256",
              "name": "ticketPrice",
              "type": "uint256"
            },
            {
              "internalType": "address",
              "name": "owner",
              "type": "address"
            },
            {
              "internalType": "bool",
              "name": "isForSale",
              "type": "bool"
            },
            {
              "internalType": "string",
              "name": "tokenURI",
              "type": "string"
            }
          ],
          "internalType": "struct TicketSmartContract.TicketInfo[]",
          "name": "",
          "type": "tuple[]"
        }
      ],
      "stateMutability": "view",
      "type": "function"
    },
    {
      "inputs": [
        {
          "internalType": "uint256",
          "name": "tokenID",
          "type": "uint256"
        }
      ],
      "name": "viewTicketInfo",
      "outputs": [
        {
          "components": [
            {
              "internalType": "uint256",
              "name": "eventID",
              "type": "uint256"
            },
            {
              "internalType": "uint256",
              "name": "tokenID",
              "type": "uint256"
            },
            {
              "internalType": "uint256",
              "name": "ticketPrice",
              "type": "uint256"
            },
            {
              "internalType": "address",
              "name": "owner",
              "type": "address"
            },
            {
              "internalType": "bool",
              "name": "isForSale",
              "type": "bool"
            },
            {
              "internalType": "string",
              "name": "tokenURI",
              "type": "string"
            }
          ],
          "internalType": "struct TicketSmartContract.TicketInfo",
          "name": "",
          "type": "tuple"
        }
      ],
      "stateMutability": "view",
      "type": "function"
    },
    {
      "inputs": [
        {
          "internalType": "uint256",
          "name": "eventID",
          "type": "uint256"
        }
      ],
      "name": "getEventDetails",
      "outputs": [
        {
          "internalType": "address",
          "name": "",
          "type": "address"
        },
        {
          "internalType": "uint256",
          "name": "",
          "type": "uint256"
        },
        {
          "internalType": "uint256",
          "name": "",
          "type": "uint256"
        },
        {
          "internalType": "bool",
          "name": "",
          "type": "bool"
        },
        {
          "internalType": "uint256",
          "name": "",
          "type": "uint256"
        }
      ],
      "stateMutability": "view",
      "type": "function"
    },
    {
      "inputs": [
        {
          "internalType": "address",
          "name": "from",
          "type": "address"
        }
      ],
      "name": "getAllUserTickets",
      "outputs": [
        {
          "components": [
            {
              "internalType": "uint256",
              "name": "eventID",
              "type": "uint256"
            },
            {
              "internalType": "uint256",
              "name": "tokenID",
              "type": "uint256"
            },
            {
              "internalType": "uint256",
              "name": "ticketPrice",
              "type": "uint256"
            },
            {
              "internalType": "address",
              "name": "owner",
              "type": "address"
            },
            {
              "internalType": "bool",
              "name": "isForSale",
              "type": "bool"
            },
            {
              "internalType": "string",
              "name": "tokenURI",
              "type": "string"
            }
          ],
          "internalType": "struct TicketSmartContract.TicketInfo[]",
          "name": "",
          "type": "tuple[]"
        }
      ],
      "stateMutability": "view",
      "type": "function"
    },
    {
      "inputs": [],
      "name": "viewAllEvents",
      "outputs": [
        {
          "components": [
            {
              "internalType": "address",
              "name": "eventCreatorAddress",
              "type": "address"
            },
            {
              "internalType": "uint256",
              "name": "eventID",
              "type": "uint256"
            },
            {
              "internalType": "uint256",
              "name": "availableTickets",
              "type": "uint256"
            },
            {
              "internalType": "bool",
              "name": "isEventActive",
              "type": "bool"
            },
            {
              "internalType": "uint256",
              "name": "ticketPrice",
              "type": "uint256"
            }
          ],
          "internalType": "struct TicketSmartContract.EventInfo[]",
          "name": "",
          "type": "tuple[]"
        }
      ],
      "stateMutability": "view",
      "type": "function"
    },
    {
      "inputs": [
        {
          "internalType": "address",
          "name": "from",
          "type": "address"
        }
      ],
      "name": "viewMyEvents",
      "outputs": [
        {
          "components": [
            {
              "internalType": "address",
              "name": "eventCreatorAddress",
              "type": "address"
            },
            {
              "internalType": "uint256",
              "name": "eventID",
              "type": "uint256"
            },
            {
              "internalType": "uint256",
              "name": "availableTickets",
              "type": "uint256"
            },
            {
              "internalType": "bool",
              "name": "isEventActive",
              "type": "bool"
            },
            {
              "internalType": "uint256",
              "name": "ticketPrice",
              "type": "uint256"
            }
          ],
          "internalType": "struct TicketSmartContract.EventInfo[]",
          "name": "",
          "type": "tuple[]"
        }
      ],
      "stateMutability": "view",
      "type": "function"
    }
  ],
  "bytecode": "0x608060405260006009553480156200001657600080fd5b506040518060400160405280600a81526020017f4c756e6172436f696e73000000000000000000000000000000000000000000008152506040518060400160405280600381526020017f4c4e430000000000000000000000000000000000000000000000000000000000815250816000908162000094919062000417565b508060019081620000a6919062000417565b505050620000c9620000bd620000cf60201b60201c565b620000d760201b60201c565b620004fe565b600033905090565b6000600760009054906101000a900473ffffffffffffffffffffffffffffffffffffffff16905081600760006101000a81548173ffffffffffffffffffffffffffffffffffffffff021916908373ffffffffffffffffffffffffffffffffffffffff1602179055508173ffffffffffffffffffffffffffffffffffffffff168173ffffffffffffffffffffffffffffffffffffffff167f8be0079c531659141344cd1fd0a4f28419497f9722a3daafe3b4186f6b6457e060405160405180910390a35050565b600081519050919050565b7f4e487b7100000000000000000000000000000000000000000000000000000000600052604160045260246000fd5b7f4e487b7100000000000000000000000000000000000000000000000000000000600052602260045260246000fd5b600060028204905060018216806200021f57607f821691505b602082108103620002355762000234620001d7565b5b50919050565b60008190508160005260206000209050919050565b60006020601f8301049050919050565b600082821b905092915050565b6000600883026200029f7fffffffffffffffffffffffffffffffffffffffffffffffffffffffffffffffff8262000260565b620002ab868362000260565b95508019841693508086168417925050509392505050565b6000819050919050565b6000819050919050565b6000620002f8620002f2620002ec84620002c3565b620002cd565b620002c3565b9050919050565b6000819050919050565b6200031483620002d7565b6200032c6200032382620002ff565b8484546200026d565b825550505050565b600090565b6200034362000334565b6200035081848462000309565b505050565b5b8181101562000378576200036c60008262000339565b60018101905062000356565b5050565b601f821115620003c75762000391816200023b565b6200039c8462000250565b81016020851015620003ac578190505b620003c4620003bb8562000250565b83018262000355565b50505b505050565b600082821c905092915050565b6000620003ec60001984600802620003cc565b1980831691505092915050565b6000620004078383620003d9565b9150826002028217905092915050565b62000422826200019d565b67ffffffffffffffff8111156200043e576200043d620001a8565b5b6200044a825462000206565b620004578282856200037c565b600060209050601f8311600181146200048f57600084156200047a578287015190505b620004868582620003f9565b865550620004f6565b601f1984166200049f866200023b565b60005b82811015620004c957848901518255600182019150602085019450602081019050620004a2565b86831015620004e95784890151620004e5601f891682620003d9565b8355505b6001600288020188555050505b505050505050565b615bbc806200050e6000396000f3fe6080604052600436106101665760003560e01c8063790c0125116100d1578063c87b56dd1161008a578063ea1f1fdd11610064578063ea1f1fdd14610549578063ec38d5a014610574578063f2fde38b146105b5578063fdfc75ff146105de57610166565b8063c87b56dd14610492578063cb56a1e1146104cf578063e985e9c51461050c57610166565b8063790c0125146103915780638da5cb5b146103ad57806395d89b41146103d8578063a22cb46514610403578063b5fefe061461042c578063b88d4fde1461046957610166565b80632a6c4c14116101235780632a6c4c141461029f57806342842e0e146102bb5780636352211e146102e457806367dd74ca1461032157806370a082311461033d578063715018a61461037a57610166565b806301ffc9a71461016b57806306fdde03146101a8578063081812fc146101d3578063095ea7b3146102105780630bb02e0b1461023957806323b872dd14610276575b600080fd5b34801561017757600080fd5b50610192600480360381019061018d9190613d00565b61061b565b60405161019f9190613d48565b60405180910390f35b3480156101b457600080fd5b506101bd6106fd565b6040516101ca9190613df3565b60405180910390f35b3480156101df57600080fd5b506101fa60048036038101906101f59190613e4b565b61078f565b6040516102079190613eb9565b60405180910390f35b34801561021c57600080fd5b5061023760048036038101906102329190613f00565b6107d5565b005b34801561024557600080fd5b50610260600480360381019061025b9190613f40565b6108ec565b60405161026d919061412f565b60405180910390f35b34801561028257600080fd5b5061029d60048036038101906102989190614151565b610b80565b005b6102b960048036038101906102b491906141a4565b610be0565b005b3480156102c757600080fd5b506102e260048036038101906102dd9190614151565b610f6e565b005b3480156102f057600080fd5b5061030b60048036038101906103069190613e4b565b610f8e565b6040516103189190613eb9565b60405180910390f35b61033b60048036038101906103369190613e4b565b611014565b005b34801561034957600080fd5b50610364600480360381019061035f9190613f40565b611688565b60405161037191906141f3565b60405180910390f35b34801561038657600080fd5b5061038f61173f565b005b6103ab60048036038101906103a691906141a4565b611753565b005b3480156103b957600080fd5b506103c2611a57565b6040516103cf9190613eb9565b60405180910390f35b3480156103e457600080fd5b506103ed611a81565b6040516103fa9190613df3565b60405180910390f35b34801561040f57600080fd5b5061042a6004803603810190610425919061423a565b611b13565b005b34801561043857600080fd5b50610453600480360381019061044e9190613e4b565b611b29565b604051610460919061412f565b60405180910390f35b34801561047557600080fd5b50610490600480360381019061048b91906143af565b611ddc565b005b34801561049e57600080fd5b506104b960048036038101906104b49190613e4b565b611e3e565b6040516104c69190613df3565b60405180910390f35b3480156104db57600080fd5b506104f660048036038101906104f19190613e4b565b611f50565b60405161050391906144bb565b60405180910390f35b34801561051857600080fd5b50610533600480360381019061052e91906144dd565b6120e6565b6040516105409190613d48565b60405180910390f35b34801561055557600080fd5b5061055e61217a565b60405161056b9190614634565b60405180910390f35b34801561058057600080fd5b5061059b60048036038101906105969190613e4b565b612268565b6040516105ac959493929190614656565b60405180910390f35b3480156105c157600080fd5b506105dc60048036038101906105d79190613f40565b612393565b005b3480156105ea57600080fd5b5061060560048036038101906106009190613f40565b612416565b6040516106129190614634565b60405180910390f35b60007f80ac58cd000000000000000000000000000000000000000000000000000000007bffffffffffffffffffffffffffffffffffffffffffffffffffffffff1916827bffffffffffffffffffffffffffffffffffffffffffffffffffffffff191614806106e657507f5b5e139f000000000000000000000000000000000000000000000000000000007bffffffffffffffffffffffffffffffffffffffffffffffffffffffff1916827bffffffffffffffffffffffffffffffffffffffffffffffffffffffff1916145b806106f657506106f582612543565b5b9050919050565b60606000805461070c906146d8565b80601f0160208091040260200160405190810160405280929190818152602001828054610738906146d8565b80156107855780601f1061075a57610100808354040283529160200191610785565b820191906000526020600020905b81548152906001019060200180831161076857829003601f168201915b5050505050905090565b600061079a826125ad565b6004600083815260200190815260200160002060009054906101000a900473ffffffffffffffffffffffffffffffffffffffff169050919050565b60006107e082610f8e565b90508073ffffffffffffffffffffffffffffffffffffffff168373ffffffffffffffffffffffffffffffffffffffff1603610850576040517f08c379a00000000000000000000000000000000000000000000000000000000081526004016108479061477b565b60405180910390fd5b8073ffffffffffffffffffffffffffffffffffffffff1661086f6125f8565b73ffffffffffffffffffffffffffffffffffffffff16148061089e575061089d816108986125f8565b6120e6565b5b6108dd576040517f08c379a00000000000000000000000000000000000000000000000000000000081526004016108d49061480d565b60405180910390fd5b6108e78383612600565b505050565b60606000600b60008473ffffffffffffffffffffffffffffffffffffffff1673ffffffffffffffffffffffffffffffffffffffff16815260200190815260200160002080548060200260200160405190810160405280929190818152602001828054801561097957602002820191906000526020600020905b815481526020019060010190808311610965575b505050505090506000815167ffffffffffffffff81111561099d5761099c614284565b5b6040519080825280602002602001820160405280156109d657816020015b6109c3613c46565b8152602001906001900390816109bb5790505b50905060005b8251811015610b755760008382815181106109fa576109f961482d565b5b60200260200101519050600a60008281526020019081526020016000206040518060c00160405290816000820154815260200160018201548152602001600282015481526020016003820160009054906101000a900473ffffffffffffffffffffffffffffffffffffffff1673ffffffffffffffffffffffffffffffffffffffff1673ffffffffffffffffffffffffffffffffffffffff1681526020016003820160149054906101000a900460ff16151515158152602001600482018054610ac1906146d8565b80601f0160208091040260200160405190810160405280929190818152602001828054610aed906146d8565b8015610b3a5780601f10610b0f57610100808354040283529160200191610b3a565b820191906000526020600020905b815481529060010190602001808311610b1d57829003601f168201915b505050505081525050838381518110610b5657610b5561482d565b5b6020026020010181905250508080610b6d9061488b565b9150506109dc565b508092505050919050565b610b91610b8b6125f8565b826126b9565b610bd0576040517f08c379a0000000000000000000000000000000000000000000000000000000008152600401610bc790614945565b60405180910390fd5b610bdb83838361274e565b505050565b806000600a600083815260200190815260200160002060030160009054906101000a900473ffffffffffffffffffffffffffffffffffffffff1690508073ffffffffffffffffffffffffffffffffffffffff163373ffffffffffffffffffffffffffffffffffffffff1614610c8a576040517f08c379a0000000000000000000000000000000000000000000000000000000008152600401610c81906149d7565b60405180910390fd5b610c9383612a47565b610cd2576040517f08c379a0000000000000000000000000000000000000000000000000000000008152600401610cc990614ab5565b60405180910390fd5b6000600a60008581526020019081526020016000206040518060c00160405290816000820154815260200160018201548152602001600282015481526020016003820160009054906101000a900473ffffffffffffffffffffffffffffffffffffffff1673ffffffffffffffffffffffffffffffffffffffff1673ffffffffffffffffffffffffffffffffffffffff1681526020016003820160149054906101000a900460ff16151515158152602001600482018054610d91906146d8565b80601f0160208091040260200160405190810160405280929190818152602001828054610dbd906146d8565b8015610e0a5780601f10610ddf57610100808354040283529160200191610e0a565b820191906000526020600020905b815481529060010190602001808311610ded57829003601f168201915b50505050508152505090506000610e2085610f8e565b9050600015158260800151151514610e6d576040517f08c379a0000000000000000000000000000000000000000000000000000000008152600401610e6490614b47565b60405180910390fd5b3373ffffffffffffffffffffffffffffffffffffffff168173ffffffffffffffffffffffffffffffffffffffff1614610ea557600080fd5b6001600a600087815260200190815260200160002060030160146101000a81548160ff02191690831515021790555085600a600087815260200190815260200160002060020181905550600e6000836000015181526020019081526020016000208590806001815401808255809150506001900390600052602060002001600090919091909150557fe1100292b67437c5865b16805ce2b8c23fe614fab0127bc2226b55d90924f4a68187604051610f5e929190614b67565b60405180910390a1505050505050565b610f8983838360405180602001604052806000815250611ddc565b505050565b600080610f9a83612a88565b9050600073ffffffffffffffffffffffffffffffffffffffff168173ffffffffffffffffffffffffffffffffffffffff160361100b576040517f08c379a000000000000000000000000000000000000000000000000000000000815260040161100290614bdc565b60405180910390fd5b80915050919050565b61101d81612a47565b61105c576040517f08c379a000000000000000000000000000000000000000000000000000000000815260040161105390614ab5565b60405180910390fd5b6000600a60008381526020019081526020016000206040518060c00160405290816000820154815260200160018201548152602001600282015481526020016003820160009054906101000a900473ffffffffffffffffffffffffffffffffffffffff1673ffffffffffffffffffffffffffffffffffffffff1673ffffffffffffffffffffffffffffffffffffffff1681526020016003820160149054906101000a900460ff1615151515815260200160048201805461111b906146d8565b80601f0160208091040260200160405190810160405280929190818152602001828054611147906146d8565b80156111945780601f1061116957610100808354040283529160200191611194565b820191906000526020600020905b81548152906001019060200180831161117757829003601f168201915b505050505081525050905080608001516111e3576040517f08c379a00000000000000000000000000000000000000000000000000000000081526004016111da90614c48565b60405180910390fd5b80604001513414611229576040517f08c379a000000000000000000000000000000000000000000000000000000000815260040161122090614d00565b60405180910390fd5b806060015173ffffffffffffffffffffffffffffffffffffffff163373ffffffffffffffffffffffffffffffffffffffff160361129b576040517f08c379a000000000000000000000000000000000000000000000000000000000815260040161129290614d6c565b60405180910390fd5b60006112a683610f8e565b9050600081905060008173ffffffffffffffffffffffffffffffffffffffff16346040516112d390614dbd565b60006040518083038185875af1925050503d8060008114611310576040519150601f19603f3d011682016040523d82523d6000602084013e611315565b606091505b5050905080611359576040517f08c379a000000000000000000000000000000000000000000000000000000000815260040161135090614e1e565b60405180910390fd5b611364833387612ac5565b6000600a600087815260200190815260200160002060030160146101000a81548160ff02191690831515021790555033600a600087815260200190815260200160002060030160006101000a81548173ffffffffffffffffffffffffffffffffffffffff021916908373ffffffffffffffffffffffffffffffffffffffff16021790555060005b600b60008573ffffffffffffffffffffffffffffffffffffffff1673ffffffffffffffffffffffffffffffffffffffff168152602001908152602001600020805490508110156114b95785600b60008673ffffffffffffffffffffffffffffffffffffffff1673ffffffffffffffffffffffffffffffffffffffff16815260200190815260200160002082815481106114875761148661482d565b5b9060005260206000200154036114a6576114a18482612c29565b6114b9565b80806114b19061488b565b9150506113eb565b50600b60003373ffffffffffffffffffffffffffffffffffffffff1673ffffffffffffffffffffffffffffffffffffffff16815260200190815260200160002085908060018154018082558091505060019003906000526020600020016000909190919091505560005b600e600086600001518152602001908152602001600020805490508110156115a55785600e600087600001518152602001908152602001600020828154811061156f5761156e61482d565b5b9060005260206000200154036115925761158d856000015182612dc9565b6115a5565b808061159d9061488b565b915050611523565b50600d60008560000151815260200190815260200160002060000160009054906101000a900473ffffffffffffffffffffffffffffffffffffffff1673ffffffffffffffffffffffffffffffffffffffff168373ffffffffffffffffffffffffffffffffffffffff160361164457600d600085600001518152602001908152602001600020600201600081548092919061163e90614e3e565b91905055505b7ffb268800e5bd9b73e47d9f63967d745e732cff14cdb9b25d36cf98d0ba17f37a338560400151604051611679929190614b67565b60405180910390a15050505050565b60008073ffffffffffffffffffffffffffffffffffffffff168273ffffffffffffffffffffffffffffffffffffffff16036116f8576040517f08c379a00000000000000000000000000000000000000000000000000000000081526004016116ef90614ed9565b60405180910390fd5b600360008373ffffffffffffffffffffffffffffffffffffffff1673ffffffffffffffffffffffffffffffffffffffff168152602001908152602001600020549050919050565b611747612eb9565b6117516000612f37565b565b600960008154809291906117669061488b565b919050555060006040518060a001604052803373ffffffffffffffffffffffffffffffffffffffff168152602001600954815260200184815260200160011515815260200183815250905080600d6000600954815260200190815260200160002060008201518160000160006101000a81548173ffffffffffffffffffffffffffffffffffffffff021916908373ffffffffffffffffffffffffffffffffffffffff160217905550602082015181600101556040820151816002015560608201518160030160006101000a81548160ff02191690831515021790555060808201518160040155905050600f81908060018154018082558091505060019003906000526020600020906005020160009091909190915060008201518160000160006101000a81548173ffffffffffffffffffffffffffffffffffffffff021916908373ffffffffffffffffffffffffffffffffffffffff160217905550602082015181600101556040820151816002015560608201518160030160006101000a81548160ff021916908315150217905550608082015181600401555050600c60003373ffffffffffffffffffffffffffffffffffffffff1673ffffffffffffffffffffffffffffffffffffffff16815260200190815260200160002081908060018154018082558091505060019003906000526020600020906005020160009091909190915060008201518160000160006101000a81548173ffffffffffffffffffffffffffffffffffffffff021916908373ffffffffffffffffffffffffffffffffffffffff160217905550602082015181600101556040820151816002015560608201518160030160006101000a81548160ff021916908315150217905550608082015181600401555050611a1b3360405180610100016040528060ce8152602001615ab960ce9139600954868633612ffd565b7f7700685379d76a81028e6ba4abc51bc04a97487b0d7b65460b5b0e810eb0d71233604051611a4a9190613eb9565b60405180910390a1505050565b6000600760009054906101000a900473ffffffffffffffffffffffffffffffffffffffff16905090565b606060018054611a90906146d8565b80601f0160208091040260200160405190810160405280929190818152602001828054611abc906146d8565b8015611b095780601f10611ade57610100808354040283529160200191611b09565b820191906000526020600020905b815481529060010190602001808311611aec57829003601f168201915b5050505050905090565b611b25611b1e6125f8565b83836132b7565b5050565b6060600954821115611b70576040517f08c379a0000000000000000000000000000000000000000000000000000000008152600401611b6790614f45565b60405180910390fd5b6000600e6000848152602001908152602001600020805480602002602001604051908101604052809291908181526020018280548015611bcf57602002820191906000526020600020905b815481526020019060010190808311611bbb575b505050505090506000815167ffffffffffffffff811115611bf357611bf2614284565b5b604051908082528060200260200182016040528015611c2c57816020015b611c19613c46565b815260200190600190039081611c115790505b50905060005b8251811015611dd1576000838281518110611c5057611c4f61482d565b5b602002602001015190506000600a60008381526020019081526020016000206040518060c00160405290816000820154815260200160018201548152602001600282015481526020016003820160009054906101000a900473ffffffffffffffffffffffffffffffffffffffff1673ffffffffffffffffffffffffffffffffffffffff1673ffffffffffffffffffffffffffffffffffffffff1681526020016003820160149054906101000a900460ff16151515158152602001600482018054611d19906146d8565b80601f0160208091040260200160405190810160405280929190818152602001828054611d45906146d8565b8015611d925780601f10611d6757610100808354040283529160200191611d92565b820191906000526020600020905b815481529060010190602001808311611d7557829003601f168201915b505050505081525050905080848481518110611db157611db061482d565b5b602002602001018190525050508080611dc99061488b565b915050611c32565b508092505050919050565b611ded611de76125f8565b836126b9565b611e2c576040517f08c379a0000000000000000000000000000000000000000000000000000000008152600401611e2390614945565b60405180910390fd5b611e3884848484613423565b50505050565b6060611e49826125ad565b6000600660008481526020019081526020016000208054611e69906146d8565b80601f0160208091040260200160405190810160405280929190818152602001828054611e95906146d8565b8015611ee25780601f10611eb757610100808354040283529160200191611ee2565b820191906000526020600020905b815481529060010190602001808311611ec557829003601f168201915b505050505090506000611ef361347f565b90506000815103611f08578192505050611f4b565b600082511115611f3d578082604051602001611f25929190614fa1565b60405160208183030381529060405292505050611f4b565b611f46846134a0565b925050505b919050565b611f58613c46565b611f6182612a47565b611fa0576040517f08c379a0000000000000000000000000000000000000000000000000000000008152600401611f9790614ab5565b60405180910390fd5b600a60008381526020019081526020016000206040518060c00160405290816000820154815260200160018201548152602001600282015481526020016003820160009054906101000a900473ffffffffffffffffffffffffffffffffffffffff1673ffffffffffffffffffffffffffffffffffffffff1673ffffffffffffffffffffffffffffffffffffffff1681526020016003820160149054906101000a900460ff1615151515815260200160048201805461205d906146d8565b80601f0160208091040260200160405190810160405280929190818152602001828054612089906146d8565b80156120d65780601f106120ab576101008083540402835291602001916120d6565b820191906000526020600020905b8154815290600101906020018083116120b957829003601f168201915b5050505050815250509050919050565b6000600560008473ffffffffffffffffffffffffffffffffffffffff1673ffffffffffffffffffffffffffffffffffffffff16815260200190815260200160002060008373ffffffffffffffffffffffffffffffffffffffff1673ffffffffffffffffffffffffffffffffffffffff16815260200190815260200160002060009054906101000a900460ff16905092915050565b6060600f805480602002602001604051908101604052809291908181526020016000905b8282101561225f57838290600052602060002090600502016040518060a00160405290816000820160009054906101000a900473ffffffffffffffffffffffffffffffffffffffff1673ffffffffffffffffffffffffffffffffffffffff1673ffffffffffffffffffffffffffffffffffffffff16815260200160018201548152602001600282015481526020016003820160009054906101000a900460ff161515151581526020016004820154815250508152602001906001019061219e565b50505050905090565b60008060008060006009548611156122b5576040517f08c379a00000000000000000000000000000000000000000000000000000000081526004016122ac90614f45565b60405180910390fd5b6000600d60008881526020019081526020016000206040518060a00160405290816000820160009054906101000a900473ffffffffffffffffffffffffffffffffffffffff1673ffffffffffffffffffffffffffffffffffffffff1673ffffffffffffffffffffffffffffffffffffffff16815260200160018201548152602001600282015481526020016003820160009054906101000a900460ff16151515158152602001600482015481525050905080600001518160200151826040015183606001518460800151955095509550955095505091939590929450565b61239b612eb9565b600073ffffffffffffffffffffffffffffffffffffffff168173ffffffffffffffffffffffffffffffffffffffff160361240a576040517f08c379a000000000000000000000000000000000000000000000000000000000815260040161240190615037565b60405180910390fd5b61241381612f37565b50565b6060600c60008373ffffffffffffffffffffffffffffffffffffffff1673ffffffffffffffffffffffffffffffffffffffff168152602001908152602001600020805480602002602001604051908101604052809291908181526020016000905b8282101561253857838290600052602060002090600502016040518060a00160405290816000820160009054906101000a900473ffffffffffffffffffffffffffffffffffffffff1673ffffffffffffffffffffffffffffffffffffffff1673ffffffffffffffffffffffffffffffffffffffff16815260200160018201548152602001600282015481526020016003820160009054906101000a900460ff1615151515815260200160048201548152505081526020019060010190612477565b505050509050919050565b60007f01ffc9a7000000000000000000000000000000000000000000000000000000007bffffffffffffffffffffffffffffffffffffffffffffffffffffffff1916827bffffffffffffffffffffffffffffffffffffffffffffffffffffffff1916149050919050565b6125b681612a47565b6125f5576040517f08c379a00000000000000000000000000000000000000000000000000000000081526004016125ec90614bdc565b60405180910390fd5b50565b600033905090565b816004600083815260200190815260200160002060006101000a81548173ffffffffffffffffffffffffffffffffffffffff021916908373ffffffffffffffffffffffffffffffffffffffff160217905550808273ffffffffffffffffffffffffffffffffffffffff1661267383610f8e565b73ffffffffffffffffffffffffffffffffffffffff167f8c5be1e5ebec7d5bd14f71427d1e84f3dd0314c0f7b2291e5b200ac8c7c3b92560405160405180910390a45050565b6000806126c583610f8e565b90508073ffffffffffffffffffffffffffffffffffffffff168473ffffffffffffffffffffffffffffffffffffffff161480612707575061270681856120e6565b5b8061274557508373ffffffffffffffffffffffffffffffffffffffff1661272d8461078f565b73ffffffffffffffffffffffffffffffffffffffff16145b91505092915050565b8273ffffffffffffffffffffffffffffffffffffffff1661276e82610f8e565b73ffffffffffffffffffffffffffffffffffffffff16146127c4576040517f08c379a00000000000000000000000000000000000000000000000000000000081526004016127bb906150c9565b60405180910390fd5b600073ffffffffffffffffffffffffffffffffffffffff168273ffffffffffffffffffffffffffffffffffffffff1603612833576040517f08c379a000000000000000000000000000000000000000000000000000000000815260040161282a9061515b565b60405180910390fd5b6128408383836001613508565b8273ffffffffffffffffffffffffffffffffffffffff1661286082610f8e565b73ffffffffffffffffffffffffffffffffffffffff16146128b6576040517f08c379a00000000000000000000000000000000000000000000000000000000081526004016128ad906150c9565b60405180910390fd5b6004600082815260200190815260200160002060006101000a81549073ffffffffffffffffffffffffffffffffffffffff02191690556001600360008573ffffffffffffffffffffffffffffffffffffffff1673ffffffffffffffffffffffffffffffffffffffff168152602001908152602001600020600082825403925050819055506001600360008473ffffffffffffffffffffffffffffffffffffffff1673ffffffffffffffffffffffffffffffffffffffff16815260200190815260200160002060008282540192505081905550816002600083815260200190815260200160002060006101000a81548173ffffffffffffffffffffffffffffffffffffffff021916908373ffffffffffffffffffffffffffffffffffffffff160217905550808273ffffffffffffffffffffffffffffffffffffffff168473ffffffffffffffffffffffffffffffffffffffff167fddf252ad1be2c89b69c2b068fc378daa952ba7f163c4a11628f55a4df523b3ef60405160405180910390a4612a42838383600161350e565b505050565b60008073ffffffffffffffffffffffffffffffffffffffff16612a6983612a88565b73ffffffffffffffffffffffffffffffffffffffff1614159050919050565b60006002600083815260200190815260200160002060009054906101000a900473ffffffffffffffffffffffffffffffffffffffff169050919050565b8273ffffffffffffffffffffffffffffffffffffffff16612ae582610f8e565b73ffffffffffffffffffffffffffffffffffffffff1614612b3b576040517f08c379a0000000000000000000000000000000000000000000000000000000008152600401612b32906151c7565b60405180910390fd5b600073ffffffffffffffffffffffffffffffffffffffff168273ffffffffffffffffffffffffffffffffffffffff1603612baa576040517f08c379a0000000000000000000000000000000000000000000000000000000008152600401612ba190615233565b60405180910390fd5b600073ffffffffffffffffffffffffffffffffffffffff168373ffffffffffffffffffffffffffffffffffffffff1603612c19576040517f08c379a0000000000000000000000000000000000000000000000000000000008152600401612c109061529f565b60405180910390fd5b612c2483838361274e565b505050565b60008190505b6001600b60008573ffffffffffffffffffffffffffffffffffffffff1673ffffffffffffffffffffffffffffffffffffffff16815260200190815260200160002080549050612c7e91906152bf565b811015612d5f57600b60008473ffffffffffffffffffffffffffffffffffffffff1673ffffffffffffffffffffffffffffffffffffffff168152602001908152602001600020600182612cd191906152f3565b81548110612ce257612ce161482d565b5b9060005260206000200154600b60008573ffffffffffffffffffffffffffffffffffffffff1673ffffffffffffffffffffffffffffffffffffffff1681526020019081526020016000208281548110612d3e57612d3d61482d565b5b90600052602060002001819055508080612d579061488b565b915050612c2f565b50600b60008373ffffffffffffffffffffffffffffffffffffffff1673ffffffffffffffffffffffffffffffffffffffff168152602001908152602001600020805480612daf57612dae615327565b5b600190038181906000526020600020016000905590555050565b60008190505b6001600e600085815260200190815260200160002080549050612df291906152bf565b811015612e7b57600e6000848152602001908152602001600020600182612e1991906152f3565b81548110612e2a57612e2961482d565b5b9060005260206000200154600e60008581526020019081526020016000208281548110612e5a57612e5961482d565b5b90600052602060002001819055508080612e739061488b565b915050612dcf565b50600e6000838152602001908152602001600020805480612e9f57612e9e615327565b5b600190038181906000526020600020016000905590555050565b612ec16125f8565b73ffffffffffffffffffffffffffffffffffffffff16612edf611a57565b73ffffffffffffffffffffffffffffffffffffffff1614612f35576040517f08c379a0000000000000000000000000000000000000000000000000000000008152600401612f2c906153a2565b60405180910390fd5b565b6000600760009054906101000a900473ffffffffffffffffffffffffffffffffffffffff16905081600760006101000a81548173ffffffffffffffffffffffffffffffffffffffff021916908373ffffffffffffffffffffffffffffffffffffffff1602179055508173ffffffffffffffffffffffffffffffffffffffff168173ffffffffffffffffffffffffffffffffffffffff167f8be0079c531659141344cd1fd0a4f28419497f9722a3daafe3b4186f6b6457e060405160405180910390a35050565b83600061300982613514565b90508073ffffffffffffffffffffffffffffffffffffffff163373ffffffffffffffffffffffffffffffffffffffff1614613079576040517f08c379a000000000000000000000000000000000000000000000000000000000815260040161307090615434565b60405180910390fd5b60005b858110156132ac5761308e6008613554565b600061309a600861356a565b90506130a581612a47565b156130e5576040517f08c379a00000000000000000000000000000000000000000000000000000000081526004016130dc906154a0565b60405180910390fd5b6130ef8a82613578565b6130f9818a613596565b60006040518060c001604052808a81526020018381526020018881526020018773ffffffffffffffffffffffffffffffffffffffff1681526020016001151581526020018b815250905080600a600084815260200190815260200160002060008201518160000155602082015181600101556040820151816002015560608201518160030160006101000a81548173ffffffffffffffffffffffffffffffffffffffff021916908373ffffffffffffffffffffffffffffffffffffffff16021790555060808201518160030160146101000a81548160ff02191690831515021790555060a08201518160040190816131f1919061566c565b50905050600e60006009548152602001908152602001600020829080600181540180825580915050600190039060005260206000200160009091909190915055600b60008c73ffffffffffffffffffffffffffffffffffffffff1673ffffffffffffffffffffffffffffffffffffffff168152602001908152602001600020829080600181540180825580915050600190039060005260206000200160009091909190915055505080806132a49061488b565b91505061307c565b505050505050505050565b8173ffffffffffffffffffffffffffffffffffffffff168373ffffffffffffffffffffffffffffffffffffffff1603613325576040517f08c379a000000000000000000000000000000000000000000000000000000000815260040161331c9061578a565b60405180910390fd5b80600560008573ffffffffffffffffffffffffffffffffffffffff1673ffffffffffffffffffffffffffffffffffffffff16815260200190815260200160002060008473ffffffffffffffffffffffffffffffffffffffff1673ffffffffffffffffffffffffffffffffffffffff16815260200190815260200160002060006101000a81548160ff0219169083151502179055508173ffffffffffffffffffffffffffffffffffffffff168373ffffffffffffffffffffffffffffffffffffffff167f17307eab39ab6107e8899845ad3d59bd9653f200f220920489ca2b5937696c31836040516134169190613d48565b60405180910390a3505050565b61342e84848461274e565b61343a84848484613603565b613479576040517f08c379a00000000000000000000000000000000000000000000000000000000081526004016134709061581c565b60405180910390fd5b50505050565b606060405180610100016040528060ce8152602001615ab960ce9139905090565b60606134ab826125ad565b60006134b561347f565b905060008151116134d55760405180602001604052806000815250613500565b806134df8461378a565b6040516020016134f0929190614fa1565b6040516020818303038152906040525b915050919050565b50505050565b50505050565b6000600d600083815260200190815260200160002060000160009054906101000a900473ffffffffffffffffffffffffffffffffffffffff169050919050565b6001816000016000828254019250508190555050565b600081600001549050919050565b613592828260405180602001604052806000815250613858565b5050565b61359f82612a47565b6135de576040517f08c379a00000000000000000000000000000000000000000000000000000000081526004016135d5906158ae565b60405180910390fd5b806006600084815260200190815260200160002090816135fe919061566c565b505050565b60006136248473ffffffffffffffffffffffffffffffffffffffff166138b3565b1561377d578373ffffffffffffffffffffffffffffffffffffffff1663150b7a0261364d6125f8565b8786866040518563ffffffff1660e01b815260040161366f9493929190615923565b6020604051808303816000875af19250505080156136ab57506040513d601f19601f820116820180604052508101906136a89190615984565b60015b61372d573d80600081146136db576040519150601f19603f3d011682016040523d82523d6000602084013e6136e0565b606091505b506000815103613725576040517f08c379a000000000000000000000000000000000000000000000000000000000815260040161371c9061581c565b60405180910390fd5b805181602001fd5b63150b7a0260e01b7bffffffffffffffffffffffffffffffffffffffffffffffffffffffff1916817bffffffffffffffffffffffffffffffffffffffffffffffffffffffff191614915050613782565b600190505b949350505050565b606060006001613799846138d6565b01905060008167ffffffffffffffff8111156137b8576137b7614284565b5b6040519080825280601f01601f1916602001820160405280156137ea5781602001600182028036833780820191505090505b509050600082602001820190505b60011561384d578080600190039150507f3031323334353637383961626364656600000000000000000000000000000000600a86061a8153600a8581613841576138406159b1565b5b049450600085036137f8575b819350505050919050565b6138628383613a29565b61386f6000848484613603565b6138ae576040517f08c379a00000000000000000000000000000000000000000000000000000000081526004016138a59061581c565b60405180910390fd5b505050565b6000808273ffffffffffffffffffffffffffffffffffffffff163b119050919050565b600080600090507a184f03e93ff9f4daa797ed6e38ed64bf6a1f0100000000000000008310613934577a184f03e93ff9f4daa797ed6e38ed64bf6a1f010000000000000000838161392a576139296159b1565b5b0492506040810190505b6d04ee2d6d415b85acef81000000008310613971576d04ee2d6d415b85acef81000000008381613967576139666159b1565b5b0492506020810190505b662386f26fc1000083106139a057662386f26fc100008381613996576139956159b1565b5b0492506010810190505b6305f5e10083106139c9576305f5e10083816139bf576139be6159b1565b5b0492506008810190505b61271083106139ee5761271083816139e4576139e36159b1565b5b0492506004810190505b60648310613a115760648381613a0757613a066159b1565b5b0492506002810190505b600a8310613a20576001810190505b80915050919050565b600073ffffffffffffffffffffffffffffffffffffffff168273ffffffffffffffffffffffffffffffffffffffff1603613a98576040517f08c379a0000000000000000000000000000000000000000000000000000000008152600401613a8f90615a2c565b60405180910390fd5b613aa181612a47565b15613ae1576040517f08c379a0000000000000000000000000000000000000000000000000000000008152600401613ad890615a98565b60405180910390fd5b613aef600083836001613508565b613af881612a47565b15613b38576040517f08c379a0000000000000000000000000000000000000000000000000000000008152600401613b2f90615a98565b60405180910390fd5b6001600360008473ffffffffffffffffffffffffffffffffffffffff1673ffffffffffffffffffffffffffffffffffffffff16815260200190815260200160002060008282540192505081905550816002600083815260200190815260200160002060006101000a81548173ffffffffffffffffffffffffffffffffffffffff021916908373ffffffffffffffffffffffffffffffffffffffff160217905550808273ffffffffffffffffffffffffffffffffffffffff16600073ffffffffffffffffffffffffffffffffffffffff167fddf252ad1be2c89b69c2b068fc378daa952ba7f163c4a11628f55a4df523b3ef60405160405180910390a4613c4260008383600161350e565b5050565b6040518060c00160405280600081526020016000815260200160008152602001600073ffffffffffffffffffffffffffffffffffffffff168152602001600015158152602001606081525090565b6000604051905090565b600080fd5b600080fd5b60007fffffffff0000000000000000000000000000000000000000000000000000000082169050919050565b613cdd81613ca8565b8114613ce857600080fd5b50565b600081359050613cfa81613cd4565b92915050565b600060208284031215613d1657613d15613c9e565b5b6000613d2484828501613ceb565b91505092915050565b60008115159050919050565b613d4281613d2d565b82525050565b6000602082019050613d5d6000830184613d39565b92915050565b600081519050919050565b600082825260208201905092915050565b60005b83811015613d9d578082015181840152602081019050613d82565b60008484015250505050565b6000601f19601f8301169050919050565b6000613dc582613d63565b613dcf8185613d6e565b9350613ddf818560208601613d7f565b613de881613da9565b840191505092915050565b60006020820190508181036000830152613e0d8184613dba565b905092915050565b6000819050919050565b613e2881613e15565b8114613e3357600080fd5b50565b600081359050613e4581613e1f565b92915050565b600060208284031215613e6157613e60613c9e565b5b6000613e6f84828501613e36565b91505092915050565b600073ffffffffffffffffffffffffffffffffffffffff82169050919050565b6000613ea382613e78565b9050919050565b613eb381613e98565b82525050565b6000602082019050613ece6000830184613eaa565b92915050565b613edd81613e98565b8114613ee857600080fd5b50565b600081359050613efa81613ed4565b92915050565b60008060408385031215613f1757613f16613c9e565b5b6000613f2585828601613eeb565b9250506020613f3685828601613e36565b9150509250929050565b600060208284031215613f5657613f55613c9e565b5b6000613f6484828501613eeb565b91505092915050565b600081519050919050565b600082825260208201905092915050565b6000819050602082019050919050565b613fa281613e15565b82525050565b613fb181613e98565b82525050565b613fc081613d2d565b82525050565b600082825260208201905092915050565b6000613fe282613d63565b613fec8185613fc6565b9350613ffc818560208601613d7f565b61400581613da9565b840191505092915050565b600060c0830160008301516140286000860182613f99565b50602083015161403b6020860182613f99565b50604083015161404e6040860182613f99565b5060608301516140616060860182613fa8565b5060808301516140746080860182613fb7565b5060a083015184820360a086015261408c8282613fd7565b9150508091505092915050565b60006140a58383614010565b905092915050565b6000602082019050919050565b60006140c582613f6d565b6140cf8185613f78565b9350836020820285016140e185613f89565b8060005b8581101561411d57848403895281516140fe8582614099565b9450614109836140ad565b925060208a019950506001810190506140e5565b50829750879550505050505092915050565b6000602082019050818103600083015261414981846140ba565b905092915050565b60008060006060848603121561416a57614169613c9e565b5b600061417886828701613eeb565b935050602061418986828701613eeb565b925050604061419a86828701613e36565b9150509250925092565b600080604083850312156141bb576141ba613c9e565b5b60006141c985828601613e36565b92505060206141da85828601613e36565b9150509250929050565b6141ed81613e15565b82525050565b600060208201905061420860008301846141e4565b92915050565b61421781613d2d565b811461422257600080fd5b50565b6000813590506142348161420e565b92915050565b6000806040838503121561425157614250613c9e565b5b600061425f85828601613eeb565b925050602061427085828601614225565b9150509250929050565b600080fd5b600080fd5b7f4e487b7100000000000000000000000000000000000000000000000000000000600052604160045260246000fd5b6142bc82613da9565b810181811067ffffffffffffffff821117156142db576142da614284565b5b80604052505050565b60006142ee613c94565b90506142fa82826142b3565b919050565b600067ffffffffffffffff82111561431a57614319614284565b5b61432382613da9565b9050602081019050919050565b82818337600083830152505050565b600061435261434d846142ff565b6142e4565b90508281526020810184848401111561436e5761436d61427f565b5b614379848285614330565b509392505050565b600082601f8301126143965761439561427a565b5b81356143a684826020860161433f565b91505092915050565b600080600080608085870312156143c9576143c8613c9e565b5b60006143d787828801613eeb565b94505060206143e887828801613eeb565b93505060406143f987828801613e36565b925050606085013567ffffffffffffffff81111561441a57614419613ca3565b5b61442687828801614381565b91505092959194509250565b600060c08301600083015161444a6000860182613f99565b50602083015161445d6020860182613f99565b5060408301516144706040860182613f99565b5060608301516144836060860182613fa8565b5060808301516144966080860182613fb7565b5060a083015184820360a08601526144ae8282613fd7565b9150508091505092915050565b600060208201905081810360008301526144d58184614432565b905092915050565b600080604083850312156144f4576144f3613c9e565b5b600061450285828601613eeb565b925050602061451385828601613eeb565b9150509250929050565b600081519050919050565b600082825260208201905092915050565b6000819050602082019050919050565b60a08201600082015161455f6000850182613fa8565b5060208201516145726020850182613f99565b5060408201516145856040850182613f99565b5060608201516145986060850182613fb7565b5060808201516145ab6080850182613f99565b50505050565b60006145bd8383614549565b60a08301905092915050565b6000602082019050919050565b60006145e18261451d565b6145eb8185614528565b93506145f683614539565b8060005b8381101561462757815161460e88826145b1565b9750614619836145c9565b9250506001810190506145fa565b5085935050505092915050565b6000602082019050818103600083015261464e81846145d6565b905092915050565b600060a08201905061466b6000830188613eaa565b61467860208301876141e4565b61468560408301866141e4565b6146926060830185613d39565b61469f60808301846141e4565b9695505050505050565b7f4e487b7100000000000000000000000000000000000000000000000000000000600052602260045260246000fd5b600060028204905060018216806146f057607f821691505b602082108103614703576147026146a9565b5b50919050565b7f4552433732313a20617070726f76616c20746f2063757272656e74206f776e6560008201527f7200000000000000000000000000000000000000000000000000000000000000602082015250565b6000614765602183613d6e565b915061477082614709565b604082019050919050565b6000602082019050818103600083015261479481614758565b9050919050565b7f4552433732313a20617070726f76652063616c6c6572206973206e6f7420746f60008201527f6b656e206f776e6572206f7220617070726f76656420666f7220616c6c000000602082015250565b60006147f7603d83613d6e565b91506148028261479b565b604082019050919050565b60006020820190508181036000830152614826816147ea565b9050919050565b7f4e487b7100000000000000000000000000000000000000000000000000000000600052603260045260246000fd5b7f4e487b7100000000000000000000000000000000000000000000000000000000600052601160045260246000fd5b600061489682613e15565b91507fffffffffffffffffffffffffffffffffffffffffffffffffffffffffffffffff82036148c8576148c761485c565b5b600182019050919050565b7f4552433732313a2063616c6c6572206973206e6f7420746f6b656e206f776e6560008201527f72206f7220617070726f76656400000000000000000000000000000000000000602082015250565b600061492f602d83613d6e565b915061493a826148d3565b604082019050919050565b6000602082019050818103600083015261495e81614922565b9050919050565b7f4f6e6c7920746865207469636b6574206f776e65722063616e2065786563757460008201527f6520746869730000000000000000000000000000000000000000000000000000602082015250565b60006149c1602683613d6e565b91506149cc82614965565b604082019050919050565b600060208201905081810360008301526149f0816149b4565b9050919050565b7f536f72727920627574206974207365656d73206c696b6520746869732074696360008201527f6b657420646f65736e2774206576656e2065786973742e20506c65617365204360208201527f6f6e7461637420557320736f2077652063616e20676574207468697320736f7260408201527f746564206f75742e000000000000000000000000000000000000000000000000606082015250565b6000614a9f606883613d6e565b9150614aaa826149f7565b608082019050919050565b60006020820190508181036000830152614ace81614a92565b9050919050565b7f54686973207469636b657420697320616c726561647920757020666f7220736160008201527f6c652e0000000000000000000000000000000000000000000000000000000000602082015250565b6000614b31602383613d6e565b9150614b3c82614ad5565b604082019050919050565b60006020820190508181036000830152614b6081614b24565b9050919050565b6000604082019050614b7c6000830185613eaa565b614b8960208301846141e4565b9392505050565b7f4552433732313a20696e76616c696420746f6b656e2049440000000000000000600082015250565b6000614bc6601883613d6e565b9150614bd182614b90565b602082019050919050565b60006020820190508181036000830152614bf581614bb9565b9050919050565b7f54686973207469636b6574206973206e6f7420666f722073616c650000000000600082015250565b6000614c32601b83613d6e565b9150614c3d82614bfc565b602082019050919050565b60006020820190508181036000830152614c6181614c25565b9050919050565b7f596f75206d757374207061792074686520616d6f756e7420746861742074686560008201527f207469636b6574206f776e65722069732073656c6c696e67207468697320746960208201527f636b657420666f722e0000000000000000000000000000000000000000000000604082015250565b6000614cea604983613d6e565b9150614cf582614c68565b606082019050919050565b60006020820190508181036000830152614d1981614cdd565b9050919050565b7f596f752063616e6e6f742062757920796f7572206f776e207469636b65740000600082015250565b6000614d56601e83613d6e565b9150614d6182614d20565b602082019050919050565b60006020820190508181036000830152614d8581614d49565b9050919050565b600081905092915050565b50565b6000614da7600083614d8c565b9150614db282614d97565b600082019050919050565b6000614dc882614d9a565b9150819050919050565b7f4661696c656420746f2073656e64204574686572000000000000000000000000600082015250565b6000614e08601483613d6e565b9150614e1382614dd2565b602082019050919050565b60006020820190508181036000830152614e3781614dfb565b9050919050565b6000614e4982613e15565b915060008203614e5c57614e5b61485c565b5b600182039050919050565b7f4552433732313a2061646472657373207a65726f206973206e6f74206120766160008201527f6c6964206f776e65720000000000000000000000000000000000000000000000602082015250565b6000614ec3602983613d6e565b9150614ece82614e67565b604082019050919050565b60006020820190508181036000830152614ef281614eb6565b9050919050565b7f54686973206576656e7420646f6573206e6f7420657869737400000000000000600082015250565b6000614f2f601983613d6e565b9150614f3a82614ef9565b602082019050919050565b60006020820190508181036000830152614f5e81614f22565b9050919050565b600081905092915050565b6000614f7b82613d63565b614f858185614f65565b9350614f95818560208601613d7f565b80840191505092915050565b6000614fad8285614f70565b9150614fb98284614f70565b91508190509392505050565b7f4f776e61626c653a206e6577206f776e657220697320746865207a65726f206160008201527f6464726573730000000000000000000000000000000000000000000000000000602082015250565b6000615021602683613d6e565b915061502c82614fc5565b604082019050919050565b6000602082019050818103600083015261505081615014565b9050919050565b7f4552433732313a207472616e736665722066726f6d20696e636f72726563742060008201527f6f776e6572000000000000000000000000000000000000000000000000000000602082015250565b60006150b3602583613d6e565b91506150be82615057565b604082019050919050565b600060208201905081810360008301526150e2816150a6565b9050919050565b7f4552433732313a207472616e7366657220746f20746865207a65726f2061646460008201527f7265737300000000000000000000000000000000000000000000000000000000602082015250565b6000615145602483613d6e565b9150615150826150e9565b604082019050919050565b6000602082019050818103600083015261517481615138565b9050919050565b7f546f6b656e206e6f74206f776e65642062792073656e64657200000000000000600082015250565b60006151b1601983613d6e565b91506151bc8261517b565b602082019050919050565b600060208201905081810360008301526151e0816151a4565b9050919050565b7f496e76616c696420726563697069656e74206164647265737300000000000000600082015250565b600061521d601983613d6e565b9150615228826151e7565b602082019050919050565b6000602082019050818103600083015261524c81615210565b9050919050565b7f496e76616c69642073656e646572206164647265737300000000000000000000600082015250565b6000615289601683613d6e565b915061529482615253565b602082019050919050565b600060208201905081810360008301526152b88161527c565b9050919050565b60006152ca82613e15565b91506152d583613e15565b92508282039050818111156152ed576152ec61485c565b5b92915050565b60006152fe82613e15565b915061530983613e15565b92508282019050808211156153215761532061485c565b5b92915050565b7f4e487b7100000000000000000000000000000000000000000000000000000000600052603160045260246000fd5b7f4f776e61626c653a2063616c6c6572206973206e6f7420746865206f776e6572600082015250565b600061538c602083613d6e565b915061539782615356565b602082019050919050565b600060208201905081810360008301526153bb8161537f565b9050919050565b7f4f6e6c79207468652063726561746f72206f662074686973206576656e74206360008201527f616e206578656375746520746869730000000000000000000000000000000000602082015250565b600061541e602f83613d6e565b9150615429826153c2565b604082019050919050565b6000602082019050818103600083015261544d81615411565b9050919050565b7f546f6b656e2068617320616c7265616479206265656e206d696e746564210000600082015250565b600061548a601e83613d6e565b915061549582615454565b602082019050919050565b600060208201905081810360008301526154b98161547d565b9050919050565b60008190508160005260206000209050919050565b60006020601f8301049050919050565b600082821b905092915050565b6000600883026155227fffffffffffffffffffffffffffffffffffffffffffffffffffffffffffffffff826154e5565b61552c86836154e5565b95508019841693508086168417925050509392505050565b6000819050919050565b600061556961556461555f84613e15565b615544565b613e15565b9050919050565b6000819050919050565b6155838361554e565b61559761558f82615570565b8484546154f2565b825550505050565b600090565b6155ac61559f565b6155b781848461557a565b505050565b5b818110156155db576155d06000826155a4565b6001810190506155bd565b5050565b601f821115615620576155f1816154c0565b6155fa846154d5565b81016020851015615609578190505b61561d615615856154d5565b8301826155bc565b50505b505050565b600082821c905092915050565b600061564360001984600802615625565b1980831691505092915050565b600061565c8383615632565b9150826002028217905092915050565b61567582613d63565b67ffffffffffffffff81111561568e5761568d614284565b5b61569882546146d8565b6156a38282856155df565b600060209050601f8311600181146156d657600084156156c4578287015190505b6156ce8582615650565b865550615736565b601f1984166156e4866154c0565b60005b8281101561570c578489015182556001820191506020850194506020810190506156e7565b868310156157295784890151615725601f891682615632565b8355505b6001600288020188555050505b505050505050565b7f4552433732313a20617070726f766520746f2063616c6c657200000000000000600082015250565b6000615774601983613d6e565b915061577f8261573e565b602082019050919050565b600060208201905081810360008301526157a381615767565b9050919050565b7f4552433732313a207472616e7366657220746f206e6f6e20455243373231526560008201527f63656976657220696d706c656d656e7465720000000000000000000000000000602082015250565b6000615806603283613d6e565b9150615811826157aa565b604082019050919050565b60006020820190508181036000830152615835816157f9565b9050919050565b7f45524337323155524953746f726167653a2055524920736574206f66206e6f6e60008201527f6578697374656e7420746f6b656e000000000000000000000000000000000000602082015250565b6000615898602e83613d6e565b91506158a38261583c565b604082019050919050565b600060208201905081810360008301526158c78161588b565b9050919050565b600081519050919050565b600082825260208201905092915050565b60006158f5826158ce565b6158ff81856158d9565b935061590f818560208601613d7f565b61591881613da9565b840191505092915050565b60006080820190506159386000830187613eaa565b6159456020830186613eaa565b61595260408301856141e4565b818103606083015261596481846158ea565b905095945050505050565b60008151905061597e81613cd4565b92915050565b60006020828403121561599a57615999613c9e565b5b60006159a88482850161596f565b91505092915050565b7f4e487b7100000000000000000000000000000000000000000000000000000000600052601260045260246000fd5b7f4552433732313a206d696e7420746f20746865207a65726f2061646472657373600082015250565b6000615a16602083613d6e565b9150615a21826159e0565b602082019050919050565b60006020820190508181036000830152615a4581615a09565b9050919050565b7f4552433732313a20746f6b656e20616c7265616479206d696e74656400000000600082015250565b6000615a82601c83613d6e565b9150615a8d82615a4c565b602082019050919050565b60006020820190508181036000830152615ab181615a75565b905091905056fe68747470733a2f2f676174657761792e70696e6174612e636c6f75642f697066732f516d627754344b624b56786d75336a386f79433666426f675579726d356b6f6d6858346f4d3979434566357076473f5f676c3d312a316e746f686f6e2a5f67612a4d6d5131596a41344d545574596d4d774e7930305954466b4c546c685a4745744d4759794d7a466d4d324a6c5a446c682a5f67615f35524d505847313454452a4d5459344d4451314e4459354e5334784c6a45754d5459344d4451314e4467784d4334324c6a41754d412fa2646970667358221220ba252792d5e4dd12cb3ba447ebd011fd5e6fd83fc979c8bacb467ef1295d008f64736f6c63430008120033",
  "immutableReferences": {},
  "source": "// SPDX-License-Identifier: UNLICENSED\npragma solidity >=0.6.0 <0.9.0;\npragma experimental ABIEncoderV2;\n/**\n * @title TicketSmartContract\n * @dev  Implements ticketing system along with its various functions\n */\nimport \"../node_modules/@openzeppelin/contracts/token/ERC721/ERC721.sol\";\nimport \"../node_modules/@openzeppelin/contracts/utils/math/SafeMath.sol\";\nimport \"../node_modules/@openzeppelin/contracts/utils/Counters.sol\";\nimport \"../node_modules/@openzeppelin/contracts/access/Ownable.sol\";\nimport \"../node_modules/@openzeppelin/contracts/token/ERC721/extensions/ERC721URIStorage.sol\";\n\ncontract TicketSmartContract is ERC721URIStorage, Ownable {\n    using Counters for Counters.Counter;\n    Counters.Counter private _lunarCoinIdCounter;\n    constructor() ERC721(\"LunarCoins\", \"LNC\") {}\n\n    // State variable to keep track of how many events were created\n    uint256 private eventsCreated = 0;\n    // This mapping will be (tokenID => TicketInfo) The TicketInfo is mapped to each tokenID. The token ID is the NFT\n    mapping(uint256 => TicketInfo) private ticketNFTS;\n    // Defining a map to hold all of the tickets mapped to a user (address => list of TICKET ID's that maps to the NFT)\n    mapping(address => uint256[]) private userTickets;\n    // Defining a map to hold all of the registered events and to who created them\n    mapping(address => EventInfo[]) private userEvents;\n    // Defining a map to hold all of the events that were registered on the smart contract (eventID => Event struct)\n    mapping(uint256 => EventInfo) private allEvents;\n    // Defining a map to hold all ticktes being sold for a specifc event (eventID => uint256[]))\n    mapping(uint256 => uint256[]) private eventTickets;\n    // Defining an array to hold all of the events\n    EventInfo[] allEventsArray;\n\n    // A structure that will contain all of the Ticket Information: The ticket IS the NFT\n    struct TicketInfo {\n        // Which event the Ticket belongs to\n        uint256 eventID;\n        // TOKEN ID\n        uint256 tokenID;\n        // The price of the ticket\n        uint256 ticketPrice;\n        // The owner of the ticket\n        address owner;\n        // Is the ticket for sale?\n        bool isForSale;\n        // Token URI\n        string tokenURI;\n    }\n\n    // A structure that will contain all of the Event/Organizers information:\n    struct EventInfo {\n        // Event creator\n        address eventCreatorAddress;\n        // Event ID - This will be dependent on 'eventsCreated' state variable \n        uint256 eventID;\n        // Number of tickets that are set to be available to buy [IF the number is set to -1 then that mean \"UNLIMITED tickets]\n        uint256 availableTickets;\n        // Is the event still available?\n        bool isEventActive;\n        // The price of the ticket\n        uint256 ticketPrice;\n    }\n\n    // Events\n    event ticketForSale(address seller, uint256 amount);\n    event ticketSold(address buyer, uint256 amountSold);\n    event eventCreated(address eventOrganizer);\n\n    // This function will mint tickets based off of how many available tickets there are. It returns a list of tokenID's that will represent the NFTS being put up for 'sale'\n    function mintTicket(address to, string memory tokenURI, uint256 eventID, uint256 availableTickets, uint256 ticketPrice, address owner) private onlyEventOrganzier(eventID){\n        // All of this will be wrapped in a for loop\n        for (uint256 counter = 0; counter < availableTickets; counter++) {\n            _lunarCoinIdCounter.increment();\n            uint256 newlunarCoinId = _lunarCoinIdCounter.current();\n            require(!_exists(newlunarCoinId), \"Token has already been minted!\");\n            _safeMint(to, newlunarCoinId);\n            _setTokenURI(newlunarCoinId, tokenURI);\n            // Each ticketID will have the ticket information mapped to it (ticketID => TicketInfo)\n            TicketInfo memory newTicket = TicketInfo(eventID, newlunarCoinId, ticketPrice, owner, true, tokenURI);\n            ticketNFTS[newlunarCoinId] = newTicket;\n            // We push the tickets to 'eventTickets', (eventID => uint256[] List of tokenIDs for sale) \n            eventTickets[eventsCreated].push(newlunarCoinId);\n            userTickets[to].push(newlunarCoinId);\n        }\n    }\n\n    function _baseURI() internal pure override returns (string memory) {\n        return \"https://gateway.pinata.cloud/ipfs/QmbwT4KbKVxmu3j8oyC6fBogUyrm5komhX4oM9yCEf5pvG?_gl=1*1ntohon*_ga*MmQ1YjA4MTUtYmMwNy00YTFkLTlhZGEtMGYyMzFmM2JlZDlh*_ga_5RMPXG14TE*MTY4MDQ1NDY5NS4xLjEuMTY4MDQ1NDgxMC42LjAuMA/\";\n    }\n\n    // Modifer to make sure ONLY the organizer can execute a specific function\n    modifier onlyEventOrganzier(uint256 eventID) {\n        address eventCreatorAddress = getEventCreatorAddress(eventID);\n        require(msg.sender == eventCreatorAddress, \"Only the creator of this event can execute this\");\n        _;\n    }\n    // Modifier to make sure that only the owner of the ticket can sell\n    modifier onlyTicketOwner(uint256 tokenID) {\n        address ticketOwner = ticketNFTS[tokenID].owner;\n        require(msg.sender == ticketOwner, \"Only the ticket owner can execute this\");\n        _;\n    }\n\n    /** @dev anyone can Create an Event */\n    function createEvent(uint256 availableTickets, uint256 ticketPrice) public payable {\n        // We increment the number of events that were created\n        eventsCreated++;\n        // Now we create the Event and add the appropriate info to all of the mappings/structs\n        EventInfo memory eventDetails = EventInfo(msg.sender, eventsCreated, availableTickets, true, ticketPrice);\n        allEvents[eventsCreated] = eventDetails;\n        allEventsArray.push(eventDetails);\n        userEvents[msg.sender].push(eventDetails);\n        // We create the tickets to be put up for sale, we mint each ticket\n        // address to, string memory tokenURI, uint256 eventID, uint256 availableTickets, uint256 ticketPrice, address payable owner\n        mintTicket(msg.sender, \n        \"https://gateway.pinata.cloud/ipfs/QmbwT4KbKVxmu3j8oyC6fBogUyrm5komhX4oM9yCEf5pvG?_gl=1*1ntohon*_ga*MmQ1YjA4MTUtYmMwNy00YTFkLTlhZGEtMGYyMzFmM2JlZDlh*_ga_5RMPXG14TE*MTY4MDQ1NDY5NS4xLjEuMTY4MDQ1NDgxMC42LjAuMA/\", \n        eventsCreated, availableTickets, ticketPrice, msg.sender);\n        // Emit event creation\n        emit eventCreated(msg.sender);\n\n    }\n\n    /** @dev when buying a ticket, you must provide the tokenID and the eventID */ \n    function buyTicket(uint256 tokenID) public payable {\n        // Get all ticket information from the one selling it\n        require(_exists(tokenID), \"Sorry but it seems like this ticket doesn't even exist. Please Contact Us so we can get this sorted out.\");\n        TicketInfo memory ticket = ticketNFTS[tokenID];\n        require(ticket.isForSale, \"This ticket is not for sale\");\n        require(msg.value == ticket.ticketPrice, \"You must pay the amount that the ticket owner is selling this ticket for.\");\n        require(msg.sender != ticket.owner, \"You cannot buy your own ticket\");\n        address ticketOwner = ownerOf(tokenID);\n        address payable sellerToPay = payable(ticketOwner);\n        // Transfer the ticket from the previous owner to the new owner\n        // sellerToPay.transfer(msg.value);\n        (bool sent,) = sellerToPay.call{value: msg.value}(\"\");\n        require(sent, \"Failed to send Ether\");\n        ticketTransfer(ticketOwner, msg.sender, tokenID);\n        // Modify 'ticketNFT' to set 'isForSale' to False and 'owner' to msg.sender\n        ticketNFTS[tokenID].isForSale = false;\n        ticketNFTS[tokenID].owner = msg.sender;\n        // Update 'userTickets' so that it gets added to the new owner and removed from old owner\n        // (address => list of TICKET ID's that maps to the NFT)\n        // Removing from old owner\n        for (uint256 index = 0; index < userTickets[ticketOwner].length; index++){\n            if (userTickets[ticketOwner][index] == tokenID){\n                removeTicketFromSellList(ticketOwner, index);\n                break;\n            }\n        }\n        // Adding to new owner\n        userTickets[msg.sender].push(tokenID);\n        // Remove the ticketID from 'eventTickets' (eventID => uint256[])\n        for (uint256 index = 0; index < eventTickets[ticket.eventID].length; index++){\n            if (eventTickets[ticket.eventID][index] == tokenID){\n                removeEventTicket(ticket.eventID, index);\n                break;\n            }\n        }\n        // Update EventInfo if we buy from organizer\n        if (ticketOwner == allEvents[ticket.eventID].eventCreatorAddress){\n            allEvents[ticket.eventID].availableTickets--;\n        }\n        // Emit ticket being sold\n        emit ticketSold(msg.sender, ticket.ticketPrice);\n\n    }\n\n    function sellTicket(uint256 sellingAmount, uint256 tokenID) onlyTicketOwner(tokenID) public payable {\n        // Get all ticket information from the one selling it\n        require(_exists(tokenID), \"Sorry but it seems like this ticket doesn't even exist. Please Contact Us so we can get this sorted out.\");\n        TicketInfo memory ticket = ticketNFTS[tokenID];\n        address ticketOwner = ownerOf(tokenID);\n        require(ticket.isForSale == false, \"This ticket is already up for sale.\");\n        require(ticketOwner == msg.sender);\n        // We modify ticketsNFT to match new price and set 'isForSale' to True.\n        ticketNFTS[tokenID].isForSale = true;\n        ticketNFTS[tokenID].ticketPrice = sellingAmount;\n        // Add it to Event Tickets\n        eventTickets[ticket.eventID].push(tokenID);\n        // Emit event\n        emit ticketForSale(ticketOwner, sellingAmount);\n        \n\n    }\n\n    // This is the function to see all of the tickets being sold for a specific event\n    function viewAllEventTickets(uint256 eventID) public view returns(TicketInfo[] memory) {  \n        require(eventID <= eventsCreated, \"This event does not exist\");  \n        uint256[] memory retrievedTicketsForSale = eventTickets[eventID];\n        TicketInfo[] memory dataToReturn = new TicketInfo[](retrievedTicketsForSale.length);\n        for (uint256 counter = 0; counter < retrievedTicketsForSale.length; counter++){\n            uint256 currentTokenID = retrievedTicketsForSale[counter];\n            TicketInfo memory currTicketInfo = ticketNFTS[currentTokenID];\n            dataToReturn[counter] = currTicketInfo;\n        }\n        return(dataToReturn);\n    }\n\n    // This is the function that will be called when a user wants to view their ticket information\n    function viewTicketInfo(uint tokenID) public view returns(TicketInfo memory) {\n        require(_exists(tokenID), \"Sorry but it seems like this ticket doesn't even exist. Please Contact Us so we can get this sorted out.\");\n        // The returned value will be an instance of the TicketInfo, it has the following information:\n        //  - Which event the Ticket belongs to: uint256 eventID;\n        //  - The token ID: uint256 tokenID;\n        //  - The price of the ticket: uint256 ticketPrice;\n        //  - The owner of the ticket: address payable owner;\n        //  - Is the ticket for sale: bool isForSale;\n        return ticketNFTS[tokenID];\n    }\n\n    function getEventDetails(uint256 eventID) public view returns(address, uint256, uint256, bool, uint256) {\n        require(eventID <= eventsCreated, \"This event does not exist\");                                                     \n        EventInfo memory eventInformation = allEvents[eventID];\n        return (eventInformation.eventCreatorAddress, eventInformation.eventID,\n                eventInformation.availableTickets, eventInformation.isEventActive, eventInformation.ticketPrice);\n    }\n    \n    // This function will return all of the tickets that belong to a user\n    function getAllUserTickets(address from) public view returns(TicketInfo[] memory) {\n        // 'userTickets' is a map to hold all of the tickets mapped to a user (address => list of TICKET ID's that maps to the NFT)\n        uint256[] memory userTokens = userTickets[from];\n        TicketInfo[] memory dataToReturn = new TicketInfo[](userTokens.length);\n        // We go through each ticketID that belongs to them\n        for (uint256 counter = 0; counter < userTokens.length; counter++) {\n            uint256 currTokenID = userTokens[counter];\n            // Then we get the sepcifc TicketInfo using currTokenID\n            dataToReturn[counter] = ticketNFTS[currTokenID];\n        }\n        return (dataToReturn);\n    }\n\n    /** @dev This function will return all of the events that were created */\n    function viewAllEvents() public view returns(EventInfo[] memory){\n        return(allEventsArray);\n    }\n\n    function viewMyEvents(address from) public view returns(EventInfo[] memory){\n        return(userEvents[from]);\n    }\n\n    function getEventCreatorAddress(uint256 eventID) private view returns(address){\n         return allEvents[eventID].eventCreatorAddress;\n    } \n\n    function removeTicketFromSellList(address ticketOwner, uint256 index) private {\n        for (uint256 newIndex = index; newIndex < userTickets[ticketOwner].length - 1; newIndex++) {\n            userTickets[ticketOwner][newIndex] = userTickets[ticketOwner][newIndex + 1];\n        }   \n        userTickets[ticketOwner].pop();\n    }\n\n    function removeEventTicket(uint256 eventID, uint256 index) private {\n        for (uint256 newIndex = index; newIndex < eventTickets[eventID].length - 1; newIndex++) {\n            eventTickets[eventID][newIndex] = eventTickets[eventID][newIndex + 1];\n        }   \n        eventTickets[eventID].pop();\n    }\n\n    /**\n     * @dev See {IERC721-transferFrom}.\n     * References: \n     *  - https://docs.openzeppelin.com/contracts/4.x/api/token/erc721#IERC721-setApprovalForAll-address-bool-\n     *  - https://github.com/OpenZeppelin/openzeppelin-contracts/blob/master/contracts/token/ERC721/ERC721.sol\n     */\n    function ticketTransfer(address from, address to, uint256 tokenId) private  {\n        //solhint-disable-next-line max-line-length\n        require(ownerOf(tokenId) == from, \"Token not owned by sender\");\n        require(to != address(0), \"Invalid recipient address\");\n        require(from != address(0), \"Invalid sender address\");\n        _transfer(from, to, tokenId);\n    }\n\n\n}",
  "sourcePath": "/Users/mahdyfer/Desktop/Decentralized-Ticket-System/ticket-contract/contracts/TicketSmartContract.sol",
  "compiler": {
    "name": "solc",
    "version": "0.8.18+commit.87f61d96.Emscripten.clang"
  },
  "schemaVersion": "3.4.13",
  "updatedAt": "2023-04-27T18:49:45.986Z",
  "devdoc": {
    "events": {
      "Approval(address,address,uint256)": {
        "details": "Emitted when `owner` enables `approved` to manage the `tokenId` token."
      },
      "ApprovalForAll(address,address,bool)": {
        "details": "Emitted when `owner` enables or disables (`approved`) `operator` to manage all of its assets."
      },
      "Transfer(address,address,uint256)": {
        "details": "Emitted when `tokenId` token is transferred from `from` to `to`."
      }
    },
    "kind": "dev",
    "methods": {
      "approve(address,uint256)": {
        "details": "See {IERC721-approve}."
      },
      "balanceOf(address)": {
        "details": "See {IERC721-balanceOf}."
      },
      "buyTicket(uint256)": {
        "details": "when buying a ticket, you must provide the tokenID and the eventID "
      },
      "createEvent(uint256,uint256)": {
        "details": "anyone can Create an Event "
      },
      "getApproved(uint256)": {
        "details": "See {IERC721-getApproved}."
      },
      "isApprovedForAll(address,address)": {
        "details": "See {IERC721-isApprovedForAll}."
      },
      "name()": {
        "details": "See {IERC721Metadata-name}."
      },
      "owner()": {
        "details": "Returns the address of the current owner."
      },
      "ownerOf(uint256)": {
        "details": "See {IERC721-ownerOf}."
      },
      "renounceOwnership()": {
        "details": "Leaves the contract without owner. It will not be possible to call `onlyOwner` functions anymore. Can only be called by the current owner. NOTE: Renouncing ownership will leave the contract without an owner, thereby removing any functionality that is only available to the owner."
      },
      "safeTransferFrom(address,address,uint256)": {
        "details": "See {IERC721-safeTransferFrom}."
      },
      "safeTransferFrom(address,address,uint256,bytes)": {
        "details": "See {IERC721-safeTransferFrom}."
      },
      "setApprovalForAll(address,bool)": {
        "details": "See {IERC721-setApprovalForAll}."
      },
      "supportsInterface(bytes4)": {
        "details": "See {IERC165-supportsInterface}."
      },
      "symbol()": {
        "details": "See {IERC721Metadata-symbol}."
      },
      "tokenURI(uint256)": {
        "details": "See {IERC721Metadata-tokenURI}."
      },
      "transferFrom(address,address,uint256)": {
        "details": "See {IERC721-transferFrom}."
      },
      "transferOwnership(address)": {
        "details": "Transfers ownership of the contract to a new account (`newOwner`). Can only be called by the current owner."
      },
      "viewAllEvents()": {
        "details": "This function will return all of the events that were created "
      }
    },
    "version": 1
  },
  "userdoc": {
    "kind": "user",
    "methods": {},
    "version": 1
  }
}