{
  "contractName": "TicketSmartContract",
  "abi": [
    {
      "inputs": [],
      "stateMutability": "nonpayable",
      "type": "constructor"
    },
    {
      "anonymous": false,
      "inputs": [
        {
          "indexed": true,
          "internalType": "address",
          "name": "owner",
          "type": "address"
        },
        {
          "indexed": true,
          "internalType": "address",
          "name": "approved",
          "type": "address"
        },
        {
          "indexed": true,
          "internalType": "uint256",
          "name": "tokenId",
          "type": "uint256"
        }
      ],
      "name": "Approval",
      "type": "event"
    },
    {
      "anonymous": false,
      "inputs": [
        {
          "indexed": true,
          "internalType": "address",
          "name": "owner",
          "type": "address"
        },
        {
          "indexed": true,
          "internalType": "address",
          "name": "operator",
          "type": "address"
        },
        {
          "indexed": false,
          "internalType": "bool",
          "name": "approved",
          "type": "bool"
        }
      ],
      "name": "ApprovalForAll",
      "type": "event"
    },
    {
      "anonymous": false,
      "inputs": [
        {
          "indexed": true,
          "internalType": "address",
          "name": "previousOwner",
          "type": "address"
        },
        {
          "indexed": true,
          "internalType": "address",
          "name": "newOwner",
          "type": "address"
        }
      ],
      "name": "OwnershipTransferred",
      "type": "event"
    },
    {
      "anonymous": false,
      "inputs": [
        {
          "indexed": true,
          "internalType": "address",
          "name": "from",
          "type": "address"
        },
        {
          "indexed": true,
          "internalType": "address",
          "name": "to",
          "type": "address"
        },
        {
          "indexed": true,
          "internalType": "uint256",
          "name": "tokenId",
          "type": "uint256"
        }
      ],
      "name": "Transfer",
      "type": "event"
    },
    {
      "anonymous": false,
      "inputs": [
        {
          "indexed": false,
          "internalType": "string",
          "name": "eventName",
          "type": "string"
        },
        {
          "indexed": false,
          "internalType": "address",
          "name": "eventOrganizer",
          "type": "address"
        }
      ],
      "name": "eventCreated",
      "type": "event"
    },
    {
      "anonymous": false,
      "inputs": [
        {
          "indexed": false,
          "internalType": "address",
          "name": "seller",
          "type": "address"
        },
        {
          "indexed": false,
          "internalType": "uint256",
          "name": "amount",
          "type": "uint256"
        }
      ],
      "name": "ticketForSale",
      "type": "event"
    },
    {
      "anonymous": false,
      "inputs": [
        {
          "indexed": false,
          "internalType": "address",
          "name": "buyer",
          "type": "address"
        },
        {
          "indexed": false,
          "internalType": "uint256",
          "name": "amountSold",
          "type": "uint256"
        }
      ],
      "name": "ticketSold",
      "type": "event"
    },
    {
      "inputs": [
        {
          "internalType": "address",
          "name": "to",
          "type": "address"
        },
        {
          "internalType": "uint256",
          "name": "tokenId",
          "type": "uint256"
        }
      ],
      "name": "approve",
      "outputs": [],
      "stateMutability": "nonpayable",
      "type": "function"
    },
    {
      "inputs": [
        {
          "internalType": "address",
          "name": "owner",
          "type": "address"
        }
      ],
      "name": "balanceOf",
      "outputs": [
        {
          "internalType": "uint256",
          "name": "",
          "type": "uint256"
        }
      ],
      "stateMutability": "view",
      "type": "function",
      "constant": true
    },
    {
      "inputs": [
        {
          "internalType": "uint256",
          "name": "tokenId",
          "type": "uint256"
        }
      ],
      "name": "getApproved",
      "outputs": [
        {
          "internalType": "address",
          "name": "",
          "type": "address"
        }
      ],
      "stateMutability": "view",
      "type": "function",
      "constant": true
    },
    {
      "inputs": [
        {
          "internalType": "address",
          "name": "owner",
          "type": "address"
        },
        {
          "internalType": "address",
          "name": "operator",
          "type": "address"
        }
      ],
      "name": "isApprovedForAll",
      "outputs": [
        {
          "internalType": "bool",
          "name": "",
          "type": "bool"
        }
      ],
      "stateMutability": "view",
      "type": "function",
      "constant": true
    },
    {
      "inputs": [],
      "name": "name",
      "outputs": [
        {
          "internalType": "string",
          "name": "",
          "type": "string"
        }
      ],
      "stateMutability": "view",
      "type": "function",
      "constant": true
    },
    {
      "inputs": [],
      "name": "owner",
      "outputs": [
        {
          "internalType": "address",
          "name": "",
          "type": "address"
        }
      ],
      "stateMutability": "view",
      "type": "function",
      "constant": true
    },
    {
      "inputs": [
        {
          "internalType": "uint256",
          "name": "tokenId",
          "type": "uint256"
        }
      ],
      "name": "ownerOf",
      "outputs": [
        {
          "internalType": "address",
          "name": "",
          "type": "address"
        }
      ],
      "stateMutability": "view",
      "type": "function",
      "constant": true
    },
    {
      "inputs": [],
      "name": "renounceOwnership",
      "outputs": [],
      "stateMutability": "nonpayable",
      "type": "function"
    },
    {
      "inputs": [
        {
          "internalType": "address",
          "name": "from",
          "type": "address"
        },
        {
          "internalType": "address",
          "name": "to",
          "type": "address"
        },
        {
          "internalType": "uint256",
          "name": "tokenId",
          "type": "uint256"
        }
      ],
      "name": "safeTransferFrom",
      "outputs": [],
      "stateMutability": "nonpayable",
      "type": "function"
    },
    {
      "inputs": [
        {
          "internalType": "address",
          "name": "from",
          "type": "address"
        },
        {
          "internalType": "address",
          "name": "to",
          "type": "address"
        },
        {
          "internalType": "uint256",
          "name": "tokenId",
          "type": "uint256"
        },
        {
          "internalType": "bytes",
          "name": "data",
          "type": "bytes"
        }
      ],
      "name": "safeTransferFrom",
      "outputs": [],
      "stateMutability": "nonpayable",
      "type": "function"
    },
    {
      "inputs": [
        {
          "internalType": "address",
          "name": "operator",
          "type": "address"
        },
        {
          "internalType": "bool",
          "name": "approved",
          "type": "bool"
        }
      ],
      "name": "setApprovalForAll",
      "outputs": [],
      "stateMutability": "nonpayable",
      "type": "function"
    },
    {
      "inputs": [
        {
          "internalType": "bytes4",
          "name": "interfaceId",
          "type": "bytes4"
        }
      ],
      "name": "supportsInterface",
      "outputs": [
        {
          "internalType": "bool",
          "name": "",
          "type": "bool"
        }
      ],
      "stateMutability": "view",
      "type": "function",
      "constant": true
    },
    {
      "inputs": [],
      "name": "symbol",
      "outputs": [
        {
          "internalType": "string",
          "name": "",
          "type": "string"
        }
      ],
      "stateMutability": "view",
      "type": "function",
      "constant": true
    },
    {
      "inputs": [
        {
          "internalType": "uint256",
          "name": "tokenId",
          "type": "uint256"
        }
      ],
      "name": "tokenURI",
      "outputs": [
        {
          "internalType": "string",
          "name": "",
          "type": "string"
        }
      ],
      "stateMutability": "view",
      "type": "function",
      "constant": true
    },
    {
      "inputs": [
        {
          "internalType": "address",
          "name": "from",
          "type": "address"
        },
        {
          "internalType": "address",
          "name": "to",
          "type": "address"
        },
        {
          "internalType": "uint256",
          "name": "tokenId",
          "type": "uint256"
        }
      ],
      "name": "transferFrom",
      "outputs": [],
      "stateMutability": "nonpayable",
      "type": "function"
    },
    {
      "inputs": [
        {
          "internalType": "address",
          "name": "newOwner",
          "type": "address"
        }
      ],
      "name": "transferOwnership",
      "outputs": [],
      "stateMutability": "nonpayable",
      "type": "function"
    },
    {
      "inputs": [
        {
          "internalType": "string",
          "name": "eventName",
          "type": "string"
        },
        {
          "internalType": "uint256",
          "name": "availableTickets",
          "type": "uint256"
        },
        {
          "internalType": "uint256",
          "name": "maxTicketPrice",
          "type": "uint256"
        },
        {
          "internalType": "uint256",
          "name": "minTicketPrice",
          "type": "uint256"
        },
        {
          "internalType": "uint256",
          "name": "ticketPrice",
          "type": "uint256"
        }
      ],
      "name": "createEvent",
      "outputs": [],
      "stateMutability": "payable",
      "type": "function",
      "payable": true
    },
    {
      "inputs": [
        {
          "internalType": "uint256",
          "name": "tokenID",
          "type": "uint256"
        }
      ],
      "name": "buyTicket",
      "outputs": [],
      "stateMutability": "payable",
      "type": "function",
      "payable": true
    },
    {
      "inputs": [
        {
          "internalType": "uint256",
          "name": "sellingAmount",
          "type": "uint256"
        },
        {
          "internalType": "uint256",
          "name": "tokenID",
          "type": "uint256"
        }
      ],
      "name": "sellTicket",
      "outputs": [],
      "stateMutability": "payable",
      "type": "function",
      "payable": true
    },
    {
      "inputs": [
        {
          "internalType": "uint256",
          "name": "eventID",
          "type": "uint256"
        }
      ],
      "name": "viewAllEventTickets",
      "outputs": [
        {
          "components": [
            {
              "internalType": "uint256",
              "name": "eventID",
              "type": "uint256"
            },
            {
              "internalType": "uint256",
              "name": "tokenID",
              "type": "uint256"
            },
            {
              "internalType": "uint256",
              "name": "ticketPrice",
              "type": "uint256"
            },
            {
              "internalType": "address",
              "name": "owner",
              "type": "address"
            },
            {
              "internalType": "bool",
              "name": "isForSale",
              "type": "bool"
            },
            {
              "internalType": "string",
              "name": "tokenURI",
              "type": "string"
            }
          ],
          "internalType": "struct TicketSmartContract.TicketInfo[]",
          "name": "",
          "type": "tuple[]"
        }
      ],
      "stateMutability": "view",
      "type": "function",
      "constant": true
    },
    {
      "inputs": [
        {
          "internalType": "uint256",
          "name": "tokenID",
          "type": "uint256"
        }
      ],
      "name": "viewTicketInfo",
      "outputs": [
        {
          "components": [
            {
              "internalType": "uint256",
              "name": "eventID",
              "type": "uint256"
            },
            {
              "internalType": "uint256",
              "name": "tokenID",
              "type": "uint256"
            },
            {
              "internalType": "uint256",
              "name": "ticketPrice",
              "type": "uint256"
            },
            {
              "internalType": "address",
              "name": "owner",
              "type": "address"
            },
            {
              "internalType": "bool",
              "name": "isForSale",
              "type": "bool"
            },
            {
              "internalType": "string",
              "name": "tokenURI",
              "type": "string"
            }
          ],
          "internalType": "struct TicketSmartContract.TicketInfo",
          "name": "",
          "type": "tuple"
        }
      ],
      "stateMutability": "view",
      "type": "function",
      "constant": true
    },
    {
      "inputs": [
        {
          "internalType": "uint256",
          "name": "eventID",
          "type": "uint256"
        }
      ],
      "name": "getEventDetails",
      "outputs": [
        {
          "internalType": "string",
          "name": "",
          "type": "string"
        },
        {
          "internalType": "address",
          "name": "",
          "type": "address"
        },
        {
          "internalType": "uint256",
          "name": "",
          "type": "uint256"
        },
        {
          "internalType": "uint256",
          "name": "",
          "type": "uint256"
        },
        {
          "internalType": "uint256",
          "name": "",
          "type": "uint256"
        },
        {
          "internalType": "uint256",
          "name": "",
          "type": "uint256"
        },
        {
          "internalType": "uint256",
          "name": "",
          "type": "uint256"
        },
        {
          "internalType": "bool",
          "name": "",
          "type": "bool"
        },
        {
          "internalType": "uint256",
          "name": "",
          "type": "uint256"
        }
      ],
      "stateMutability": "view",
      "type": "function",
      "constant": true
    },
    {
      "inputs": [
        {
          "internalType": "address",
          "name": "from",
          "type": "address"
        }
      ],
      "name": "getAllUserTickets",
      "outputs": [
        {
          "components": [
            {
              "internalType": "uint256",
              "name": "eventID",
              "type": "uint256"
            },
            {
              "internalType": "uint256",
              "name": "tokenID",
              "type": "uint256"
            },
            {
              "internalType": "uint256",
              "name": "ticketPrice",
              "type": "uint256"
            },
            {
              "internalType": "address",
              "name": "owner",
              "type": "address"
            },
            {
              "internalType": "bool",
              "name": "isForSale",
              "type": "bool"
            },
            {
              "internalType": "string",
              "name": "tokenURI",
              "type": "string"
            }
          ],
          "internalType": "struct TicketSmartContract.TicketInfo[]",
          "name": "",
          "type": "tuple[]"
        }
      ],
      "stateMutability": "view",
      "type": "function",
      "constant": true
    },
    {
      "inputs": [],
      "name": "viewAllEvents",
      "outputs": [
        {
          "components": [
            {
              "internalType": "string",
              "name": "eventName",
              "type": "string"
            },
            {
              "internalType": "address",
              "name": "eventCreatorAddress",
              "type": "address"
            },
            {
              "internalType": "uint256",
              "name": "eventID",
              "type": "uint256"
            },
            {
              "internalType": "uint256",
              "name": "availableTickets",
              "type": "uint256"
            },
            {
              "internalType": "uint256",
              "name": "soldTickets",
              "type": "uint256"
            },
            {
              "internalType": "uint256",
              "name": "maxTicketPrice",
              "type": "uint256"
            },
            {
              "internalType": "uint256",
              "name": "minTicketPrice",
              "type": "uint256"
            },
            {
              "internalType": "bool",
              "name": "isEventActive",
              "type": "bool"
            },
            {
              "internalType": "uint256",
              "name": "ticketPrice",
              "type": "uint256"
            }
          ],
          "internalType": "struct TicketSmartContract.EventInfo[]",
          "name": "",
          "type": "tuple[]"
        }
      ],
      "stateMutability": "view",
      "type": "function",
      "constant": true
    },
    {
      "inputs": [
        {
          "internalType": "address",
          "name": "from",
          "type": "address"
        }
      ],
      "name": "viewMyEvents",
      "outputs": [
        {
          "components": [
            {
              "internalType": "string",
              "name": "eventName",
              "type": "string"
            },
            {
              "internalType": "address",
              "name": "eventCreatorAddress",
              "type": "address"
            },
            {
              "internalType": "uint256",
              "name": "eventID",
              "type": "uint256"
            },
            {
              "internalType": "uint256",
              "name": "availableTickets",
              "type": "uint256"
            },
            {
              "internalType": "uint256",
              "name": "soldTickets",
              "type": "uint256"
            },
            {
              "internalType": "uint256",
              "name": "maxTicketPrice",
              "type": "uint256"
            },
            {
              "internalType": "uint256",
              "name": "minTicketPrice",
              "type": "uint256"
            },
            {
              "internalType": "bool",
              "name": "isEventActive",
              "type": "bool"
            },
            {
              "internalType": "uint256",
              "name": "ticketPrice",
              "type": "uint256"
            }
          ],
          "internalType": "struct TicketSmartContract.EventInfo[]",
          "name": "",
          "type": "tuple[]"
        }
      ],
      "stateMutability": "view",
      "type": "function",
      "constant": true
    }
  ],
  "bytecode": "0x608060405260006009553480156200001657600080fd5b506040518060400160405280600a81526020017f4c756e6172436f696e73000000000000000000000000000000000000000000008152506040518060400160405280600381526020017f4c4e430000000000000000000000000000000000000000000000000000000000815250816000908162000094919062000417565b508060019081620000a6919062000417565b505050620000c9620000bd620000cf60201b60201c565b620000d760201b60201c565b620004fe565b600033905090565b6000600760009054906101000a900473ffffffffffffffffffffffffffffffffffffffff16905081600760006101000a81548173ffffffffffffffffffffffffffffffffffffffff021916908373ffffffffffffffffffffffffffffffffffffffff1602179055508173ffffffffffffffffffffffffffffffffffffffff168173ffffffffffffffffffffffffffffffffffffffff167f8be0079c531659141344cd1fd0a4f28419497f9722a3daafe3b4186f6b6457e060405160405180910390a35050565b600081519050919050565b7f4e487b7100000000000000000000000000000000000000000000000000000000600052604160045260246000fd5b7f4e487b7100000000000000000000000000000000000000000000000000000000600052602260045260246000fd5b600060028204905060018216806200021f57607f821691505b602082108103620002355762000234620001d7565b5b50919050565b60008190508160005260206000209050919050565b60006020601f8301049050919050565b600082821b905092915050565b6000600883026200029f7fffffffffffffffffffffffffffffffffffffffffffffffffffffffffffffffff8262000260565b620002ab868362000260565b95508019841693508086168417925050509392505050565b6000819050919050565b6000819050919050565b6000620002f8620002f2620002ec84620002c3565b620002cd565b620002c3565b9050919050565b6000819050919050565b6200031483620002d7565b6200032c6200032382620002ff565b8484546200026d565b825550505050565b600090565b6200034362000334565b6200035081848462000309565b505050565b5b8181101562000378576200036c60008262000339565b60018101905062000356565b5050565b601f821115620003c75762000391816200023b565b6200039c8462000250565b81016020851015620003ac578190505b620003c4620003bb8562000250565b83018262000355565b50505b505050565b600082821c905092915050565b6000620003ec60001984600802620003cc565b1980831691505092915050565b6000620004078383620003d9565b9150826002028217905092915050565b62000422826200019d565b67ffffffffffffffff8111156200043e576200043d620001a8565b5b6200044a825462000206565b620004578282856200037c565b600060209050601f8311600181146200048f57600084156200047a578287015190505b620004868582620003f9565b865550620004f6565b601f1984166200049f866200023b565b60005b82811015620004c957848901518255600182019150602085019450602081019050620004a2565b86831015620004e95784890151620004e5601f891682620003d9565b8355505b6001600288020188555050505b505050505050565b615eef806200050e6000396000f3fe6080604052600436106101665760003560e01c80638da5cb5b116100d1578063cb56a1e11161008a578063ea1f1fdd11610064578063ea1f1fdd14610549578063ec38d5a014610574578063f2fde38b146105b9578063fdfc75ff146105e257610166565b8063cb56a1e1146104b3578063dbf3f3c9146104f0578063e985e9c51461050c57610166565b80638da5cb5b1461039157806395d89b41146103bc578063a22cb465146103e7578063b5fefe0614610410578063b88d4fde1461044d578063c87b56dd1461047657610166565b80632a6c4c14116101235780632a6c4c141461029f57806342842e0e146102bb5780636352211e146102e457806367dd74ca1461032157806370a082311461033d578063715018a61461037a57610166565b806301ffc9a71461016b57806306fdde03146101a8578063081812fc146101d3578063095ea7b3146102105780630bb02e0b1461023957806323b872dd14610276575b600080fd5b34801561017757600080fd5b50610192600480360381019061018d9190613f8e565b61061f565b60405161019f9190613fd6565b60405180910390f35b3480156101b457600080fd5b506101bd610701565b6040516101ca9190614081565b60405180910390f35b3480156101df57600080fd5b506101fa60048036038101906101f591906140d9565b610793565b6040516102079190614147565b60405180910390f35b34801561021c57600080fd5b506102376004803603810190610232919061418e565b6107d9565b005b34801561024557600080fd5b50610260600480360381019061025b91906141ce565b6108f0565b60405161026d91906143bd565b60405180910390f35b34801561028257600080fd5b5061029d600480360381019061029891906143df565b610b84565b005b6102b960048036038101906102b49190614432565b610be4565b005b3480156102c757600080fd5b506102e260048036038101906102dd91906143df565b610f72565b005b3480156102f057600080fd5b5061030b600480360381019061030691906140d9565b610f92565b6040516103189190614147565b60405180910390f35b61033b600480360381019061033691906140d9565b611018565b005b34801561034957600080fd5b50610364600480360381019061035f91906141ce565b611620565b6040516103719190614481565b60405180910390f35b34801561038657600080fd5b5061038f6116d7565b005b34801561039d57600080fd5b506103a66116eb565b6040516103b39190614147565b60405180910390f35b3480156103c857600080fd5b506103d1611715565b6040516103de9190614081565b60405180910390f35b3480156103f357600080fd5b5061040e600480360381019061040991906144c8565b6117a7565b005b34801561041c57600080fd5b50610437600480360381019061043291906140d9565b6117bd565b60405161044491906143bd565b60405180910390f35b34801561045957600080fd5b50610474600480360381019061046f919061463d565b611a70565b005b34801561048257600080fd5b5061049d600480360381019061049891906140d9565b611ad2565b6040516104aa9190614081565b60405180910390f35b3480156104bf57600080fd5b506104da60048036038101906104d591906140d9565b611be4565b6040516104e79190614749565b60405180910390f35b61050a6004803603810190610505919061480c565b611d7a565b005b34801561051857600080fd5b50610533600480360381019061052e91906148a3565b61213b565b6040516105409190613fd6565b60405180910390f35b34801561055557600080fd5b5061055e6121cf565b60405161056b9190614a6a565b60405180910390f35b34801561058057600080fd5b5061059b600480360381019061059691906140d9565b61236e565b6040516105b099989796959493929190614a8c565b60405180910390f35b3480156105c557600080fd5b506105e060048036038101906105db91906141ce565b612571565b005b3480156105ee57600080fd5b50610609600480360381019061060491906141ce565b6125f4565b6040516106169190614a6a565b60405180910390f35b60007f80ac58cd000000000000000000000000000000000000000000000000000000007bffffffffffffffffffffffffffffffffffffffffffffffffffffffff1916827bffffffffffffffffffffffffffffffffffffffffffffffffffffffff191614806106ea57507f5b5e139f000000000000000000000000000000000000000000000000000000007bffffffffffffffffffffffffffffffffffffffffffffffffffffffff1916827bffffffffffffffffffffffffffffffffffffffffffffffffffffffff1916145b806106fa57506106f9826127d2565b5b9050919050565b60606000805461071090614b4f565b80601f016020809104026020016040519081016040528092919081815260200182805461073c90614b4f565b80156107895780601f1061075e57610100808354040283529160200191610789565b820191906000526020600020905b81548152906001019060200180831161076c57829003601f168201915b5050505050905090565b600061079e8261283c565b6004600083815260200190815260200160002060009054906101000a900473ffffffffffffffffffffffffffffffffffffffff169050919050565b60006107e482610f92565b90508073ffffffffffffffffffffffffffffffffffffffff168373ffffffffffffffffffffffffffffffffffffffff1603610854576040517f08c379a000000000000000000000000000000000000000000000000000000000815260040161084b90614bf2565b60405180910390fd5b8073ffffffffffffffffffffffffffffffffffffffff16610873612887565b73ffffffffffffffffffffffffffffffffffffffff1614806108a257506108a18161089c612887565b61213b565b5b6108e1576040517f08c379a00000000000000000000000000000000000000000000000000000000081526004016108d890614c84565b60405180910390fd5b6108eb838361288f565b505050565b60606000600b60008473ffffffffffffffffffffffffffffffffffffffff1673ffffffffffffffffffffffffffffffffffffffff16815260200190815260200160002080548060200260200160405190810160405280929190818152602001828054801561097d57602002820191906000526020600020905b815481526020019060010190808311610969575b505050505090506000815167ffffffffffffffff8111156109a1576109a0614512565b5b6040519080825280602002602001820160405280156109da57816020015b6109c7613ed4565b8152602001906001900390816109bf5790505b50905060005b8251811015610b795760008382815181106109fe576109fd614ca4565b5b60200260200101519050600a60008281526020019081526020016000206040518060c00160405290816000820154815260200160018201548152602001600282015481526020016003820160009054906101000a900473ffffffffffffffffffffffffffffffffffffffff1673ffffffffffffffffffffffffffffffffffffffff1673ffffffffffffffffffffffffffffffffffffffff1681526020016003820160149054906101000a900460ff16151515158152602001600482018054610ac590614b4f565b80601f0160208091040260200160405190810160405280929190818152602001828054610af190614b4f565b8015610b3e5780601f10610b1357610100808354040283529160200191610b3e565b820191906000526020600020905b815481529060010190602001808311610b2157829003601f168201915b505050505081525050838381518110610b5a57610b59614ca4565b5b6020026020010181905250508080610b7190614d02565b9150506109e0565b508092505050919050565b610b95610b8f612887565b82612948565b610bd4576040517f08c379a0000000000000000000000000000000000000000000000000000000008152600401610bcb90614dbc565b60405180910390fd5b610bdf8383836129dd565b505050565b806000600a600083815260200190815260200160002060030160009054906101000a900473ffffffffffffffffffffffffffffffffffffffff1690508073ffffffffffffffffffffffffffffffffffffffff163373ffffffffffffffffffffffffffffffffffffffff1614610c8e576040517f08c379a0000000000000000000000000000000000000000000000000000000008152600401610c8590614e4e565b60405180910390fd5b610c9783612cd6565b610cd6576040517f08c379a0000000000000000000000000000000000000000000000000000000008152600401610ccd90614f2c565b60405180910390fd5b6000600a60008581526020019081526020016000206040518060c00160405290816000820154815260200160018201548152602001600282015481526020016003820160009054906101000a900473ffffffffffffffffffffffffffffffffffffffff1673ffffffffffffffffffffffffffffffffffffffff1673ffffffffffffffffffffffffffffffffffffffff1681526020016003820160149054906101000a900460ff16151515158152602001600482018054610d9590614b4f565b80601f0160208091040260200160405190810160405280929190818152602001828054610dc190614b4f565b8015610e0e5780601f10610de357610100808354040283529160200191610e0e565b820191906000526020600020905b815481529060010190602001808311610df157829003601f168201915b50505050508152505090506000610e2485610f92565b9050600015158260800151151514610e71576040517f08c379a0000000000000000000000000000000000000000000000000000000008152600401610e6890614fbe565b60405180910390fd5b3373ffffffffffffffffffffffffffffffffffffffff168173ffffffffffffffffffffffffffffffffffffffff1614610ea957600080fd5b6001600a600087815260200190815260200160002060030160146101000a81548160ff02191690831515021790555085600a600087815260200190815260200160002060020181905550600e6000836000015181526020019081526020016000208590806001815401808255809150506001900390600052602060002001600090919091909150557fe1100292b67437c5865b16805ce2b8c23fe614fab0127bc2226b55d90924f4a68187604051610f62929190614fde565b60405180910390a1505050505050565b610f8d83838360405180602001604052806000815250611a70565b505050565b600080610f9e83612d17565b9050600073ffffffffffffffffffffffffffffffffffffffff168173ffffffffffffffffffffffffffffffffffffffff160361100f576040517f08c379a000000000000000000000000000000000000000000000000000000000815260040161100690615053565b60405180910390fd5b80915050919050565b61102181612cd6565b611060576040517f08c379a000000000000000000000000000000000000000000000000000000000815260040161105790614f2c565b60405180910390fd5b6000600a60008381526020019081526020016000206040518060c00160405290816000820154815260200160018201548152602001600282015481526020016003820160009054906101000a900473ffffffffffffffffffffffffffffffffffffffff1673ffffffffffffffffffffffffffffffffffffffff1673ffffffffffffffffffffffffffffffffffffffff1681526020016003820160149054906101000a900460ff1615151515815260200160048201805461111f90614b4f565b80601f016020809104026020016040519081016040528092919081815260200182805461114b90614b4f565b80156111985780601f1061116d57610100808354040283529160200191611198565b820191906000526020600020905b81548152906001019060200180831161117b57829003601f168201915b505050505081525050905080608001516111e7576040517f08c379a00000000000000000000000000000000000000000000000000000000081526004016111de906150bf565b60405180910390fd5b8060400151341461122d576040517f08c379a000000000000000000000000000000000000000000000000000000000815260040161122490615177565b60405180910390fd5b806060015173ffffffffffffffffffffffffffffffffffffffff163373ffffffffffffffffffffffffffffffffffffffff160361126957600080fd5b600061127483610f92565b90506000819050611286823386612d54565b8073ffffffffffffffffffffffffffffffffffffffff166108fc349081150290604051600060405180830381858888f193505050501580156112cc573d6000803e3d6000fd5b506000600a600086815260200190815260200160002060030160146101000a81548160ff02191690831515021790555033600a600086815260200190815260200160002060030160006101000a81548173ffffffffffffffffffffffffffffffffffffffff021916908373ffffffffffffffffffffffffffffffffffffffff16021790555060005b600b60008473ffffffffffffffffffffffffffffffffffffffff1673ffffffffffffffffffffffffffffffffffffffff168152602001908152602001600020805490508110156114225784600b60008573ffffffffffffffffffffffffffffffffffffffff1673ffffffffffffffffffffffffffffffffffffffff16815260200190815260200160002082815481106113f0576113ef614ca4565b5b90600052602060002001540361140f5761140a8382612eb8565b611422565b808061141a90614d02565b915050611354565b50600b60003373ffffffffffffffffffffffffffffffffffffffff1673ffffffffffffffffffffffffffffffffffffffff16815260200190815260200160002084908060018154018082558091505060019003906000526020600020016000909190919091505560005b600e6000856000015181526020019081526020016000208054905081101561150e5784600e60008660000151815260200190815260200160002082815481106114d8576114d7614ca4565b5b9060005260206000200154036114fb576114f6846000015182613058565b61150e565b808061150690614d02565b91505061148c565b50600d60008460000151815260200190815260200160002060010160009054906101000a900473ffffffffffffffffffffffffffffffffffffffff1673ffffffffffffffffffffffffffffffffffffffff168273ffffffffffffffffffffffffffffffffffffffff16036115dd57600d60008460000151815260200190815260200160002060030160008154809291906115a790615197565b9190505550600d60008460000151815260200190815260200160002060040160008154809291906115d790614d02565b91905055505b7ffb268800e5bd9b73e47d9f63967d745e732cff14cdb9b25d36cf98d0ba17f37a338460400151604051611612929190614fde565b60405180910390a150505050565b60008073ffffffffffffffffffffffffffffffffffffffff168273ffffffffffffffffffffffffffffffffffffffff1603611690576040517f08c379a000000000000000000000000000000000000000000000000000000000815260040161168790615232565b60405180910390fd5b600360008373ffffffffffffffffffffffffffffffffffffffff1673ffffffffffffffffffffffffffffffffffffffff168152602001908152602001600020549050919050565b6116df613148565b6116e960006131c6565b565b6000600760009054906101000a900473ffffffffffffffffffffffffffffffffffffffff16905090565b60606001805461172490614b4f565b80601f016020809104026020016040519081016040528092919081815260200182805461175090614b4f565b801561179d5780601f106117725761010080835404028352916020019161179d565b820191906000526020600020905b81548152906001019060200180831161178057829003601f168201915b5050505050905090565b6117b96117b2612887565b838361328c565b5050565b6060600954821115611804576040517f08c379a00000000000000000000000000000000000000000000000000000000081526004016117fb9061529e565b60405180910390fd5b6000600e600084815260200190815260200160002080548060200260200160405190810160405280929190818152602001828054801561186357602002820191906000526020600020905b81548152602001906001019080831161184f575b505050505090506000815167ffffffffffffffff81111561188757611886614512565b5b6040519080825280602002602001820160405280156118c057816020015b6118ad613ed4565b8152602001906001900390816118a55790505b50905060005b8251811015611a655760008382815181106118e4576118e3614ca4565b5b602002602001015190506000600a60008381526020019081526020016000206040518060c00160405290816000820154815260200160018201548152602001600282015481526020016003820160009054906101000a900473ffffffffffffffffffffffffffffffffffffffff1673ffffffffffffffffffffffffffffffffffffffff1673ffffffffffffffffffffffffffffffffffffffff1681526020016003820160149054906101000a900460ff161515151581526020016004820180546119ad90614b4f565b80601f01602080910402602001604051908101604052809291908181526020018280546119d990614b4f565b8015611a265780601f106119fb57610100808354040283529160200191611a26565b820191906000526020600020905b815481529060010190602001808311611a0957829003601f168201915b505050505081525050905080848481518110611a4557611a44614ca4565b5b602002602001018190525050508080611a5d90614d02565b9150506118c6565b508092505050919050565b611a81611a7b612887565b83612948565b611ac0576040517f08c379a0000000000000000000000000000000000000000000000000000000008152600401611ab790614dbc565b60405180910390fd5b611acc848484846133f8565b50505050565b6060611add8261283c565b6000600660008481526020019081526020016000208054611afd90614b4f565b80601f0160208091040260200160405190810160405280929190818152602001828054611b2990614b4f565b8015611b765780601f10611b4b57610100808354040283529160200191611b76565b820191906000526020600020905b815481529060010190602001808311611b5957829003601f168201915b505050505090506000611b87613454565b90506000815103611b9c578192505050611bdf565b600082511115611bd1578082604051602001611bb99291906152fa565b60405160208183030381529060405292505050611bdf565b611bda84613474565b925050505b919050565b611bec613ed4565b611bf582612cd6565b611c34576040517f08c379a0000000000000000000000000000000000000000000000000000000008152600401611c2b90614f2c565b60405180910390fd5b600a60008381526020019081526020016000206040518060c00160405290816000820154815260200160018201548152602001600282015481526020016003820160009054906101000a900473ffffffffffffffffffffffffffffffffffffffff1673ffffffffffffffffffffffffffffffffffffffff1673ffffffffffffffffffffffffffffffffffffffff1681526020016003820160149054906101000a900460ff16151515158152602001600482018054611cf190614b4f565b80601f0160208091040260200160405190810160405280929190818152602001828054611d1d90614b4f565b8015611d6a5780601f10611d3f57610100808354040283529160200191611d6a565b820191906000526020600020905b815481529060010190602001808311611d4d57829003601f168201915b5050505050815250509050919050565b60096000815480929190611d8d90614d02565b919050555060006040518061012001604052808781526020013373ffffffffffffffffffffffffffffffffffffffff16815260200160095481526020018681526020016000815260200185815260200184815260200160011515815260200183815250905080600d600060095481526020019081526020016000206000820151816000019081611e1d91906154ca565b5060208201518160010160006101000a81548173ffffffffffffffffffffffffffffffffffffffff021916908373ffffffffffffffffffffffffffffffffffffffff16021790555060408201518160020155606082015181600301556080820151816004015560a0820151816005015560c0820151816006015560e08201518160070160006101000a81548160ff0219169083151502179055506101008201518160080155905050600f8190806001815401808255809150506001900390600052602060002090600902016000909190919091506000820151816000019081611f0691906154ca565b5060208201518160010160006101000a81548173ffffffffffffffffffffffffffffffffffffffff021916908373ffffffffffffffffffffffffffffffffffffffff16021790555060408201518160020155606082015181600301556080820151816004015560a0820151816005015560c0820151816006015560e08201518160070160006101000a81548160ff02191690831515021790555061010082015181600801555050600c60003373ffffffffffffffffffffffffffffffffffffffff1673ffffffffffffffffffffffffffffffffffffffff168152602001908152602001600020819080600181540180825580915050600190039060005260206000209060090201600090919091909150600082015181600001908161202b91906154ca565b5060208201518160010160006101000a81548173ffffffffffffffffffffffffffffffffffffffff021916908373ffffffffffffffffffffffffffffffffffffffff16021790555060408201518160020155606082015181600301556080820151816004015560a0820151816005015560c0820151816006015560e08201518160070160006101000a81548160ff021916908315150217905550610100820151816008015550506120fa33604051806060016040528060358152602001615e42603591396009548886336134dc565b7f9bb0a2294dc628efc66437ec95f6ebe401ae9bf01c2f7a8e6945eb6ac58cd56f863360405161212b92919061559c565b60405180910390a1505050505050565b6000600560008473ffffffffffffffffffffffffffffffffffffffff1673ffffffffffffffffffffffffffffffffffffffff16815260200190815260200160002060008373ffffffffffffffffffffffffffffffffffffffff1673ffffffffffffffffffffffffffffffffffffffff16815260200190815260200160002060009054906101000a900460ff16905092915050565b6060600f805480602002602001604051908101604052809291908181526020016000905b8282101561236557838290600052602060002090600902016040518061012001604052908160008201805461222790614b4f565b80601f016020809104026020016040519081016040528092919081815260200182805461225390614b4f565b80156122a05780601f10612275576101008083540402835291602001916122a0565b820191906000526020600020905b81548152906001019060200180831161228357829003601f168201915b505050505081526020016001820160009054906101000a900473ffffffffffffffffffffffffffffffffffffffff1673ffffffffffffffffffffffffffffffffffffffff1673ffffffffffffffffffffffffffffffffffffffff16815260200160028201548152602001600382015481526020016004820154815260200160058201548152602001600682015481526020016007820160009054906101000a900460ff16151515158152602001600882015481525050815260200190600101906121f3565b50505050905090565b60606000806000806000806000806009548a11156123c1576040517f08c379a00000000000000000000000000000000000000000000000000000000081526004016123b89061529e565b60405180910390fd5b6000600d60008c8152602001908152602001600020604051806101200160405290816000820180546123f290614b4f565b80601f016020809104026020016040519081016040528092919081815260200182805461241e90614b4f565b801561246b5780601f106124405761010080835404028352916020019161246b565b820191906000526020600020905b81548152906001019060200180831161244e57829003601f168201915b505050505081526020016001820160009054906101000a900473ffffffffffffffffffffffffffffffffffffffff1673ffffffffffffffffffffffffffffffffffffffff1673ffffffffffffffffffffffffffffffffffffffff16815260200160028201548152602001600382015481526020016004820154815260200160058201548152602001600682015481526020016007820160009054906101000a900460ff161515151581526020016008820154815250509050806000015181602001518260400151836060015184608001518560a001518660c001518760e00151886101000151995099509950995099509950995099509950509193959799909294969850565b612579613148565b600073ffffffffffffffffffffffffffffffffffffffff168173ffffffffffffffffffffffffffffffffffffffff16036125e8576040517f08c379a00000000000000000000000000000000000000000000000000000000081526004016125df9061563e565b60405180910390fd5b6125f1816131c6565b50565b6060600c60008373ffffffffffffffffffffffffffffffffffffffff1673ffffffffffffffffffffffffffffffffffffffff168152602001908152602001600020805480602002602001604051908101604052809291908181526020016000905b828210156127c757838290600052602060002090600902016040518061012001604052908160008201805461268990614b4f565b80601f01602080910402602001604051908101604052809291908181526020018280546126b590614b4f565b80156127025780601f106126d757610100808354040283529160200191612702565b820191906000526020600020905b8154815290600101906020018083116126e557829003601f168201915b505050505081526020016001820160009054906101000a900473ffffffffffffffffffffffffffffffffffffffff1673ffffffffffffffffffffffffffffffffffffffff1673ffffffffffffffffffffffffffffffffffffffff16815260200160028201548152602001600382015481526020016004820154815260200160058201548152602001600682015481526020016007820160009054906101000a900460ff1615151515815260200160088201548152505081526020019060010190612655565b505050509050919050565b60007f01ffc9a7000000000000000000000000000000000000000000000000000000007bffffffffffffffffffffffffffffffffffffffffffffffffffffffff1916827bffffffffffffffffffffffffffffffffffffffffffffffffffffffff1916149050919050565b61284581612cd6565b612884576040517f08c379a000000000000000000000000000000000000000000000000000000000815260040161287b90615053565b60405180910390fd5b50565b600033905090565b816004600083815260200190815260200160002060006101000a81548173ffffffffffffffffffffffffffffffffffffffff021916908373ffffffffffffffffffffffffffffffffffffffff160217905550808273ffffffffffffffffffffffffffffffffffffffff1661290283610f92565b73ffffffffffffffffffffffffffffffffffffffff167f8c5be1e5ebec7d5bd14f71427d1e84f3dd0314c0f7b2291e5b200ac8c7c3b92560405160405180910390a45050565b60008061295483610f92565b90508073ffffffffffffffffffffffffffffffffffffffff168473ffffffffffffffffffffffffffffffffffffffff1614806129965750612995818561213b565b5b806129d457508373ffffffffffffffffffffffffffffffffffffffff166129bc84610793565b73ffffffffffffffffffffffffffffffffffffffff16145b91505092915050565b8273ffffffffffffffffffffffffffffffffffffffff166129fd82610f92565b73ffffffffffffffffffffffffffffffffffffffff1614612a53576040517f08c379a0000000000000000000000000000000000000000000000000000000008152600401612a4a906156d0565b60405180910390fd5b600073ffffffffffffffffffffffffffffffffffffffff168273ffffffffffffffffffffffffffffffffffffffff1603612ac2576040517f08c379a0000000000000000000000000000000000000000000000000000000008152600401612ab990615762565b60405180910390fd5b612acf8383836001613796565b8273ffffffffffffffffffffffffffffffffffffffff16612aef82610f92565b73ffffffffffffffffffffffffffffffffffffffff1614612b45576040517f08c379a0000000000000000000000000000000000000000000000000000000008152600401612b3c906156d0565b60405180910390fd5b6004600082815260200190815260200160002060006101000a81549073ffffffffffffffffffffffffffffffffffffffff02191690556001600360008573ffffffffffffffffffffffffffffffffffffffff1673ffffffffffffffffffffffffffffffffffffffff168152602001908152602001600020600082825403925050819055506001600360008473ffffffffffffffffffffffffffffffffffffffff1673ffffffffffffffffffffffffffffffffffffffff16815260200190815260200160002060008282540192505081905550816002600083815260200190815260200160002060006101000a81548173ffffffffffffffffffffffffffffffffffffffff021916908373ffffffffffffffffffffffffffffffffffffffff160217905550808273ffffffffffffffffffffffffffffffffffffffff168473ffffffffffffffffffffffffffffffffffffffff167fddf252ad1be2c89b69c2b068fc378daa952ba7f163c4a11628f55a4df523b3ef60405160405180910390a4612cd1838383600161379c565b505050565b60008073ffffffffffffffffffffffffffffffffffffffff16612cf883612d17565b73ffffffffffffffffffffffffffffffffffffffff1614159050919050565b60006002600083815260200190815260200160002060009054906101000a900473ffffffffffffffffffffffffffffffffffffffff169050919050565b8273ffffffffffffffffffffffffffffffffffffffff16612d7482610f92565b73ffffffffffffffffffffffffffffffffffffffff1614612dca576040517f08c379a0000000000000000000000000000000000000000000000000000000008152600401612dc1906157ce565b60405180910390fd5b600073ffffffffffffffffffffffffffffffffffffffff168273ffffffffffffffffffffffffffffffffffffffff1603612e39576040517f08c379a0000000000000000000000000000000000000000000000000000000008152600401612e309061583a565b60405180910390fd5b600073ffffffffffffffffffffffffffffffffffffffff168373ffffffffffffffffffffffffffffffffffffffff1603612ea8576040517f08c379a0000000000000000000000000000000000000000000000000000000008152600401612e9f906158a6565b60405180910390fd5b612eb38383836129dd565b505050565b60008190505b6001600b60008573ffffffffffffffffffffffffffffffffffffffff1673ffffffffffffffffffffffffffffffffffffffff16815260200190815260200160002080549050612f0d91906158c6565b811015612fee57600b60008473ffffffffffffffffffffffffffffffffffffffff1673ffffffffffffffffffffffffffffffffffffffff168152602001908152602001600020600182612f6091906158fa565b81548110612f7157612f70614ca4565b5b9060005260206000200154600b60008573ffffffffffffffffffffffffffffffffffffffff1673ffffffffffffffffffffffffffffffffffffffff1681526020019081526020016000208281548110612fcd57612fcc614ca4565b5b90600052602060002001819055508080612fe690614d02565b915050612ebe565b50600b60008373ffffffffffffffffffffffffffffffffffffffff1673ffffffffffffffffffffffffffffffffffffffff16815260200190815260200160002080548061303e5761303d61592e565b5b600190038181906000526020600020016000905590555050565b60008190505b6001600e60008581526020019081526020016000208054905061308191906158c6565b81101561310a57600e60008481526020019081526020016000206001826130a891906158fa565b815481106130b9576130b8614ca4565b5b9060005260206000200154600e600085815260200190815260200160002082815481106130e9576130e8614ca4565b5b9060005260206000200181905550808061310290614d02565b91505061305e565b50600e600083815260200190815260200160002080548061312e5761312d61592e565b5b600190038181906000526020600020016000905590555050565b613150612887565b73ffffffffffffffffffffffffffffffffffffffff1661316e6116eb565b73ffffffffffffffffffffffffffffffffffffffff16146131c4576040517f08c379a00000000000000000000000000000000000000000000000000000000081526004016131bb906159a9565b60405180910390fd5b565b6000600760009054906101000a900473ffffffffffffffffffffffffffffffffffffffff16905081600760006101000a81548173ffffffffffffffffffffffffffffffffffffffff021916908373ffffffffffffffffffffffffffffffffffffffff1602179055508173ffffffffffffffffffffffffffffffffffffffff168173ffffffffffffffffffffffffffffffffffffffff167f8be0079c531659141344cd1fd0a4f28419497f9722a3daafe3b4186f6b6457e060405160405180910390a35050565b8173ffffffffffffffffffffffffffffffffffffffff168373ffffffffffffffffffffffffffffffffffffffff16036132fa576040517f08c379a00000000000000000000000000000000000000000000000000000000081526004016132f190615a15565b60405180910390fd5b80600560008573ffffffffffffffffffffffffffffffffffffffff1673ffffffffffffffffffffffffffffffffffffffff16815260200190815260200160002060008473ffffffffffffffffffffffffffffffffffffffff1673ffffffffffffffffffffffffffffffffffffffff16815260200190815260200160002060006101000a81548160ff0219169083151502179055508173ffffffffffffffffffffffffffffffffffffffff168373ffffffffffffffffffffffffffffffffffffffff167f17307eab39ab6107e8899845ad3d59bd9653f200f220920489ca2b5937696c31836040516133eb9190613fd6565b60405180910390a3505050565b6134038484846129dd565b61340f848484846137a2565b61344e576040517f08c379a000000000000000000000000000000000000000000000000000000000815260040161344590615aa7565b60405180910390fd5b50505050565b6060604051806080016040528060438152602001615e7760439139905090565b606061347f8261283c565b6000613489613454565b905060008151116134a957604051806020016040528060008152506134d4565b806134b384613929565b6040516020016134c49291906152fa565b6040516020818303038152906040525b915050919050565b8360006134e8826139f7565b90508073ffffffffffffffffffffffffffffffffffffffff163373ffffffffffffffffffffffffffffffffffffffff1614613558576040517f08c379a000000000000000000000000000000000000000000000000000000000815260040161354f90615b39565b60405180910390fd5b60005b8581101561378b5761356d6008613a37565b60006135796008613a4d565b905061358481612cd6565b156135c4576040517f08c379a00000000000000000000000000000000000000000000000000000000081526004016135bb90615ba5565b60405180910390fd5b6135ce8a82613a5b565b6135d8818a613a79565b60006040518060c001604052808a81526020018381526020018881526020018773ffffffffffffffffffffffffffffffffffffffff1681526020016001151581526020018b815250905080600a600084815260200190815260200160002060008201518160000155602082015181600101556040820151816002015560608201518160030160006101000a81548173ffffffffffffffffffffffffffffffffffffffff021916908373ffffffffffffffffffffffffffffffffffffffff16021790555060808201518160030160146101000a81548160ff02191690831515021790555060a08201518160040190816136d091906154ca565b50905050600e60006009548152602001908152602001600020829080600181540180825580915050600190039060005260206000200160009091909190915055600b60008c73ffffffffffffffffffffffffffffffffffffffff1673ffffffffffffffffffffffffffffffffffffffff1681526020019081526020016000208290806001815401808255809150506001900390600052602060002001600090919091909150555050808061378390614d02565b91505061355b565b505050505050505050565b50505050565b50505050565b60006137c38473ffffffffffffffffffffffffffffffffffffffff16613ae6565b1561391c578373ffffffffffffffffffffffffffffffffffffffff1663150b7a026137ec612887565b8786866040518563ffffffff1660e01b815260040161380e9493929190615c1a565b6020604051808303816000875af192505050801561384a57506040513d601f19601f820116820180604052508101906138479190615c7b565b60015b6138cc573d806000811461387a576040519150601f19603f3d011682016040523d82523d6000602084013e61387f565b606091505b5060008151036138c4576040517f08c379a00000000000000000000000000000000000000000000000000000000081526004016138bb90615aa7565b60405180910390fd5b805181602001fd5b63150b7a0260e01b7bffffffffffffffffffffffffffffffffffffffffffffffffffffffff1916817bffffffffffffffffffffffffffffffffffffffffffffffffffffffff191614915050613921565b600190505b949350505050565b60606000600161393884613b09565b01905060008167ffffffffffffffff81111561395757613956614512565b5b6040519080825280601f01601f1916602001820160405280156139895781602001600182028036833780820191505090505b509050600082602001820190505b6001156139ec578080600190039150507f3031323334353637383961626364656600000000000000000000000000000000600a86061a8153600a85816139e0576139df615ca8565b5b04945060008503613997575b819350505050919050565b6000600d600083815260200190815260200160002060010160009054906101000a900473ffffffffffffffffffffffffffffffffffffffff169050919050565b6001816000016000828254019250508190555050565b600081600001549050919050565b613a75828260405180602001604052806000815250613c5c565b5050565b613a8282612cd6565b613ac1576040517f08c379a0000000000000000000000000000000000000000000000000000000008152600401613ab890615d49565b60405180910390fd5b80600660008481526020019081526020016000209081613ae191906154ca565b505050565b6000808273ffffffffffffffffffffffffffffffffffffffff163b119050919050565b600080600090507a184f03e93ff9f4daa797ed6e38ed64bf6a1f0100000000000000008310613b67577a184f03e93ff9f4daa797ed6e38ed64bf6a1f0100000000000000008381613b5d57613b5c615ca8565b5b0492506040810190505b6d04ee2d6d415b85acef81000000008310613ba4576d04ee2d6d415b85acef81000000008381613b9a57613b99615ca8565b5b0492506020810190505b662386f26fc100008310613bd357662386f26fc100008381613bc957613bc8615ca8565b5b0492506010810190505b6305f5e1008310613bfc576305f5e1008381613bf257613bf1615ca8565b5b0492506008810190505b6127108310613c21576127108381613c1757613c16615ca8565b5b0492506004810190505b60648310613c445760648381613c3a57613c39615ca8565b5b0492506002810190505b600a8310613c53576001810190505b80915050919050565b613c668383613cb7565b613c7360008484846137a2565b613cb2576040517f08c379a0000000000000000000000000000000000000000000000000000000008152600401613ca990615aa7565b60405180910390fd5b505050565b600073ffffffffffffffffffffffffffffffffffffffff168273ffffffffffffffffffffffffffffffffffffffff1603613d26576040517f08c379a0000000000000000000000000000000000000000000000000000000008152600401613d1d90615db5565b60405180910390fd5b613d2f81612cd6565b15613d6f576040517f08c379a0000000000000000000000000000000000000000000000000000000008152600401613d6690615e21565b60405180910390fd5b613d7d600083836001613796565b613d8681612cd6565b15613dc6576040517f08c379a0000000000000000000000000000000000000000000000000000000008152600401613dbd90615e21565b60405180910390fd5b6001600360008473ffffffffffffffffffffffffffffffffffffffff1673ffffffffffffffffffffffffffffffffffffffff16815260200190815260200160002060008282540192505081905550816002600083815260200190815260200160002060006101000a81548173ffffffffffffffffffffffffffffffffffffffff021916908373ffffffffffffffffffffffffffffffffffffffff160217905550808273ffffffffffffffffffffffffffffffffffffffff16600073ffffffffffffffffffffffffffffffffffffffff167fddf252ad1be2c89b69c2b068fc378daa952ba7f163c4a11628f55a4df523b3ef60405160405180910390a4613ed060008383600161379c565b5050565b6040518060c00160405280600081526020016000815260200160008152602001600073ffffffffffffffffffffffffffffffffffffffff168152602001600015158152602001606081525090565b6000604051905090565b600080fd5b600080fd5b60007fffffffff0000000000000000000000000000000000000000000000000000000082169050919050565b613f6b81613f36565b8114613f7657600080fd5b50565b600081359050613f8881613f62565b92915050565b600060208284031215613fa457613fa3613f2c565b5b6000613fb284828501613f79565b91505092915050565b60008115159050919050565b613fd081613fbb565b82525050565b6000602082019050613feb6000830184613fc7565b92915050565b600081519050919050565b600082825260208201905092915050565b60005b8381101561402b578082015181840152602081019050614010565b60008484015250505050565b6000601f19601f8301169050919050565b600061405382613ff1565b61405d8185613ffc565b935061406d81856020860161400d565b61407681614037565b840191505092915050565b6000602082019050818103600083015261409b8184614048565b905092915050565b6000819050919050565b6140b6816140a3565b81146140c157600080fd5b50565b6000813590506140d3816140ad565b92915050565b6000602082840312156140ef576140ee613f2c565b5b60006140fd848285016140c4565b91505092915050565b600073ffffffffffffffffffffffffffffffffffffffff82169050919050565b600061413182614106565b9050919050565b61414181614126565b82525050565b600060208201905061415c6000830184614138565b92915050565b61416b81614126565b811461417657600080fd5b50565b60008135905061418881614162565b92915050565b600080604083850312156141a5576141a4613f2c565b5b60006141b385828601614179565b92505060206141c4858286016140c4565b9150509250929050565b6000602082840312156141e4576141e3613f2c565b5b60006141f284828501614179565b91505092915050565b600081519050919050565b600082825260208201905092915050565b6000819050602082019050919050565b614230816140a3565b82525050565b61423f81614126565b82525050565b61424e81613fbb565b82525050565b600082825260208201905092915050565b600061427082613ff1565b61427a8185614254565b935061428a81856020860161400d565b61429381614037565b840191505092915050565b600060c0830160008301516142b66000860182614227565b5060208301516142c96020860182614227565b5060408301516142dc6040860182614227565b5060608301516142ef6060860182614236565b5060808301516143026080860182614245565b5060a083015184820360a086015261431a8282614265565b9150508091505092915050565b6000614333838361429e565b905092915050565b6000602082019050919050565b6000614353826141fb565b61435d8185614206565b93508360208202850161436f85614217565b8060005b858110156143ab578484038952815161438c8582614327565b94506143978361433b565b925060208a01995050600181019050614373565b50829750879550505050505092915050565b600060208201905081810360008301526143d78184614348565b905092915050565b6000806000606084860312156143f8576143f7613f2c565b5b600061440686828701614179565b935050602061441786828701614179565b9250506040614428868287016140c4565b9150509250925092565b6000806040838503121561444957614448613f2c565b5b6000614457858286016140c4565b9250506020614468858286016140c4565b9150509250929050565b61447b816140a3565b82525050565b60006020820190506144966000830184614472565b92915050565b6144a581613fbb565b81146144b057600080fd5b50565b6000813590506144c28161449c565b92915050565b600080604083850312156144df576144de613f2c565b5b60006144ed85828601614179565b92505060206144fe858286016144b3565b9150509250929050565b600080fd5b600080fd5b7f4e487b7100000000000000000000000000000000000000000000000000000000600052604160045260246000fd5b61454a82614037565b810181811067ffffffffffffffff8211171561456957614568614512565b5b80604052505050565b600061457c613f22565b90506145888282614541565b919050565b600067ffffffffffffffff8211156145a8576145a7614512565b5b6145b182614037565b9050602081019050919050565b82818337600083830152505050565b60006145e06145db8461458d565b614572565b9050828152602081018484840111156145fc576145fb61450d565b5b6146078482856145be565b509392505050565b600082601f83011261462457614623614508565b5b81356146348482602086016145cd565b91505092915050565b6000806000806080858703121561465757614656613f2c565b5b600061466587828801614179565b945050602061467687828801614179565b9350506040614687878288016140c4565b925050606085013567ffffffffffffffff8111156146a8576146a7613f31565b5b6146b48782880161460f565b91505092959194509250565b600060c0830160008301516146d86000860182614227565b5060208301516146eb6020860182614227565b5060408301516146fe6040860182614227565b5060608301516147116060860182614236565b5060808301516147246080860182614245565b5060a083015184820360a086015261473c8282614265565b9150508091505092915050565b6000602082019050818103600083015261476381846146c0565b905092915050565b600067ffffffffffffffff82111561478657614785614512565b5b61478f82614037565b9050602081019050919050565b60006147af6147aa8461476b565b614572565b9050828152602081018484840111156147cb576147ca61450d565b5b6147d68482856145be565b509392505050565b600082601f8301126147f3576147f2614508565b5b813561480384826020860161479c565b91505092915050565b600080600080600060a0868803121561482857614827613f2c565b5b600086013567ffffffffffffffff81111561484657614845613f31565b5b614852888289016147de565b9550506020614863888289016140c4565b9450506040614874888289016140c4565b9350506060614885888289016140c4565b9250506080614896888289016140c4565b9150509295509295909350565b600080604083850312156148ba576148b9613f2c565b5b60006148c885828601614179565b92505060206148d985828601614179565b9150509250929050565b600081519050919050565b600082825260208201905092915050565b6000819050602082019050919050565b600061012083016000830151848203600086015261492d8282614265565b91505060208301516149426020860182614236565b5060408301516149556040860182614227565b5060608301516149686060860182614227565b50608083015161497b6080860182614227565b5060a083015161498e60a0860182614227565b5060c08301516149a160c0860182614227565b5060e08301516149b460e0860182614245565b506101008301516149c9610100860182614227565b508091505092915050565b60006149e0838361490f565b905092915050565b6000602082019050919050565b6000614a00826148e3565b614a0a81856148ee565b935083602082028501614a1c856148ff565b8060005b85811015614a585784840389528151614a3985826149d4565b9450614a44836149e8565b925060208a01995050600181019050614a20565b50829750879550505050505092915050565b60006020820190508181036000830152614a8481846149f5565b905092915050565b6000610120820190508181036000830152614aa7818c614048565b9050614ab6602083018b614138565b614ac3604083018a614472565b614ad06060830189614472565b614add6080830188614472565b614aea60a0830187614472565b614af760c0830186614472565b614b0460e0830185613fc7565b614b12610100830184614472565b9a9950505050505050505050565b7f4e487b7100000000000000000000000000000000000000000000000000000000600052602260045260246000fd5b60006002820490506001821680614b6757607f821691505b602082108103614b7a57614b79614b20565b5b50919050565b7f4552433732313a20617070726f76616c20746f2063757272656e74206f776e6560008201527f7200000000000000000000000000000000000000000000000000000000000000602082015250565b6000614bdc602183613ffc565b9150614be782614b80565b604082019050919050565b60006020820190508181036000830152614c0b81614bcf565b9050919050565b7f4552433732313a20617070726f76652063616c6c6572206973206e6f7420746f60008201527f6b656e206f776e6572206f7220617070726f76656420666f7220616c6c000000602082015250565b6000614c6e603d83613ffc565b9150614c7982614c12565b604082019050919050565b60006020820190508181036000830152614c9d81614c61565b9050919050565b7f4e487b7100000000000000000000000000000000000000000000000000000000600052603260045260246000fd5b7f4e487b7100000000000000000000000000000000000000000000000000000000600052601160045260246000fd5b6000614d0d826140a3565b91507fffffffffffffffffffffffffffffffffffffffffffffffffffffffffffffffff8203614d3f57614d3e614cd3565b5b600182019050919050565b7f4552433732313a2063616c6c6572206973206e6f7420746f6b656e206f776e6560008201527f72206f7220617070726f76656400000000000000000000000000000000000000602082015250565b6000614da6602d83613ffc565b9150614db182614d4a565b604082019050919050565b60006020820190508181036000830152614dd581614d99565b9050919050565b7f4f6e6c7920746865207469636b6574206f776e65722063616e2065786563757460008201527f6520746869730000000000000000000000000000000000000000000000000000602082015250565b6000614e38602683613ffc565b9150614e4382614ddc565b604082019050919050565b60006020820190508181036000830152614e6781614e2b565b9050919050565b7f536f72727920627574206974207365656d73206c696b6520746869732074696360008201527f6b657420646f65736e2774206576656e2065786973742e20506c65617365204360208201527f6f6e7461637420557320736f2077652063616e20676574207468697320736f7260408201527f746564206f75742e000000000000000000000000000000000000000000000000606082015250565b6000614f16606883613ffc565b9150614f2182614e6e565b608082019050919050565b60006020820190508181036000830152614f4581614f09565b9050919050565b7f54686973207469636b657420697320616c726561647920757020666f7220736160008201527f6c652e0000000000000000000000000000000000000000000000000000000000602082015250565b6000614fa8602383613ffc565b9150614fb382614f4c565b604082019050919050565b60006020820190508181036000830152614fd781614f9b565b9050919050565b6000604082019050614ff36000830185614138565b6150006020830184614472565b9392505050565b7f4552433732313a20696e76616c696420746f6b656e2049440000000000000000600082015250565b600061503d601883613ffc565b915061504882615007565b602082019050919050565b6000602082019050818103600083015261506c81615030565b9050919050565b7f54686973207469636b6574206973206e6f7420666f722073616c650000000000600082015250565b60006150a9601b83613ffc565b91506150b482615073565b602082019050919050565b600060208201905081810360008301526150d88161509c565b9050919050565b7f596f75206d757374207061792074686520616d6f756e7420746861742074686560008201527f207469636b6574206f776e65722069732073656c6c696e67207468697320746960208201527f636b657420666f722e0000000000000000000000000000000000000000000000604082015250565b6000615161604983613ffc565b915061516c826150df565b606082019050919050565b6000602082019050818103600083015261519081615154565b9050919050565b60006151a2826140a3565b9150600082036151b5576151b4614cd3565b5b600182039050919050565b7f4552433732313a2061646472657373207a65726f206973206e6f74206120766160008201527f6c6964206f776e65720000000000000000000000000000000000000000000000602082015250565b600061521c602983613ffc565b9150615227826151c0565b604082019050919050565b6000602082019050818103600083015261524b8161520f565b9050919050565b7f54686973206576656e7420646f6573206e6f7420657869737400000000000000600082015250565b6000615288601983613ffc565b915061529382615252565b602082019050919050565b600060208201905081810360008301526152b78161527b565b9050919050565b600081905092915050565b60006152d482613ff1565b6152de81856152be565b93506152ee81856020860161400d565b80840191505092915050565b600061530682856152c9565b915061531282846152c9565b91508190509392505050565b60008190508160005260206000209050919050565b60006020601f8301049050919050565b600082821b905092915050565b6000600883026153807fffffffffffffffffffffffffffffffffffffffffffffffffffffffffffffffff82615343565b61538a8683615343565b95508019841693508086168417925050509392505050565b6000819050919050565b60006153c76153c26153bd846140a3565b6153a2565b6140a3565b9050919050565b6000819050919050565b6153e1836153ac565b6153f56153ed826153ce565b848454615350565b825550505050565b600090565b61540a6153fd565b6154158184846153d8565b505050565b5b818110156154395761542e600082615402565b60018101905061541b565b5050565b601f82111561547e5761544f8161531e565b61545884615333565b81016020851015615467578190505b61547b61547385615333565b83018261541a565b50505b505050565b600082821c905092915050565b60006154a160001984600802615483565b1980831691505092915050565b60006154ba8383615490565b9150826002028217905092915050565b6154d382613ff1565b67ffffffffffffffff8111156154ec576154eb614512565b5b6154f68254614b4f565b61550182828561543d565b600060209050601f8311600181146155345760008415615522578287015190505b61552c85826154ae565b865550615594565b601f1984166155428661531e565b60005b8281101561556a57848901518255600182019150602085019450602081019050615545565b868310156155875784890151615583601f891682615490565b8355505b6001600288020188555050505b505050505050565b600060408201905081810360008301526155b68185614048565b90506155c56020830184614138565b9392505050565b7f4f776e61626c653a206e6577206f776e657220697320746865207a65726f206160008201527f6464726573730000000000000000000000000000000000000000000000000000602082015250565b6000615628602683613ffc565b9150615633826155cc565b604082019050919050565b600060208201905081810360008301526156578161561b565b9050919050565b7f4552433732313a207472616e736665722066726f6d20696e636f72726563742060008201527f6f776e6572000000000000000000000000000000000000000000000000000000602082015250565b60006156ba602583613ffc565b91506156c58261565e565b604082019050919050565b600060208201905081810360008301526156e9816156ad565b9050919050565b7f4552433732313a207472616e7366657220746f20746865207a65726f2061646460008201527f7265737300000000000000000000000000000000000000000000000000000000602082015250565b600061574c602483613ffc565b9150615757826156f0565b604082019050919050565b6000602082019050818103600083015261577b8161573f565b9050919050565b7f546f6b656e206e6f74206f776e65642062792073656e64657200000000000000600082015250565b60006157b8601983613ffc565b91506157c382615782565b602082019050919050565b600060208201905081810360008301526157e7816157ab565b9050919050565b7f496e76616c696420726563697069656e74206164647265737300000000000000600082015250565b6000615824601983613ffc565b915061582f826157ee565b602082019050919050565b6000602082019050818103600083015261585381615817565b9050919050565b7f496e76616c69642073656e646572206164647265737300000000000000000000600082015250565b6000615890601683613ffc565b915061589b8261585a565b602082019050919050565b600060208201905081810360008301526158bf81615883565b9050919050565b60006158d1826140a3565b91506158dc836140a3565b92508282039050818111156158f4576158f3614cd3565b5b92915050565b6000615905826140a3565b9150615910836140a3565b925082820190508082111561592857615927614cd3565b5b92915050565b7f4e487b7100000000000000000000000000000000000000000000000000000000600052603160045260246000fd5b7f4f776e61626c653a2063616c6c6572206973206e6f7420746865206f776e6572600082015250565b6000615993602083613ffc565b915061599e8261595d565b602082019050919050565b600060208201905081810360008301526159c281615986565b9050919050565b7f4552433732313a20617070726f766520746f2063616c6c657200000000000000600082015250565b60006159ff601983613ffc565b9150615a0a826159c9565b602082019050919050565b60006020820190508181036000830152615a2e816159f2565b9050919050565b7f4552433732313a207472616e7366657220746f206e6f6e20455243373231526560008201527f63656976657220696d706c656d656e7465720000000000000000000000000000602082015250565b6000615a91603283613ffc565b9150615a9c82615a35565b604082019050919050565b60006020820190508181036000830152615ac081615a84565b9050919050565b7f4f6e6c79207468652063726561746f72206f662074686973206576656e74206360008201527f616e206578656375746520746869730000000000000000000000000000000000602082015250565b6000615b23602f83613ffc565b9150615b2e82615ac7565b604082019050919050565b60006020820190508181036000830152615b5281615b16565b9050919050565b7f546f6b656e2068617320616c7265616479206265656e206d696e746564210000600082015250565b6000615b8f601e83613ffc565b9150615b9a82615b59565b602082019050919050565b60006020820190508181036000830152615bbe81615b82565b9050919050565b600081519050919050565b600082825260208201905092915050565b6000615bec82615bc5565b615bf68185615bd0565b9350615c0681856020860161400d565b615c0f81614037565b840191505092915050565b6000608082019050615c2f6000830187614138565b615c3c6020830186614138565b615c496040830185614472565b8181036060830152615c5b8184615be1565b905095945050505050565b600081519050615c7581613f62565b92915050565b600060208284031215615c9157615c90613f2c565b5b6000615c9f84828501615c66565b91505092915050565b7f4e487b7100000000000000000000000000000000000000000000000000000000600052601260045260246000fd5b7f45524337323155524953746f726167653a2055524920736574206f66206e6f6e60008201527f6578697374656e7420746f6b656e000000000000000000000000000000000000602082015250565b6000615d33602e83613ffc565b9150615d3e82615cd7565b604082019050919050565b60006020820190508181036000830152615d6281615d26565b9050919050565b7f4552433732313a206d696e7420746f20746865207a65726f2061646472657373600082015250565b6000615d9f602083613ffc565b9150615daa82615d69565b602082019050919050565b60006020820190508181036000830152615dce81615d92565b9050919050565b7f4552433732313a20746f6b656e20616c7265616479206d696e74656400000000600082015250565b6000615e0b601c83613ffc565b9150615e1682615dd5565b602082019050919050565b60006020820190508181036000830152615e3a81615dfe565b905091905056fe697066733a2f2f516d57367a786a706a714d347431546947614573724e3338614e375575346f586f4e616251726f414e4551514a7968747470733a2f2f697066732e696f2f697066732f516d5773474e7066757647336768345462415734546f503952694d76774b66394e6d6269554b4c4856397a696b59a26469706673582212205b2558ad8136ba65682f0d0023ec13d34a2263eb36b347268b61ae84f36ac61864736f6c63430008120033",
  "immutableReferences": {},
  "source": "// SPDX-License-Identifier: UNLICENSED\npragma solidity >=0.6.0 <0.9.0;\npragma experimental ABIEncoderV2;\n/**\n * @title TicketSmartContract\n * @dev  Implements ticketing system along with its various functions\n */\nimport \"../node_modules/@openzeppelin/contracts/token/ERC721/ERC721.sol\";\nimport \"../node_modules/@openzeppelin/contracts/utils/math/SafeMath.sol\";\nimport \"../node_modules/@openzeppelin/contracts/utils/Counters.sol\";\nimport \"../node_modules/@openzeppelin/contracts/access/Ownable.sol\";\nimport \"../node_modules/@openzeppelin/contracts/token/ERC721/extensions/ERC721URIStorage.sol\";\n\ncontract TicketSmartContract is ERC721URIStorage, Ownable {\n    using Counters for Counters.Counter;\n    Counters.Counter private _lunarCoinIdCounter;\n    constructor() ERC721(\"LunarCoins\", \"LNC\") {}\n\n    // State variable to keep track of how many events were created\n    uint256 private eventsCreated = 0;\n    // This mapping will be (tokenID => TicketInfo) The TicketInfo is mapped to each tokenID. The token ID is the NFT\n    mapping(uint256 => TicketInfo) private ticketNFTS;\n    // Defining a map to hold all of the tickets mapped to a user (address => list of TICKET ID's that maps to the NFT)\n    mapping(address => uint256[]) private userTickets;\n    // Defining a map to hold all of the registered events and to who created them\n    mapping(address => EventInfo[]) private userEvents;\n    // Defining a map to hold all of the events that were registered on the smart contract (eventID => Event struct)\n    mapping(uint256 => EventInfo) private allEvents;\n    // Defining a map to hold all ticktes being sold for a specifc event (eventID => uint256[]))\n    mapping(uint256 => uint256[]) private eventTickets;\n    // Defining an array to hold all of the events\n    EventInfo[] allEventsArray;\n\n    // A structure that will contain all of the Ticket Information: The ticket IS the NFT\n    struct TicketInfo {\n        // Which event the Ticket belongs to\n        uint256 eventID;\n        // TOKEN ID\n        uint256 tokenID;\n        // The price of the ticket\n        uint256 ticketPrice;\n        // The owner of the ticket\n        address owner;\n        // Is the ticket for sale?\n        bool isForSale;\n        // Token URI\n        string tokenURI;\n    }\n\n    // A structure that will contain all of the Event/Organizers information:\n    struct EventInfo {\n        // Event name\n        string eventName;\n        // Event creator\n        address eventCreatorAddress;\n        // Event ID - This will be dependent on 'eventsCreated' state variable \n        uint256 eventID;\n        // Number of tickets that are set to be available to buy [IF the number is set to -1 then that mean \"UNLIMITED tickets]\n        uint256 availableTickets;\n        // Number of tickets sold already\n        uint256 soldTickets;\n        // Max ticket price\n        uint256 maxTicketPrice;\n        // Min ticket price\n        uint256 minTicketPrice;\n        // Is the event still available?\n        bool isEventActive;\n        // The price of the ticket\n        uint256 ticketPrice;\n    }\n\n    // Events\n    event ticketForSale(address seller, uint256 amount);\n    event ticketSold(address buyer, uint256 amountSold);\n    event eventCreated(string eventName, address eventOrganizer);\n\n    // This function will mint tickets based off of how many available tickets there are. It returns a list of tokenID's that will represent the NFTS being put up for 'sale'\n    function mintTicket(address to, string memory tokenURI, uint256 eventID, uint256 availableTickets, uint256 ticketPrice, address owner) private onlyEventOrganzier(eventID){\n        // All of this will be wrapped in a for loop\n        for (uint256 counter = 0; counter < availableTickets; counter++) {\n            _lunarCoinIdCounter.increment();\n            uint256 newlunarCoinId = _lunarCoinIdCounter.current();\n            require(!_exists(newlunarCoinId), \"Token has already been minted!\");\n            _safeMint(to, newlunarCoinId);\n            _setTokenURI(newlunarCoinId, tokenURI);\n            // Each ticketID will have the ticket information mapped to it (ticketID => TicketInfo)\n            TicketInfo memory newTicket = TicketInfo(eventID, newlunarCoinId, ticketPrice, owner, true, tokenURI);\n            ticketNFTS[newlunarCoinId] = newTicket;\n            // We push the tickets to 'eventTickets', (eventID => uint256[] List of tokenIDs for sale) \n            eventTickets[eventsCreated].push(newlunarCoinId);\n            userTickets[to].push(newlunarCoinId);\n        }\n    }\n\n    function _baseURI() internal pure override returns (string memory) {\n        return \"https://ipfs.io/ipfs/QmWsGNpfuvG3gh4TbAW4ToP9RiMvwKf9NmbiUKLHV9zikY\";\n    }\n\n    // Modifer to make sure ONLY the organizer can execute a specific function\n    modifier onlyEventOrganzier(uint256 eventID) {\n        address eventCreatorAddress = getEventCreatorAddress(eventID);\n        require(msg.sender == eventCreatorAddress, \"Only the creator of this event can execute this\");\n        _;\n    }\n    // Modifier to make sure that only the owner of the ticket can sell\n    modifier onlyTicketOwner(uint256 tokenID) {\n        address ticketOwner = ticketNFTS[tokenID].owner;\n        require(msg.sender == ticketOwner, \"Only the ticket owner can execute this\");\n        _;\n    }\n\n    /** @dev anyone can Create an Event */\n    function createEvent(string memory eventName, uint256 availableTickets, uint256 maxTicketPrice, uint256 minTicketPrice, uint256 ticketPrice) public payable {\n        // We increment the number of events that were created\n        eventsCreated++;\n        // Now we create the Event and add the appropriate info to all of the mappings/structs\n        EventInfo memory eventDetails = EventInfo(eventName, msg.sender, eventsCreated, availableTickets, 0, maxTicketPrice, minTicketPrice, true, ticketPrice);\n        allEvents[eventsCreated] = eventDetails;\n        allEventsArray.push(eventDetails);\n        userEvents[msg.sender].push(eventDetails);\n        // We create the tickets to be put up for sale, we mint each ticket\n        // address to, string memory tokenURI, uint256 eventID, uint256 availableTickets, uint256 ticketPrice, address payable owner\n        mintTicket(msg.sender, \n        \"ipfs://QmW6zxjpjqM4t1TiGaEsrN38aN7Uu4oXoNabQroANEQQJy\", \n        eventsCreated, availableTickets, ticketPrice, msg.sender);\n        // Emit event creation\n        emit eventCreated(eventName, msg.sender);\n\n    }\n\n    /** @dev when buying a ticket, you must provide the tokenID and the eventID */ \n    function buyTicket(uint256 tokenID) public payable {\n        // Get all ticket information from the one selling it\n        require(_exists(tokenID), \"Sorry but it seems like this ticket doesn't even exist. Please Contact Us so we can get this sorted out.\");\n        TicketInfo memory ticket = ticketNFTS[tokenID];\n        require(ticket.isForSale, \"This ticket is not for sale\");\n        require(msg.value == ticket.ticketPrice, \"You must pay the amount that the ticket owner is selling this ticket for.\");\n        require(msg.sender != ticket.owner);\n        address ticketOwner = ownerOf(tokenID);\n        address payable sellerToPay = payable(ticketOwner);\n        // Transfer the ticket from the previous owner to the new owner\n        ticketTransfer(ticketOwner, msg.sender, tokenID);\n        sellerToPay.transfer(msg.value);\n        // Modify 'ticketNFT' to set 'isForSale' to False and 'owner' to msg.sender\n        ticketNFTS[tokenID].isForSale = false;\n        ticketNFTS[tokenID].owner = msg.sender;\n        // Update 'userTickets' so that it gets added to the new owner and removed from old owner\n        // (address => list of TICKET ID's that maps to the NFT)\n        // Removing from old owner\n        for (uint256 index = 0; index < userTickets[ticketOwner].length; index++){\n            if (userTickets[ticketOwner][index] == tokenID){\n                removeTicketFromSellList(ticketOwner, index);\n                break;\n            }\n        }\n        // Adding to new owner\n        userTickets[msg.sender].push(tokenID);\n        // Remove the ticketID from 'eventTickets' (eventID => uint256[])\n        for (uint256 index = 0; index < eventTickets[ticket.eventID].length; index++){\n            if (eventTickets[ticket.eventID][index] == tokenID){\n                removeEventTicket(ticket.eventID, index);\n                break;\n            }\n        }\n        // Update EventInfo if we buy from organizer\n        if (ticketOwner == allEvents[ticket.eventID].eventCreatorAddress){\n            allEvents[ticket.eventID].availableTickets--;\n            allEvents[ticket.eventID].soldTickets++;\n        }\n        // Emit ticket being sold\n        emit ticketSold(msg.sender, ticket.ticketPrice);\n\n    }\n\n    function sellTicket(uint256 sellingAmount, uint256 tokenID) onlyTicketOwner(tokenID) public payable {\n        // Get all ticket information from the one selling it\n        require(_exists(tokenID), \"Sorry but it seems like this ticket doesn't even exist. Please Contact Us so we can get this sorted out.\");\n        TicketInfo memory ticket = ticketNFTS[tokenID];\n        address ticketOwner = ownerOf(tokenID);\n        require(ticket.isForSale == false, \"This ticket is already up for sale.\");\n        require(ticketOwner == msg.sender);\n        // We modify ticketsNFT to match new price and set 'isForSale' to True.\n        ticketNFTS[tokenID].isForSale = true;\n        ticketNFTS[tokenID].ticketPrice = sellingAmount;\n        // Add it to Event Tickets\n        eventTickets[ticket.eventID].push(tokenID);\n        // Emit event\n        emit ticketForSale(ticketOwner, sellingAmount);\n        \n\n    }\n\n    // This is the function to see all of the tickets being sold for a specific event\n    function viewAllEventTickets(uint256 eventID) public view returns(TicketInfo[] memory) {  \n        require(eventID <= eventsCreated, \"This event does not exist\");  \n        uint256[] memory retrievedTicketsForSale = eventTickets[eventID];\n        TicketInfo[] memory dataToReturn = new TicketInfo[](retrievedTicketsForSale.length);\n        for (uint256 counter = 0; counter < retrievedTicketsForSale.length; counter++){\n            uint256 currentTokenID = retrievedTicketsForSale[counter];\n            TicketInfo memory currTicketInfo = ticketNFTS[currentTokenID];\n            dataToReturn[counter] = currTicketInfo;\n        }\n        return(dataToReturn);\n    }\n\n    // This is the function that will be called when a user wants to view their ticket information\n    function viewTicketInfo(uint tokenID) public view returns(TicketInfo memory) {\n        require(_exists(tokenID), \"Sorry but it seems like this ticket doesn't even exist. Please Contact Us so we can get this sorted out.\");\n        // The returned value will be an instance of the TicketInfo, it has the following information:\n        //  - Which event the Ticket belongs to: uint256 eventID;\n        //  - The token ID: uint256 tokenID;\n        //  - The price of the ticket: uint256 ticketPrice;\n        //  - The owner of the ticket: address payable owner;\n        //  - Is the ticket for sale: bool isForSale;\n        return ticketNFTS[tokenID];\n    }\n\n    function getEventDetails(uint256 eventID) public view returns(string memory, address, uint256, uint256, uint256,\n                                                                    uint256, uint256, bool, uint256) {\n        require(eventID <= eventsCreated, \"This event does not exist\");                                                     \n        EventInfo memory eventInformation = allEvents[eventID];\n        return (eventInformation.eventName, eventInformation.eventCreatorAddress, eventInformation.eventID,\n                eventInformation.availableTickets, eventInformation.soldTickets,\n                eventInformation.maxTicketPrice, eventInformation.minTicketPrice, eventInformation.isEventActive, eventInformation.ticketPrice);\n    }\n    \n    // This function will return all of the tickets that belong to a user\n    function getAllUserTickets(address from) public view returns(TicketInfo[] memory) {\n        // 'userTickets' is a map to hold all of the tickets mapped to a user (address => list of TICKET ID's that maps to the NFT)\n        uint256[] memory userTokens = userTickets[from];\n        TicketInfo[] memory dataToReturn = new TicketInfo[](userTokens.length);\n        // We go through each ticketID that belongs to them\n        for (uint256 counter = 0; counter < userTokens.length; counter++) {\n            uint256 currTokenID = userTokens[counter];\n            // Then we get the sepcifc TicketInfo using currTokenID\n            dataToReturn[counter] = ticketNFTS[currTokenID];\n        }\n        return (dataToReturn);\n    }\n\n    /** @dev This function will return all of the events that were created */\n    function viewAllEvents() public view returns(EventInfo[] memory){\n        return(allEventsArray);\n    }\n\n    function viewMyEvents(address from) public view returns(EventInfo[] memory){\n        return(userEvents[from]);\n    }\n\n    function getEventCreatorAddress(uint256 eventID) private view returns(address){\n         return allEvents[eventID].eventCreatorAddress;\n    } \n\n    function removeTicketFromSellList(address ticketOwner, uint256 index) private {\n        for (uint256 newIndex = index; newIndex < userTickets[ticketOwner].length - 1; newIndex++) {\n            userTickets[ticketOwner][newIndex] = userTickets[ticketOwner][newIndex + 1];\n        }   \n        userTickets[ticketOwner].pop();\n    }\n\n    function removeEventTicket(uint256 eventID, uint256 index) private {\n        for (uint256 newIndex = index; newIndex < eventTickets[eventID].length - 1; newIndex++) {\n            eventTickets[eventID][newIndex] = eventTickets[eventID][newIndex + 1];\n        }   \n        eventTickets[eventID].pop();\n    }\n\n    /**\n     * @dev See {IERC721-transferFrom}.\n     * References: \n     *  - https://docs.openzeppelin.com/contracts/4.x/api/token/erc721#IERC721-setApprovalForAll-address-bool-\n     *  - https://github.com/OpenZeppelin/openzeppelin-contracts/blob/master/contracts/token/ERC721/ERC721.sol\n     */\n    function ticketTransfer(address from, address to, uint256 tokenId) private  {\n        //solhint-disable-next-line max-line-length\n        require(ownerOf(tokenId) == from, \"Token not owned by sender\");\n        require(to != address(0), \"Invalid recipient address\");\n        require(from != address(0), \"Invalid sender address\");\n        _transfer(from, to, tokenId);\n    }\n\n\n}",
  "sourcePath": "/Users/mahdyfer/Desktop/Decentralized-Ticket-System/ticket-contract/contracts/TicketSmartContract.sol",
  "compiler": {
    "name": "solc",
    "version": "0.8.18+commit.87f61d96.Emscripten.clang"
  },
  "schemaVersion": "3.4.13",
  "updatedAt": "2023-05-07T00:51:12.491Z",
  "networkType": "ethereum",
  "devdoc": {
    "events": {
      "Approval(address,address,uint256)": {
        "details": "Emitted when `owner` enables `approved` to manage the `tokenId` token."
      },
      "ApprovalForAll(address,address,bool)": {
        "details": "Emitted when `owner` enables or disables (`approved`) `operator` to manage all of its assets."
      },
      "Transfer(address,address,uint256)": {
        "details": "Emitted when `tokenId` token is transferred from `from` to `to`."
      }
    },
    "kind": "dev",
    "methods": {
      "approve(address,uint256)": {
        "details": "See {IERC721-approve}."
      },
      "balanceOf(address)": {
        "details": "See {IERC721-balanceOf}."
      },
      "buyTicket(uint256)": {
        "details": "when buying a ticket, you must provide the tokenID and the eventID "
      },
      "createEvent(string,uint256,uint256,uint256,uint256)": {
        "details": "anyone can Create an Event "
      },
      "getApproved(uint256)": {
        "details": "See {IERC721-getApproved}."
      },
      "isApprovedForAll(address,address)": {
        "details": "See {IERC721-isApprovedForAll}."
      },
      "name()": {
        "details": "See {IERC721Metadata-name}."
      },
      "owner()": {
        "details": "Returns the address of the current owner."
      },
      "ownerOf(uint256)": {
        "details": "See {IERC721-ownerOf}."
      },
      "renounceOwnership()": {
        "details": "Leaves the contract without owner. It will not be possible to call `onlyOwner` functions anymore. Can only be called by the current owner. NOTE: Renouncing ownership will leave the contract without an owner, thereby removing any functionality that is only available to the owner."
      },
      "safeTransferFrom(address,address,uint256)": {
        "details": "See {IERC721-safeTransferFrom}."
      },
      "safeTransferFrom(address,address,uint256,bytes)": {
        "details": "See {IERC721-safeTransferFrom}."
      },
      "setApprovalForAll(address,bool)": {
        "details": "See {IERC721-setApprovalForAll}."
      },
      "supportsInterface(bytes4)": {
        "details": "See {IERC165-supportsInterface}."
      },
      "symbol()": {
        "details": "See {IERC721Metadata-symbol}."
      },
      "tokenURI(uint256)": {
        "details": "See {IERC721Metadata-tokenURI}."
      },
      "transferFrom(address,address,uint256)": {
        "details": "See {IERC721-transferFrom}."
      },
      "transferOwnership(address)": {
        "details": "Transfers ownership of the contract to a new account (`newOwner`). Can only be called by the current owner."
      },
      "viewAllEvents()": {
        "details": "This function will return all of the events that were created "
      }
    },
    "version": 1
  },
  "userdoc": {
    "kind": "user",
    "methods": {},
    "version": 1
  }
}