{
  "contractName": "TicketSmartContract",
  "abi": [
    {
      "inputs": [],
      "stateMutability": "nonpayable",
      "type": "constructor"
    },
    {
      "anonymous": false,
      "inputs": [
        {
          "indexed": true,
          "internalType": "address",
          "name": "owner",
          "type": "address"
        },
        {
          "indexed": true,
          "internalType": "address",
          "name": "approved",
          "type": "address"
        },
        {
          "indexed": true,
          "internalType": "uint256",
          "name": "tokenId",
          "type": "uint256"
        }
      ],
      "name": "Approval",
      "type": "event"
    },
    {
      "anonymous": false,
      "inputs": [
        {
          "indexed": true,
          "internalType": "address",
          "name": "owner",
          "type": "address"
        },
        {
          "indexed": true,
          "internalType": "address",
          "name": "operator",
          "type": "address"
        },
        {
          "indexed": false,
          "internalType": "bool",
          "name": "approved",
          "type": "bool"
        }
      ],
      "name": "ApprovalForAll",
      "type": "event"
    },
    {
      "anonymous": false,
      "inputs": [
        {
          "indexed": true,
          "internalType": "address",
          "name": "previousOwner",
          "type": "address"
        },
        {
          "indexed": true,
          "internalType": "address",
          "name": "newOwner",
          "type": "address"
        }
      ],
      "name": "OwnershipTransferred",
      "type": "event"
    },
    {
      "anonymous": false,
      "inputs": [
        {
          "indexed": true,
          "internalType": "address",
          "name": "from",
          "type": "address"
        },
        {
          "indexed": true,
          "internalType": "address",
          "name": "to",
          "type": "address"
        },
        {
          "indexed": true,
          "internalType": "uint256",
          "name": "tokenId",
          "type": "uint256"
        }
      ],
      "name": "Transfer",
      "type": "event"
    },
    {
      "anonymous": false,
      "inputs": [
        {
          "indexed": false,
          "internalType": "string",
          "name": "eventName",
          "type": "string"
        },
        {
          "indexed": false,
          "internalType": "address",
          "name": "eventOrganizer",
          "type": "address"
        }
      ],
      "name": "eventCreated",
      "type": "event"
    },
    {
      "anonymous": false,
      "inputs": [
        {
          "indexed": false,
          "internalType": "address",
          "name": "seller",
          "type": "address"
        },
        {
          "indexed": false,
          "internalType": "uint256",
          "name": "amount",
          "type": "uint256"
        }
      ],
      "name": "ticketForSale",
      "type": "event"
    },
    {
      "anonymous": false,
      "inputs": [
        {
          "indexed": false,
          "internalType": "address",
          "name": "buyer",
          "type": "address"
        },
        {
          "indexed": false,
          "internalType": "uint256",
          "name": "amountSold",
          "type": "uint256"
        }
      ],
      "name": "ticketSold",
      "type": "event"
    },
    {
      "inputs": [
        {
          "internalType": "address",
          "name": "to",
          "type": "address"
        },
        {
          "internalType": "uint256",
          "name": "tokenId",
          "type": "uint256"
        }
      ],
      "name": "approve",
      "outputs": [],
      "stateMutability": "nonpayable",
      "type": "function"
    },
    {
      "inputs": [
        {
          "internalType": "address",
          "name": "owner",
          "type": "address"
        }
      ],
      "name": "balanceOf",
      "outputs": [
        {
          "internalType": "uint256",
          "name": "",
          "type": "uint256"
        }
      ],
      "stateMutability": "view",
      "type": "function",
      "constant": true
    },
    {
      "inputs": [
        {
          "internalType": "uint256",
          "name": "tokenId",
          "type": "uint256"
        }
      ],
      "name": "getApproved",
      "outputs": [
        {
          "internalType": "address",
          "name": "",
          "type": "address"
        }
      ],
      "stateMutability": "view",
      "type": "function",
      "constant": true
    },
    {
      "inputs": [
        {
          "internalType": "address",
          "name": "owner",
          "type": "address"
        },
        {
          "internalType": "address",
          "name": "operator",
          "type": "address"
        }
      ],
      "name": "isApprovedForAll",
      "outputs": [
        {
          "internalType": "bool",
          "name": "",
          "type": "bool"
        }
      ],
      "stateMutability": "view",
      "type": "function",
      "constant": true
    },
    {
      "inputs": [],
      "name": "name",
      "outputs": [
        {
          "internalType": "string",
          "name": "",
          "type": "string"
        }
      ],
      "stateMutability": "view",
      "type": "function",
      "constant": true
    },
    {
      "inputs": [],
      "name": "owner",
      "outputs": [
        {
          "internalType": "address",
          "name": "",
          "type": "address"
        }
      ],
      "stateMutability": "view",
      "type": "function",
      "constant": true
    },
    {
      "inputs": [
        {
          "internalType": "uint256",
          "name": "tokenId",
          "type": "uint256"
        }
      ],
      "name": "ownerOf",
      "outputs": [
        {
          "internalType": "address",
          "name": "",
          "type": "address"
        }
      ],
      "stateMutability": "view",
      "type": "function",
      "constant": true
    },
    {
      "inputs": [],
      "name": "renounceOwnership",
      "outputs": [],
      "stateMutability": "nonpayable",
      "type": "function"
    },
    {
      "inputs": [
        {
          "internalType": "address",
          "name": "from",
          "type": "address"
        },
        {
          "internalType": "address",
          "name": "to",
          "type": "address"
        },
        {
          "internalType": "uint256",
          "name": "tokenId",
          "type": "uint256"
        }
      ],
      "name": "safeTransferFrom",
      "outputs": [],
      "stateMutability": "nonpayable",
      "type": "function"
    },
    {
      "inputs": [
        {
          "internalType": "address",
          "name": "from",
          "type": "address"
        },
        {
          "internalType": "address",
          "name": "to",
          "type": "address"
        },
        {
          "internalType": "uint256",
          "name": "tokenId",
          "type": "uint256"
        },
        {
          "internalType": "bytes",
          "name": "data",
          "type": "bytes"
        }
      ],
      "name": "safeTransferFrom",
      "outputs": [],
      "stateMutability": "nonpayable",
      "type": "function"
    },
    {
      "inputs": [
        {
          "internalType": "address",
          "name": "operator",
          "type": "address"
        },
        {
          "internalType": "bool",
          "name": "approved",
          "type": "bool"
        }
      ],
      "name": "setApprovalForAll",
      "outputs": [],
      "stateMutability": "nonpayable",
      "type": "function"
    },
    {
      "inputs": [
        {
          "internalType": "bytes4",
          "name": "interfaceId",
          "type": "bytes4"
        }
      ],
      "name": "supportsInterface",
      "outputs": [
        {
          "internalType": "bool",
          "name": "",
          "type": "bool"
        }
      ],
      "stateMutability": "view",
      "type": "function",
      "constant": true
    },
    {
      "inputs": [],
      "name": "symbol",
      "outputs": [
        {
          "internalType": "string",
          "name": "",
          "type": "string"
        }
      ],
      "stateMutability": "view",
      "type": "function",
      "constant": true
    },
    {
      "inputs": [
        {
          "internalType": "uint256",
          "name": "tokenId",
          "type": "uint256"
        }
      ],
      "name": "tokenURI",
      "outputs": [
        {
          "internalType": "string",
          "name": "",
          "type": "string"
        }
      ],
      "stateMutability": "view",
      "type": "function",
      "constant": true
    },
    {
      "inputs": [
        {
          "internalType": "address",
          "name": "from",
          "type": "address"
        },
        {
          "internalType": "address",
          "name": "to",
          "type": "address"
        },
        {
          "internalType": "uint256",
          "name": "tokenId",
          "type": "uint256"
        }
      ],
      "name": "transferFrom",
      "outputs": [],
      "stateMutability": "nonpayable",
      "type": "function"
    },
    {
      "inputs": [
        {
          "internalType": "address",
          "name": "newOwner",
          "type": "address"
        }
      ],
      "name": "transferOwnership",
      "outputs": [],
      "stateMutability": "nonpayable",
      "type": "function"
    },
    {
      "inputs": [
        {
          "internalType": "string",
          "name": "eventName",
          "type": "string"
        },
        {
          "internalType": "uint256",
          "name": "availableTickets",
          "type": "uint256"
        },
        {
          "internalType": "uint256",
          "name": "maxTicketPrice",
          "type": "uint256"
        },
        {
          "internalType": "uint256",
          "name": "minTicketPrice",
          "type": "uint256"
        },
        {
          "internalType": "uint256",
          "name": "ticketPrice",
          "type": "uint256"
        }
      ],
      "name": "createEvent",
      "outputs": [],
      "stateMutability": "payable",
      "type": "function",
      "payable": true
    },
    {
      "inputs": [
        {
          "internalType": "uint256",
          "name": "tokenID",
          "type": "uint256"
        }
      ],
      "name": "buyTicket",
      "outputs": [],
      "stateMutability": "payable",
      "type": "function",
      "payable": true
    },
    {
      "inputs": [
        {
          "internalType": "uint256",
          "name": "sellingAmount",
          "type": "uint256"
        },
        {
          "internalType": "uint256",
          "name": "tokenID",
          "type": "uint256"
        }
      ],
      "name": "sellTicket",
      "outputs": [],
      "stateMutability": "payable",
      "type": "function",
      "payable": true
    },
    {
      "inputs": [
        {
          "internalType": "uint256",
          "name": "eventID",
          "type": "uint256"
        }
      ],
      "name": "viewAllEventTickets",
      "outputs": [
        {
          "components": [
            {
              "internalType": "uint256",
              "name": "eventID",
              "type": "uint256"
            },
            {
              "internalType": "uint256",
              "name": "tokenID",
              "type": "uint256"
            },
            {
              "internalType": "uint256",
              "name": "ticketPrice",
              "type": "uint256"
            },
            {
              "internalType": "address",
              "name": "owner",
              "type": "address"
            },
            {
              "internalType": "bool",
              "name": "isForSale",
              "type": "bool"
            },
            {
              "internalType": "string",
              "name": "tokenURI",
              "type": "string"
            }
          ],
          "internalType": "struct TicketSmartContract.TicketInfo[]",
          "name": "",
          "type": "tuple[]"
        }
      ],
      "stateMutability": "view",
      "type": "function",
      "constant": true
    },
    {
      "inputs": [
        {
          "internalType": "uint256",
          "name": "tokenID",
          "type": "uint256"
        }
      ],
      "name": "viewTicketInfo",
      "outputs": [
        {
          "components": [
            {
              "internalType": "uint256",
              "name": "eventID",
              "type": "uint256"
            },
            {
              "internalType": "uint256",
              "name": "tokenID",
              "type": "uint256"
            },
            {
              "internalType": "uint256",
              "name": "ticketPrice",
              "type": "uint256"
            },
            {
              "internalType": "address",
              "name": "owner",
              "type": "address"
            },
            {
              "internalType": "bool",
              "name": "isForSale",
              "type": "bool"
            },
            {
              "internalType": "string",
              "name": "tokenURI",
              "type": "string"
            }
          ],
          "internalType": "struct TicketSmartContract.TicketInfo",
          "name": "",
          "type": "tuple"
        }
      ],
      "stateMutability": "view",
      "type": "function",
      "constant": true
    },
    {
      "inputs": [
        {
          "internalType": "uint256",
          "name": "eventID",
          "type": "uint256"
        }
      ],
      "name": "getEventDetails",
      "outputs": [
        {
          "internalType": "string",
          "name": "",
          "type": "string"
        },
        {
          "internalType": "address",
          "name": "",
          "type": "address"
        },
        {
          "internalType": "uint256",
          "name": "",
          "type": "uint256"
        },
        {
          "internalType": "uint256",
          "name": "",
          "type": "uint256"
        },
        {
          "internalType": "uint256",
          "name": "",
          "type": "uint256"
        },
        {
          "internalType": "uint256",
          "name": "",
          "type": "uint256"
        },
        {
          "internalType": "uint256",
          "name": "",
          "type": "uint256"
        },
        {
          "internalType": "bool",
          "name": "",
          "type": "bool"
        },
        {
          "internalType": "uint256",
          "name": "",
          "type": "uint256"
        }
      ],
      "stateMutability": "view",
      "type": "function",
      "constant": true
    },
    {
      "inputs": [
        {
          "internalType": "address",
          "name": "from",
          "type": "address"
        }
      ],
      "name": "getAllUserTickets",
      "outputs": [
        {
          "components": [
            {
              "internalType": "uint256",
              "name": "eventID",
              "type": "uint256"
            },
            {
              "internalType": "uint256",
              "name": "tokenID",
              "type": "uint256"
            },
            {
              "internalType": "uint256",
              "name": "ticketPrice",
              "type": "uint256"
            },
            {
              "internalType": "address",
              "name": "owner",
              "type": "address"
            },
            {
              "internalType": "bool",
              "name": "isForSale",
              "type": "bool"
            },
            {
              "internalType": "string",
              "name": "tokenURI",
              "type": "string"
            }
          ],
          "internalType": "struct TicketSmartContract.TicketInfo[]",
          "name": "",
          "type": "tuple[]"
        }
      ],
      "stateMutability": "view",
      "type": "function",
      "constant": true
    },
    {
      "inputs": [],
      "name": "viewAllEvents",
      "outputs": [
        {
          "components": [
            {
              "internalType": "string",
              "name": "eventName",
              "type": "string"
            },
            {
              "internalType": "address",
              "name": "eventCreatorAddress",
              "type": "address"
            },
            {
              "internalType": "uint256",
              "name": "eventID",
              "type": "uint256"
            },
            {
              "internalType": "uint256",
              "name": "availableTickets",
              "type": "uint256"
            },
            {
              "internalType": "uint256",
              "name": "soldTickets",
              "type": "uint256"
            },
            {
              "internalType": "uint256",
              "name": "maxTicketPrice",
              "type": "uint256"
            },
            {
              "internalType": "uint256",
              "name": "minTicketPrice",
              "type": "uint256"
            },
            {
              "internalType": "bool",
              "name": "isEventActive",
              "type": "bool"
            },
            {
              "internalType": "uint256",
              "name": "ticketPrice",
              "type": "uint256"
            }
          ],
          "internalType": "struct TicketSmartContract.EventInfo[]",
          "name": "",
          "type": "tuple[]"
        }
      ],
      "stateMutability": "view",
      "type": "function",
      "constant": true
    },
    {
      "inputs": [
        {
          "internalType": "address",
          "name": "from",
          "type": "address"
        }
      ],
      "name": "viewMyEvents",
      "outputs": [
        {
          "components": [
            {
              "internalType": "string",
              "name": "eventName",
              "type": "string"
            },
            {
              "internalType": "address",
              "name": "eventCreatorAddress",
              "type": "address"
            },
            {
              "internalType": "uint256",
              "name": "eventID",
              "type": "uint256"
            },
            {
              "internalType": "uint256",
              "name": "availableTickets",
              "type": "uint256"
            },
            {
              "internalType": "uint256",
              "name": "soldTickets",
              "type": "uint256"
            },
            {
              "internalType": "uint256",
              "name": "maxTicketPrice",
              "type": "uint256"
            },
            {
              "internalType": "uint256",
              "name": "minTicketPrice",
              "type": "uint256"
            },
            {
              "internalType": "bool",
              "name": "isEventActive",
              "type": "bool"
            },
            {
              "internalType": "uint256",
              "name": "ticketPrice",
              "type": "uint256"
            }
          ],
          "internalType": "struct TicketSmartContract.EventInfo[]",
          "name": "",
          "type": "tuple[]"
        }
      ],
      "stateMutability": "view",
      "type": "function",
      "constant": true
    }
  ],
  "bytecode": "0x608060405260006009553480156200001657600080fd5b506040518060400160405280600a81526020017f4c756e6172436f696e73000000000000000000000000000000000000000000008152506040518060400160405280600381526020017f4c4e430000000000000000000000000000000000000000000000000000000000815250816000908162000094919062000417565b508060019081620000a6919062000417565b505050620000c9620000bd620000cf60201b60201c565b620000d760201b60201c565b620004fe565b600033905090565b6000600760009054906101000a900473ffffffffffffffffffffffffffffffffffffffff16905081600760006101000a81548173ffffffffffffffffffffffffffffffffffffffff021916908373ffffffffffffffffffffffffffffffffffffffff1602179055508173ffffffffffffffffffffffffffffffffffffffff168173ffffffffffffffffffffffffffffffffffffffff167f8be0079c531659141344cd1fd0a4f28419497f9722a3daafe3b4186f6b6457e060405160405180910390a35050565b600081519050919050565b7f4e487b7100000000000000000000000000000000000000000000000000000000600052604160045260246000fd5b7f4e487b7100000000000000000000000000000000000000000000000000000000600052602260045260246000fd5b600060028204905060018216806200021f57607f821691505b602082108103620002355762000234620001d7565b5b50919050565b60008190508160005260206000209050919050565b60006020601f8301049050919050565b600082821b905092915050565b6000600883026200029f7fffffffffffffffffffffffffffffffffffffffffffffffffffffffffffffffff8262000260565b620002ab868362000260565b95508019841693508086168417925050509392505050565b6000819050919050565b6000819050919050565b6000620002f8620002f2620002ec84620002c3565b620002cd565b620002c3565b9050919050565b6000819050919050565b6200031483620002d7565b6200032c6200032382620002ff565b8484546200026d565b825550505050565b600090565b6200034362000334565b6200035081848462000309565b505050565b5b8181101562000378576200036c60008262000339565b60018101905062000356565b5050565b601f821115620003c75762000391816200023b565b6200039c8462000250565b81016020851015620003ac578190505b620003c4620003bb8562000250565b83018262000355565b50505b505050565b600082821c905092915050565b6000620003ec60001984600802620003cc565b1980831691505092915050565b6000620004078383620003d9565b9150826002028217905092915050565b62000422826200019d565b67ffffffffffffffff8111156200043e576200043d620001a8565b5b6200044a825462000206565b620004578282856200037c565b600060209050601f8311600181146200048f57600084156200047a578287015190505b620004868582620003f9565b865550620004f6565b601f1984166200049f866200023b565b60005b82811015620004c957848901518255600182019150602085019450602081019050620004a2565b86831015620004e95784890151620004e5601f891682620003d9565b8355505b6001600288020188555050505b505050505050565b615f47806200050e6000396000f3fe6080604052600436106101665760003560e01c80638da5cb5b116100d1578063cb56a1e11161008a578063ea1f1fdd11610064578063ea1f1fdd14610549578063ec38d5a014610574578063f2fde38b146105b9578063fdfc75ff146105e257610166565b8063cb56a1e1146104b3578063dbf3f3c9146104f0578063e985e9c51461050c57610166565b80638da5cb5b1461039157806395d89b41146103bc578063a22cb465146103e7578063b5fefe0614610410578063b88d4fde1461044d578063c87b56dd1461047657610166565b80632a6c4c14116101235780632a6c4c141461029f57806342842e0e146102bb5780636352211e146102e457806367dd74ca1461032157806370a082311461033d578063715018a61461037a57610166565b806301ffc9a71461016b57806306fdde03146101a8578063081812fc146101d3578063095ea7b3146102105780630bb02e0b1461023957806323b872dd14610276575b600080fd5b34801561017757600080fd5b50610192600480360381019061018d9190613f90565b61061f565b60405161019f9190613fd8565b60405180910390f35b3480156101b457600080fd5b506101bd610701565b6040516101ca9190614083565b60405180910390f35b3480156101df57600080fd5b506101fa60048036038101906101f591906140db565b610793565b6040516102079190614149565b60405180910390f35b34801561021c57600080fd5b5061023760048036038101906102329190614190565b6107d9565b005b34801561024557600080fd5b50610260600480360381019061025b91906141d0565b6108f0565b60405161026d91906143bf565b60405180910390f35b34801561028257600080fd5b5061029d600480360381019061029891906143e1565b610b84565b005b6102b960048036038101906102b49190614434565b610be4565b005b3480156102c757600080fd5b506102e260048036038101906102dd91906143e1565b610f72565b005b3480156102f057600080fd5b5061030b600480360381019061030691906140db565b610f92565b6040516103189190614149565b60405180910390f35b61033b600480360381019061033691906140db565b611018565b005b34801561034957600080fd5b50610364600480360381019061035f91906141d0565b611620565b6040516103719190614483565b60405180910390f35b34801561038657600080fd5b5061038f6116d7565b005b34801561039d57600080fd5b506103a66116eb565b6040516103b39190614149565b60405180910390f35b3480156103c857600080fd5b506103d1611715565b6040516103de9190614083565b60405180910390f35b3480156103f357600080fd5b5061040e600480360381019061040991906144ca565b6117a7565b005b34801561041c57600080fd5b50610437600480360381019061043291906140db565b6117bd565b60405161044491906143bf565b60405180910390f35b34801561045957600080fd5b50610474600480360381019061046f919061463f565b611a70565b005b34801561048257600080fd5b5061049d600480360381019061049891906140db565b611ad2565b6040516104aa9190614083565b60405180910390f35b3480156104bf57600080fd5b506104da60048036038101906104d591906140db565b611be4565b6040516104e7919061474b565b60405180910390f35b61050a6004803603810190610505919061480e565b611d7a565b005b34801561051857600080fd5b50610533600480360381019061052e91906148a5565b61213c565b6040516105409190613fd8565b60405180910390f35b34801561055557600080fd5b5061055e6121d0565b60405161056b9190614a6c565b60405180910390f35b34801561058057600080fd5b5061059b600480360381019061059691906140db565b61236f565b6040516105b099989796959493929190614a8e565b60405180910390f35b3480156105c557600080fd5b506105e060048036038101906105db91906141d0565b612572565b005b3480156105ee57600080fd5b50610609600480360381019061060491906141d0565b6125f5565b6040516106169190614a6c565b60405180910390f35b60007f80ac58cd000000000000000000000000000000000000000000000000000000007bffffffffffffffffffffffffffffffffffffffffffffffffffffffff1916827bffffffffffffffffffffffffffffffffffffffffffffffffffffffff191614806106ea57507f5b5e139f000000000000000000000000000000000000000000000000000000007bffffffffffffffffffffffffffffffffffffffffffffffffffffffff1916827bffffffffffffffffffffffffffffffffffffffffffffffffffffffff1916145b806106fa57506106f9826127d3565b5b9050919050565b60606000805461071090614b51565b80601f016020809104026020016040519081016040528092919081815260200182805461073c90614b51565b80156107895780601f1061075e57610100808354040283529160200191610789565b820191906000526020600020905b81548152906001019060200180831161076c57829003601f168201915b5050505050905090565b600061079e8261283d565b6004600083815260200190815260200160002060009054906101000a900473ffffffffffffffffffffffffffffffffffffffff169050919050565b60006107e482610f92565b90508073ffffffffffffffffffffffffffffffffffffffff168373ffffffffffffffffffffffffffffffffffffffff1603610854576040517f08c379a000000000000000000000000000000000000000000000000000000000815260040161084b90614bf4565b60405180910390fd5b8073ffffffffffffffffffffffffffffffffffffffff16610873612888565b73ffffffffffffffffffffffffffffffffffffffff1614806108a257506108a18161089c612888565b61213c565b5b6108e1576040517f08c379a00000000000000000000000000000000000000000000000000000000081526004016108d890614c86565b60405180910390fd5b6108eb8383612890565b505050565b60606000600b60008473ffffffffffffffffffffffffffffffffffffffff1673ffffffffffffffffffffffffffffffffffffffff16815260200190815260200160002080548060200260200160405190810160405280929190818152602001828054801561097d57602002820191906000526020600020905b815481526020019060010190808311610969575b505050505090506000815167ffffffffffffffff8111156109a1576109a0614514565b5b6040519080825280602002602001820160405280156109da57816020015b6109c7613ed6565b8152602001906001900390816109bf5790505b50905060005b8251811015610b795760008382815181106109fe576109fd614ca6565b5b60200260200101519050600a60008281526020019081526020016000206040518060c00160405290816000820154815260200160018201548152602001600282015481526020016003820160009054906101000a900473ffffffffffffffffffffffffffffffffffffffff1673ffffffffffffffffffffffffffffffffffffffff1673ffffffffffffffffffffffffffffffffffffffff1681526020016003820160149054906101000a900460ff16151515158152602001600482018054610ac590614b51565b80601f0160208091040260200160405190810160405280929190818152602001828054610af190614b51565b8015610b3e5780601f10610b1357610100808354040283529160200191610b3e565b820191906000526020600020905b815481529060010190602001808311610b2157829003601f168201915b505050505081525050838381518110610b5a57610b59614ca6565b5b6020026020010181905250508080610b7190614d04565b9150506109e0565b508092505050919050565b610b95610b8f612888565b82612949565b610bd4576040517f08c379a0000000000000000000000000000000000000000000000000000000008152600401610bcb90614dbe565b60405180910390fd5b610bdf8383836129de565b505050565b806000600a600083815260200190815260200160002060030160009054906101000a900473ffffffffffffffffffffffffffffffffffffffff1690508073ffffffffffffffffffffffffffffffffffffffff163373ffffffffffffffffffffffffffffffffffffffff1614610c8e576040517f08c379a0000000000000000000000000000000000000000000000000000000008152600401610c8590614e50565b60405180910390fd5b610c9783612cd7565b610cd6576040517f08c379a0000000000000000000000000000000000000000000000000000000008152600401610ccd90614f2e565b60405180910390fd5b6000600a60008581526020019081526020016000206040518060c00160405290816000820154815260200160018201548152602001600282015481526020016003820160009054906101000a900473ffffffffffffffffffffffffffffffffffffffff1673ffffffffffffffffffffffffffffffffffffffff1673ffffffffffffffffffffffffffffffffffffffff1681526020016003820160149054906101000a900460ff16151515158152602001600482018054610d9590614b51565b80601f0160208091040260200160405190810160405280929190818152602001828054610dc190614b51565b8015610e0e5780601f10610de357610100808354040283529160200191610e0e565b820191906000526020600020905b815481529060010190602001808311610df157829003601f168201915b50505050508152505090506000610e2485610f92565b9050600015158260800151151514610e71576040517f08c379a0000000000000000000000000000000000000000000000000000000008152600401610e6890614fc0565b60405180910390fd5b3373ffffffffffffffffffffffffffffffffffffffff168173ffffffffffffffffffffffffffffffffffffffff1614610ea957600080fd5b6001600a600087815260200190815260200160002060030160146101000a81548160ff02191690831515021790555085600a600087815260200190815260200160002060020181905550600e6000836000015181526020019081526020016000208590806001815401808255809150506001900390600052602060002001600090919091909150557fe1100292b67437c5865b16805ce2b8c23fe614fab0127bc2226b55d90924f4a68187604051610f62929190614fe0565b60405180910390a1505050505050565b610f8d83838360405180602001604052806000815250611a70565b505050565b600080610f9e83612d18565b9050600073ffffffffffffffffffffffffffffffffffffffff168173ffffffffffffffffffffffffffffffffffffffff160361100f576040517f08c379a000000000000000000000000000000000000000000000000000000000815260040161100690615055565b60405180910390fd5b80915050919050565b61102181612cd7565b611060576040517f08c379a000000000000000000000000000000000000000000000000000000000815260040161105790614f2e565b60405180910390fd5b6000600a60008381526020019081526020016000206040518060c00160405290816000820154815260200160018201548152602001600282015481526020016003820160009054906101000a900473ffffffffffffffffffffffffffffffffffffffff1673ffffffffffffffffffffffffffffffffffffffff1673ffffffffffffffffffffffffffffffffffffffff1681526020016003820160149054906101000a900460ff1615151515815260200160048201805461111f90614b51565b80601f016020809104026020016040519081016040528092919081815260200182805461114b90614b51565b80156111985780601f1061116d57610100808354040283529160200191611198565b820191906000526020600020905b81548152906001019060200180831161117b57829003601f168201915b505050505081525050905080608001516111e7576040517f08c379a00000000000000000000000000000000000000000000000000000000081526004016111de906150c1565b60405180910390fd5b8060400151341461122d576040517f08c379a000000000000000000000000000000000000000000000000000000000815260040161122490615179565b60405180910390fd5b806060015173ffffffffffffffffffffffffffffffffffffffff163373ffffffffffffffffffffffffffffffffffffffff160361126957600080fd5b600061127483610f92565b90506000819050611286823386612d55565b8073ffffffffffffffffffffffffffffffffffffffff166108fc349081150290604051600060405180830381858888f193505050501580156112cc573d6000803e3d6000fd5b506000600a600086815260200190815260200160002060030160146101000a81548160ff02191690831515021790555033600a600086815260200190815260200160002060030160006101000a81548173ffffffffffffffffffffffffffffffffffffffff021916908373ffffffffffffffffffffffffffffffffffffffff16021790555060005b600b60008473ffffffffffffffffffffffffffffffffffffffff1673ffffffffffffffffffffffffffffffffffffffff168152602001908152602001600020805490508110156114225784600b60008573ffffffffffffffffffffffffffffffffffffffff1673ffffffffffffffffffffffffffffffffffffffff16815260200190815260200160002082815481106113f0576113ef614ca6565b5b90600052602060002001540361140f5761140a8382612eb9565b611422565b808061141a90614d04565b915050611354565b50600b60003373ffffffffffffffffffffffffffffffffffffffff1673ffffffffffffffffffffffffffffffffffffffff16815260200190815260200160002084908060018154018082558091505060019003906000526020600020016000909190919091505560005b600e6000856000015181526020019081526020016000208054905081101561150e5784600e60008660000151815260200190815260200160002082815481106114d8576114d7614ca6565b5b9060005260206000200154036114fb576114f6846000015182613059565b61150e565b808061150690614d04565b91505061148c565b50600d60008460000151815260200190815260200160002060010160009054906101000a900473ffffffffffffffffffffffffffffffffffffffff1673ffffffffffffffffffffffffffffffffffffffff168273ffffffffffffffffffffffffffffffffffffffff16036115dd57600d60008460000151815260200190815260200160002060030160008154809291906115a790615199565b9190505550600d60008460000151815260200190815260200160002060040160008154809291906115d790614d04565b91905055505b7ffb268800e5bd9b73e47d9f63967d745e732cff14cdb9b25d36cf98d0ba17f37a338460400151604051611612929190614fe0565b60405180910390a150505050565b60008073ffffffffffffffffffffffffffffffffffffffff168273ffffffffffffffffffffffffffffffffffffffff1603611690576040517f08c379a000000000000000000000000000000000000000000000000000000000815260040161168790615234565b60405180910390fd5b600360008373ffffffffffffffffffffffffffffffffffffffff1673ffffffffffffffffffffffffffffffffffffffff168152602001908152602001600020549050919050565b6116df613149565b6116e960006131c7565b565b6000600760009054906101000a900473ffffffffffffffffffffffffffffffffffffffff16905090565b60606001805461172490614b51565b80601f016020809104026020016040519081016040528092919081815260200182805461175090614b51565b801561179d5780601f106117725761010080835404028352916020019161179d565b820191906000526020600020905b81548152906001019060200180831161178057829003601f168201915b5050505050905090565b6117b96117b2612888565b838361328d565b5050565b6060600954821115611804576040517f08c379a00000000000000000000000000000000000000000000000000000000081526004016117fb906152a0565b60405180910390fd5b6000600e600084815260200190815260200160002080548060200260200160405190810160405280929190818152602001828054801561186357602002820191906000526020600020905b81548152602001906001019080831161184f575b505050505090506000815167ffffffffffffffff81111561188757611886614514565b5b6040519080825280602002602001820160405280156118c057816020015b6118ad613ed6565b8152602001906001900390816118a55790505b50905060005b8251811015611a655760008382815181106118e4576118e3614ca6565b5b602002602001015190506000600a60008381526020019081526020016000206040518060c00160405290816000820154815260200160018201548152602001600282015481526020016003820160009054906101000a900473ffffffffffffffffffffffffffffffffffffffff1673ffffffffffffffffffffffffffffffffffffffff1673ffffffffffffffffffffffffffffffffffffffff1681526020016003820160149054906101000a900460ff161515151581526020016004820180546119ad90614b51565b80601f01602080910402602001604051908101604052809291908181526020018280546119d990614b51565b8015611a265780601f106119fb57610100808354040283529160200191611a26565b820191906000526020600020905b815481529060010190602001808311611a0957829003601f168201915b505050505081525050905080848481518110611a4557611a44614ca6565b5b602002602001018190525050508080611a5d90614d04565b9150506118c6565b508092505050919050565b611a81611a7b612888565b83612949565b611ac0576040517f08c379a0000000000000000000000000000000000000000000000000000000008152600401611ab790614dbe565b60405180910390fd5b611acc848484846133f9565b50505050565b6060611add8261283d565b6000600660008481526020019081526020016000208054611afd90614b51565b80601f0160208091040260200160405190810160405280929190818152602001828054611b2990614b51565b8015611b765780601f10611b4b57610100808354040283529160200191611b76565b820191906000526020600020905b815481529060010190602001808311611b5957829003601f168201915b505050505090506000611b87613455565b90506000815103611b9c578192505050611bdf565b600082511115611bd1578082604051602001611bb99291906152fc565b60405160208183030381529060405292505050611bdf565b611bda84613476565b925050505b919050565b611bec613ed6565b611bf582612cd7565b611c34576040517f08c379a0000000000000000000000000000000000000000000000000000000008152600401611c2b90614f2e565b60405180910390fd5b600a60008381526020019081526020016000206040518060c00160405290816000820154815260200160018201548152602001600282015481526020016003820160009054906101000a900473ffffffffffffffffffffffffffffffffffffffff1673ffffffffffffffffffffffffffffffffffffffff1673ffffffffffffffffffffffffffffffffffffffff1681526020016003820160149054906101000a900460ff16151515158152602001600482018054611cf190614b51565b80601f0160208091040260200160405190810160405280929190818152602001828054611d1d90614b51565b8015611d6a5780601f10611d3f57610100808354040283529160200191611d6a565b820191906000526020600020905b815481529060010190602001808311611d4d57829003601f168201915b5050505050815250509050919050565b60096000815480929190611d8d90614d04565b919050555060006040518061012001604052808781526020013373ffffffffffffffffffffffffffffffffffffffff16815260200160095481526020018681526020016000815260200185815260200184815260200160011515815260200183815250905080600d600060095481526020019081526020016000206000820151816000019081611e1d91906154cc565b5060208201518160010160006101000a81548173ffffffffffffffffffffffffffffffffffffffff021916908373ffffffffffffffffffffffffffffffffffffffff16021790555060408201518160020155606082015181600301556080820151816004015560a0820151816005015560c0820151816006015560e08201518160070160006101000a81548160ff0219169083151502179055506101008201518160080155905050600f8190806001815401808255809150506001900390600052602060002090600902016000909190919091506000820151816000019081611f0691906154cc565b5060208201518160010160006101000a81548173ffffffffffffffffffffffffffffffffffffffff021916908373ffffffffffffffffffffffffffffffffffffffff16021790555060408201518160020155606082015181600301556080820151816004015560a0820151816005015560c0820151816006015560e08201518160070160006101000a81548160ff02191690831515021790555061010082015181600801555050600c60003373ffffffffffffffffffffffffffffffffffffffff1673ffffffffffffffffffffffffffffffffffffffff168152602001908152602001600020819080600181540180825580915050600190039060005260206000209060090201600090919091909150600082015181600001908161202b91906154cc565b5060208201518160010160006101000a81548173ffffffffffffffffffffffffffffffffffffffff021916908373ffffffffffffffffffffffffffffffffffffffff16021790555060408201518160020155606082015181600301556080820151816004015560a0820151816005015560c0820151816006015560e08201518160070160006101000a81548160ff021916908315150217905550610100820151816008015550506120fb3360405180610100016040528060ce8152602001615e4460ce91396009548886336134de565b7f9bb0a2294dc628efc66437ec95f6ebe401ae9bf01c2f7a8e6945eb6ac58cd56f863360405161212c92919061559e565b60405180910390a1505050505050565b6000600560008473ffffffffffffffffffffffffffffffffffffffff1673ffffffffffffffffffffffffffffffffffffffff16815260200190815260200160002060008373ffffffffffffffffffffffffffffffffffffffff1673ffffffffffffffffffffffffffffffffffffffff16815260200190815260200160002060009054906101000a900460ff16905092915050565b6060600f805480602002602001604051908101604052809291908181526020016000905b8282101561236657838290600052602060002090600902016040518061012001604052908160008201805461222890614b51565b80601f016020809104026020016040519081016040528092919081815260200182805461225490614b51565b80156122a15780601f10612276576101008083540402835291602001916122a1565b820191906000526020600020905b81548152906001019060200180831161228457829003601f168201915b505050505081526020016001820160009054906101000a900473ffffffffffffffffffffffffffffffffffffffff1673ffffffffffffffffffffffffffffffffffffffff1673ffffffffffffffffffffffffffffffffffffffff16815260200160028201548152602001600382015481526020016004820154815260200160058201548152602001600682015481526020016007820160009054906101000a900460ff16151515158152602001600882015481525050815260200190600101906121f4565b50505050905090565b60606000806000806000806000806009548a11156123c2576040517f08c379a00000000000000000000000000000000000000000000000000000000081526004016123b9906152a0565b60405180910390fd5b6000600d60008c8152602001908152602001600020604051806101200160405290816000820180546123f390614b51565b80601f016020809104026020016040519081016040528092919081815260200182805461241f90614b51565b801561246c5780601f106124415761010080835404028352916020019161246c565b820191906000526020600020905b81548152906001019060200180831161244f57829003601f168201915b505050505081526020016001820160009054906101000a900473ffffffffffffffffffffffffffffffffffffffff1673ffffffffffffffffffffffffffffffffffffffff1673ffffffffffffffffffffffffffffffffffffffff16815260200160028201548152602001600382015481526020016004820154815260200160058201548152602001600682015481526020016007820160009054906101000a900460ff161515151581526020016008820154815250509050806000015181602001518260400151836060015184608001518560a001518660c001518760e00151886101000151995099509950995099509950995099509950509193959799909294969850565b61257a613149565b600073ffffffffffffffffffffffffffffffffffffffff168173ffffffffffffffffffffffffffffffffffffffff16036125e9576040517f08c379a00000000000000000000000000000000000000000000000000000000081526004016125e090615640565b60405180910390fd5b6125f2816131c7565b50565b6060600c60008373ffffffffffffffffffffffffffffffffffffffff1673ffffffffffffffffffffffffffffffffffffffff168152602001908152602001600020805480602002602001604051908101604052809291908181526020016000905b828210156127c857838290600052602060002090600902016040518061012001604052908160008201805461268a90614b51565b80601f01602080910402602001604051908101604052809291908181526020018280546126b690614b51565b80156127035780601f106126d857610100808354040283529160200191612703565b820191906000526020600020905b8154815290600101906020018083116126e657829003601f168201915b505050505081526020016001820160009054906101000a900473ffffffffffffffffffffffffffffffffffffffff1673ffffffffffffffffffffffffffffffffffffffff1673ffffffffffffffffffffffffffffffffffffffff16815260200160028201548152602001600382015481526020016004820154815260200160058201548152602001600682015481526020016007820160009054906101000a900460ff1615151515815260200160088201548152505081526020019060010190612656565b505050509050919050565b60007f01ffc9a7000000000000000000000000000000000000000000000000000000007bffffffffffffffffffffffffffffffffffffffffffffffffffffffff1916827bffffffffffffffffffffffffffffffffffffffffffffffffffffffff1916149050919050565b61284681612cd7565b612885576040517f08c379a000000000000000000000000000000000000000000000000000000000815260040161287c90615055565b60405180910390fd5b50565b600033905090565b816004600083815260200190815260200160002060006101000a81548173ffffffffffffffffffffffffffffffffffffffff021916908373ffffffffffffffffffffffffffffffffffffffff160217905550808273ffffffffffffffffffffffffffffffffffffffff1661290383610f92565b73ffffffffffffffffffffffffffffffffffffffff167f8c5be1e5ebec7d5bd14f71427d1e84f3dd0314c0f7b2291e5b200ac8c7c3b92560405160405180910390a45050565b60008061295583610f92565b90508073ffffffffffffffffffffffffffffffffffffffff168473ffffffffffffffffffffffffffffffffffffffff1614806129975750612996818561213c565b5b806129d557508373ffffffffffffffffffffffffffffffffffffffff166129bd84610793565b73ffffffffffffffffffffffffffffffffffffffff16145b91505092915050565b8273ffffffffffffffffffffffffffffffffffffffff166129fe82610f92565b73ffffffffffffffffffffffffffffffffffffffff1614612a54576040517f08c379a0000000000000000000000000000000000000000000000000000000008152600401612a4b906156d2565b60405180910390fd5b600073ffffffffffffffffffffffffffffffffffffffff168273ffffffffffffffffffffffffffffffffffffffff1603612ac3576040517f08c379a0000000000000000000000000000000000000000000000000000000008152600401612aba90615764565b60405180910390fd5b612ad08383836001613798565b8273ffffffffffffffffffffffffffffffffffffffff16612af082610f92565b73ffffffffffffffffffffffffffffffffffffffff1614612b46576040517f08c379a0000000000000000000000000000000000000000000000000000000008152600401612b3d906156d2565b60405180910390fd5b6004600082815260200190815260200160002060006101000a81549073ffffffffffffffffffffffffffffffffffffffff02191690556001600360008573ffffffffffffffffffffffffffffffffffffffff1673ffffffffffffffffffffffffffffffffffffffff168152602001908152602001600020600082825403925050819055506001600360008473ffffffffffffffffffffffffffffffffffffffff1673ffffffffffffffffffffffffffffffffffffffff16815260200190815260200160002060008282540192505081905550816002600083815260200190815260200160002060006101000a81548173ffffffffffffffffffffffffffffffffffffffff021916908373ffffffffffffffffffffffffffffffffffffffff160217905550808273ffffffffffffffffffffffffffffffffffffffff168473ffffffffffffffffffffffffffffffffffffffff167fddf252ad1be2c89b69c2b068fc378daa952ba7f163c4a11628f55a4df523b3ef60405160405180910390a4612cd2838383600161379e565b505050565b60008073ffffffffffffffffffffffffffffffffffffffff16612cf983612d18565b73ffffffffffffffffffffffffffffffffffffffff1614159050919050565b60006002600083815260200190815260200160002060009054906101000a900473ffffffffffffffffffffffffffffffffffffffff169050919050565b8273ffffffffffffffffffffffffffffffffffffffff16612d7582610f92565b73ffffffffffffffffffffffffffffffffffffffff1614612dcb576040517f08c379a0000000000000000000000000000000000000000000000000000000008152600401612dc2906157d0565b60405180910390fd5b600073ffffffffffffffffffffffffffffffffffffffff168273ffffffffffffffffffffffffffffffffffffffff1603612e3a576040517f08c379a0000000000000000000000000000000000000000000000000000000008152600401612e319061583c565b60405180910390fd5b600073ffffffffffffffffffffffffffffffffffffffff168373ffffffffffffffffffffffffffffffffffffffff1603612ea9576040517f08c379a0000000000000000000000000000000000000000000000000000000008152600401612ea0906158a8565b60405180910390fd5b612eb48383836129de565b505050565b60008190505b6001600b60008573ffffffffffffffffffffffffffffffffffffffff1673ffffffffffffffffffffffffffffffffffffffff16815260200190815260200160002080549050612f0e91906158c8565b811015612fef57600b60008473ffffffffffffffffffffffffffffffffffffffff1673ffffffffffffffffffffffffffffffffffffffff168152602001908152602001600020600182612f6191906158fc565b81548110612f7257612f71614ca6565b5b9060005260206000200154600b60008573ffffffffffffffffffffffffffffffffffffffff1673ffffffffffffffffffffffffffffffffffffffff1681526020019081526020016000208281548110612fce57612fcd614ca6565b5b90600052602060002001819055508080612fe790614d04565b915050612ebf565b50600b60008373ffffffffffffffffffffffffffffffffffffffff1673ffffffffffffffffffffffffffffffffffffffff16815260200190815260200160002080548061303f5761303e615930565b5b600190038181906000526020600020016000905590555050565b60008190505b6001600e60008581526020019081526020016000208054905061308291906158c8565b81101561310b57600e60008481526020019081526020016000206001826130a991906158fc565b815481106130ba576130b9614ca6565b5b9060005260206000200154600e600085815260200190815260200160002082815481106130ea576130e9614ca6565b5b9060005260206000200181905550808061310390614d04565b91505061305f565b50600e600083815260200190815260200160002080548061312f5761312e615930565b5b600190038181906000526020600020016000905590555050565b613151612888565b73ffffffffffffffffffffffffffffffffffffffff1661316f6116eb565b73ffffffffffffffffffffffffffffffffffffffff16146131c5576040517f08c379a00000000000000000000000000000000000000000000000000000000081526004016131bc906159ab565b60405180910390fd5b565b6000600760009054906101000a900473ffffffffffffffffffffffffffffffffffffffff16905081600760006101000a81548173ffffffffffffffffffffffffffffffffffffffff021916908373ffffffffffffffffffffffffffffffffffffffff1602179055508173ffffffffffffffffffffffffffffffffffffffff168173ffffffffffffffffffffffffffffffffffffffff167f8be0079c531659141344cd1fd0a4f28419497f9722a3daafe3b4186f6b6457e060405160405180910390a35050565b8173ffffffffffffffffffffffffffffffffffffffff168373ffffffffffffffffffffffffffffffffffffffff16036132fb576040517f08c379a00000000000000000000000000000000000000000000000000000000081526004016132f290615a17565b60405180910390fd5b80600560008573ffffffffffffffffffffffffffffffffffffffff1673ffffffffffffffffffffffffffffffffffffffff16815260200190815260200160002060008473ffffffffffffffffffffffffffffffffffffffff1673ffffffffffffffffffffffffffffffffffffffff16815260200190815260200160002060006101000a81548160ff0219169083151502179055508173ffffffffffffffffffffffffffffffffffffffff168373ffffffffffffffffffffffffffffffffffffffff167f17307eab39ab6107e8899845ad3d59bd9653f200f220920489ca2b5937696c31836040516133ec9190613fd8565b60405180910390a3505050565b6134048484846129de565b613410848484846137a4565b61344f576040517f08c379a000000000000000000000000000000000000000000000000000000000815260040161344690615aa9565b60405180910390fd5b50505050565b606060405180610100016040528060ce8152602001615e4460ce9139905090565b60606134818261283d565b600061348b613455565b905060008151116134ab57604051806020016040528060008152506134d6565b806134b58461392b565b6040516020016134c69291906152fc565b6040516020818303038152906040525b915050919050565b8360006134ea826139f9565b90508073ffffffffffffffffffffffffffffffffffffffff163373ffffffffffffffffffffffffffffffffffffffff161461355a576040517f08c379a000000000000000000000000000000000000000000000000000000000815260040161355190615b3b565b60405180910390fd5b60005b8581101561378d5761356f6008613a39565b600061357b6008613a4f565b905061358681612cd7565b156135c6576040517f08c379a00000000000000000000000000000000000000000000000000000000081526004016135bd90615ba7565b60405180910390fd5b6135d08a82613a5d565b6135da818a613a7b565b60006040518060c001604052808a81526020018381526020018881526020018773ffffffffffffffffffffffffffffffffffffffff1681526020016001151581526020018b815250905080600a600084815260200190815260200160002060008201518160000155602082015181600101556040820151816002015560608201518160030160006101000a81548173ffffffffffffffffffffffffffffffffffffffff021916908373ffffffffffffffffffffffffffffffffffffffff16021790555060808201518160030160146101000a81548160ff02191690831515021790555060a08201518160040190816136d291906154cc565b50905050600e60006009548152602001908152602001600020829080600181540180825580915050600190039060005260206000200160009091909190915055600b60008c73ffffffffffffffffffffffffffffffffffffffff1673ffffffffffffffffffffffffffffffffffffffff1681526020019081526020016000208290806001815401808255809150506001900390600052602060002001600090919091909150555050808061378590614d04565b91505061355d565b505050505050505050565b50505050565b50505050565b60006137c58473ffffffffffffffffffffffffffffffffffffffff16613ae8565b1561391e578373ffffffffffffffffffffffffffffffffffffffff1663150b7a026137ee612888565b8786866040518563ffffffff1660e01b81526004016138109493929190615c1c565b6020604051808303816000875af192505050801561384c57506040513d601f19601f820116820180604052508101906138499190615c7d565b60015b6138ce573d806000811461387c576040519150601f19603f3d011682016040523d82523d6000602084013e613881565b606091505b5060008151036138c6576040517f08c379a00000000000000000000000000000000000000000000000000000000081526004016138bd90615aa9565b60405180910390fd5b805181602001fd5b63150b7a0260e01b7bffffffffffffffffffffffffffffffffffffffffffffffffffffffff1916817bffffffffffffffffffffffffffffffffffffffffffffffffffffffff191614915050613923565b600190505b949350505050565b60606000600161393a84613b0b565b01905060008167ffffffffffffffff81111561395957613958614514565b5b6040519080825280601f01601f19166020018201604052801561398b5781602001600182028036833780820191505090505b509050600082602001820190505b6001156139ee578080600190039150507f3031323334353637383961626364656600000000000000000000000000000000600a86061a8153600a85816139e2576139e1615caa565b5b04945060008503613999575b819350505050919050565b6000600d600083815260200190815260200160002060010160009054906101000a900473ffffffffffffffffffffffffffffffffffffffff169050919050565b6001816000016000828254019250508190555050565b600081600001549050919050565b613a77828260405180602001604052806000815250613c5e565b5050565b613a8482612cd7565b613ac3576040517f08c379a0000000000000000000000000000000000000000000000000000000008152600401613aba90615d4b565b60405180910390fd5b80600660008481526020019081526020016000209081613ae391906154cc565b505050565b6000808273ffffffffffffffffffffffffffffffffffffffff163b119050919050565b600080600090507a184f03e93ff9f4daa797ed6e38ed64bf6a1f0100000000000000008310613b69577a184f03e93ff9f4daa797ed6e38ed64bf6a1f0100000000000000008381613b5f57613b5e615caa565b5b0492506040810190505b6d04ee2d6d415b85acef81000000008310613ba6576d04ee2d6d415b85acef81000000008381613b9c57613b9b615caa565b5b0492506020810190505b662386f26fc100008310613bd557662386f26fc100008381613bcb57613bca615caa565b5b0492506010810190505b6305f5e1008310613bfe576305f5e1008381613bf457613bf3615caa565b5b0492506008810190505b6127108310613c23576127108381613c1957613c18615caa565b5b0492506004810190505b60648310613c465760648381613c3c57613c3b615caa565b5b0492506002810190505b600a8310613c55576001810190505b80915050919050565b613c688383613cb9565b613c7560008484846137a4565b613cb4576040517f08c379a0000000000000000000000000000000000000000000000000000000008152600401613cab90615aa9565b60405180910390fd5b505050565b600073ffffffffffffffffffffffffffffffffffffffff168273ffffffffffffffffffffffffffffffffffffffff1603613d28576040517f08c379a0000000000000000000000000000000000000000000000000000000008152600401613d1f90615db7565b60405180910390fd5b613d3181612cd7565b15613d71576040517f08c379a0000000000000000000000000000000000000000000000000000000008152600401613d6890615e23565b60405180910390fd5b613d7f600083836001613798565b613d8881612cd7565b15613dc8576040517f08c379a0000000000000000000000000000000000000000000000000000000008152600401613dbf90615e23565b60405180910390fd5b6001600360008473ffffffffffffffffffffffffffffffffffffffff1673ffffffffffffffffffffffffffffffffffffffff16815260200190815260200160002060008282540192505081905550816002600083815260200190815260200160002060006101000a81548173ffffffffffffffffffffffffffffffffffffffff021916908373ffffffffffffffffffffffffffffffffffffffff160217905550808273ffffffffffffffffffffffffffffffffffffffff16600073ffffffffffffffffffffffffffffffffffffffff167fddf252ad1be2c89b69c2b068fc378daa952ba7f163c4a11628f55a4df523b3ef60405160405180910390a4613ed260008383600161379e565b5050565b6040518060c00160405280600081526020016000815260200160008152602001600073ffffffffffffffffffffffffffffffffffffffff168152602001600015158152602001606081525090565b6000604051905090565b600080fd5b600080fd5b60007fffffffff0000000000000000000000000000000000000000000000000000000082169050919050565b613f6d81613f38565b8114613f7857600080fd5b50565b600081359050613f8a81613f64565b92915050565b600060208284031215613fa657613fa5613f2e565b5b6000613fb484828501613f7b565b91505092915050565b60008115159050919050565b613fd281613fbd565b82525050565b6000602082019050613fed6000830184613fc9565b92915050565b600081519050919050565b600082825260208201905092915050565b60005b8381101561402d578082015181840152602081019050614012565b60008484015250505050565b6000601f19601f8301169050919050565b600061405582613ff3565b61405f8185613ffe565b935061406f81856020860161400f565b61407881614039565b840191505092915050565b6000602082019050818103600083015261409d818461404a565b905092915050565b6000819050919050565b6140b8816140a5565b81146140c357600080fd5b50565b6000813590506140d5816140af565b92915050565b6000602082840312156140f1576140f0613f2e565b5b60006140ff848285016140c6565b91505092915050565b600073ffffffffffffffffffffffffffffffffffffffff82169050919050565b600061413382614108565b9050919050565b61414381614128565b82525050565b600060208201905061415e600083018461413a565b92915050565b61416d81614128565b811461417857600080fd5b50565b60008135905061418a81614164565b92915050565b600080604083850312156141a7576141a6613f2e565b5b60006141b58582860161417b565b92505060206141c6858286016140c6565b9150509250929050565b6000602082840312156141e6576141e5613f2e565b5b60006141f48482850161417b565b91505092915050565b600081519050919050565b600082825260208201905092915050565b6000819050602082019050919050565b614232816140a5565b82525050565b61424181614128565b82525050565b61425081613fbd565b82525050565b600082825260208201905092915050565b600061427282613ff3565b61427c8185614256565b935061428c81856020860161400f565b61429581614039565b840191505092915050565b600060c0830160008301516142b86000860182614229565b5060208301516142cb6020860182614229565b5060408301516142de6040860182614229565b5060608301516142f16060860182614238565b5060808301516143046080860182614247565b5060a083015184820360a086015261431c8282614267565b9150508091505092915050565b600061433583836142a0565b905092915050565b6000602082019050919050565b6000614355826141fd565b61435f8185614208565b93508360208202850161437185614219565b8060005b858110156143ad578484038952815161438e8582614329565b94506143998361433d565b925060208a01995050600181019050614375565b50829750879550505050505092915050565b600060208201905081810360008301526143d9818461434a565b905092915050565b6000806000606084860312156143fa576143f9613f2e565b5b60006144088682870161417b565b93505060206144198682870161417b565b925050604061442a868287016140c6565b9150509250925092565b6000806040838503121561444b5761444a613f2e565b5b6000614459858286016140c6565b925050602061446a858286016140c6565b9150509250929050565b61447d816140a5565b82525050565b60006020820190506144986000830184614474565b92915050565b6144a781613fbd565b81146144b257600080fd5b50565b6000813590506144c48161449e565b92915050565b600080604083850312156144e1576144e0613f2e565b5b60006144ef8582860161417b565b9250506020614500858286016144b5565b9150509250929050565b600080fd5b600080fd5b7f4e487b7100000000000000000000000000000000000000000000000000000000600052604160045260246000fd5b61454c82614039565b810181811067ffffffffffffffff8211171561456b5761456a614514565b5b80604052505050565b600061457e613f24565b905061458a8282614543565b919050565b600067ffffffffffffffff8211156145aa576145a9614514565b5b6145b382614039565b9050602081019050919050565b82818337600083830152505050565b60006145e26145dd8461458f565b614574565b9050828152602081018484840111156145fe576145fd61450f565b5b6146098482856145c0565b509392505050565b600082601f8301126146265761462561450a565b5b81356146368482602086016145cf565b91505092915050565b6000806000806080858703121561465957614658613f2e565b5b60006146678782880161417b565b94505060206146788782880161417b565b9350506040614689878288016140c6565b925050606085013567ffffffffffffffff8111156146aa576146a9613f33565b5b6146b687828801614611565b91505092959194509250565b600060c0830160008301516146da6000860182614229565b5060208301516146ed6020860182614229565b5060408301516147006040860182614229565b5060608301516147136060860182614238565b5060808301516147266080860182614247565b5060a083015184820360a086015261473e8282614267565b9150508091505092915050565b6000602082019050818103600083015261476581846146c2565b905092915050565b600067ffffffffffffffff82111561478857614787614514565b5b61479182614039565b9050602081019050919050565b60006147b16147ac8461476d565b614574565b9050828152602081018484840111156147cd576147cc61450f565b5b6147d88482856145c0565b509392505050565b600082601f8301126147f5576147f461450a565b5b813561480584826020860161479e565b91505092915050565b600080600080600060a0868803121561482a57614829613f2e565b5b600086013567ffffffffffffffff81111561484857614847613f33565b5b614854888289016147e0565b9550506020614865888289016140c6565b9450506040614876888289016140c6565b9350506060614887888289016140c6565b9250506080614898888289016140c6565b9150509295509295909350565b600080604083850312156148bc576148bb613f2e565b5b60006148ca8582860161417b565b92505060206148db8582860161417b565b9150509250929050565b600081519050919050565b600082825260208201905092915050565b6000819050602082019050919050565b600061012083016000830151848203600086015261492f8282614267565b91505060208301516149446020860182614238565b5060408301516149576040860182614229565b50606083015161496a6060860182614229565b50608083015161497d6080860182614229565b5060a083015161499060a0860182614229565b5060c08301516149a360c0860182614229565b5060e08301516149b660e0860182614247565b506101008301516149cb610100860182614229565b508091505092915050565b60006149e28383614911565b905092915050565b6000602082019050919050565b6000614a02826148e5565b614a0c81856148f0565b935083602082028501614a1e85614901565b8060005b85811015614a5a5784840389528151614a3b85826149d6565b9450614a46836149ea565b925060208a01995050600181019050614a22565b50829750879550505050505092915050565b60006020820190508181036000830152614a8681846149f7565b905092915050565b6000610120820190508181036000830152614aa9818c61404a565b9050614ab8602083018b61413a565b614ac5604083018a614474565b614ad26060830189614474565b614adf6080830188614474565b614aec60a0830187614474565b614af960c0830186614474565b614b0660e0830185613fc9565b614b14610100830184614474565b9a9950505050505050505050565b7f4e487b7100000000000000000000000000000000000000000000000000000000600052602260045260246000fd5b60006002820490506001821680614b6957607f821691505b602082108103614b7c57614b7b614b22565b5b50919050565b7f4552433732313a20617070726f76616c20746f2063757272656e74206f776e6560008201527f7200000000000000000000000000000000000000000000000000000000000000602082015250565b6000614bde602183613ffe565b9150614be982614b82565b604082019050919050565b60006020820190508181036000830152614c0d81614bd1565b9050919050565b7f4552433732313a20617070726f76652063616c6c6572206973206e6f7420746f60008201527f6b656e206f776e6572206f7220617070726f76656420666f7220616c6c000000602082015250565b6000614c70603d83613ffe565b9150614c7b82614c14565b604082019050919050565b60006020820190508181036000830152614c9f81614c63565b9050919050565b7f4e487b7100000000000000000000000000000000000000000000000000000000600052603260045260246000fd5b7f4e487b7100000000000000000000000000000000000000000000000000000000600052601160045260246000fd5b6000614d0f826140a5565b91507fffffffffffffffffffffffffffffffffffffffffffffffffffffffffffffffff8203614d4157614d40614cd5565b5b600182019050919050565b7f4552433732313a2063616c6c6572206973206e6f7420746f6b656e206f776e6560008201527f72206f7220617070726f76656400000000000000000000000000000000000000602082015250565b6000614da8602d83613ffe565b9150614db382614d4c565b604082019050919050565b60006020820190508181036000830152614dd781614d9b565b9050919050565b7f4f6e6c7920746865207469636b6574206f776e65722063616e2065786563757460008201527f6520746869730000000000000000000000000000000000000000000000000000602082015250565b6000614e3a602683613ffe565b9150614e4582614dde565b604082019050919050565b60006020820190508181036000830152614e6981614e2d565b9050919050565b7f536f72727920627574206974207365656d73206c696b6520746869732074696360008201527f6b657420646f65736e2774206576656e2065786973742e20506c65617365204360208201527f6f6e7461637420557320736f2077652063616e20676574207468697320736f7260408201527f746564206f75742e000000000000000000000000000000000000000000000000606082015250565b6000614f18606883613ffe565b9150614f2382614e70565b608082019050919050565b60006020820190508181036000830152614f4781614f0b565b9050919050565b7f54686973207469636b657420697320616c726561647920757020666f7220736160008201527f6c652e0000000000000000000000000000000000000000000000000000000000602082015250565b6000614faa602383613ffe565b9150614fb582614f4e565b604082019050919050565b60006020820190508181036000830152614fd981614f9d565b9050919050565b6000604082019050614ff5600083018561413a565b6150026020830184614474565b9392505050565b7f4552433732313a20696e76616c696420746f6b656e2049440000000000000000600082015250565b600061503f601883613ffe565b915061504a82615009565b602082019050919050565b6000602082019050818103600083015261506e81615032565b9050919050565b7f54686973207469636b6574206973206e6f7420666f722073616c650000000000600082015250565b60006150ab601b83613ffe565b91506150b682615075565b602082019050919050565b600060208201905081810360008301526150da8161509e565b9050919050565b7f596f75206d757374207061792074686520616d6f756e7420746861742074686560008201527f207469636b6574206f776e65722069732073656c6c696e67207468697320746960208201527f636b657420666f722e0000000000000000000000000000000000000000000000604082015250565b6000615163604983613ffe565b915061516e826150e1565b606082019050919050565b6000602082019050818103600083015261519281615156565b9050919050565b60006151a4826140a5565b9150600082036151b7576151b6614cd5565b5b600182039050919050565b7f4552433732313a2061646472657373207a65726f206973206e6f74206120766160008201527f6c6964206f776e65720000000000000000000000000000000000000000000000602082015250565b600061521e602983613ffe565b9150615229826151c2565b604082019050919050565b6000602082019050818103600083015261524d81615211565b9050919050565b7f54686973206576656e7420646f6573206e6f7420657869737400000000000000600082015250565b600061528a601983613ffe565b915061529582615254565b602082019050919050565b600060208201905081810360008301526152b98161527d565b9050919050565b600081905092915050565b60006152d682613ff3565b6152e081856152c0565b93506152f081856020860161400f565b80840191505092915050565b600061530882856152cb565b915061531482846152cb565b91508190509392505050565b60008190508160005260206000209050919050565b60006020601f8301049050919050565b600082821b905092915050565b6000600883026153827fffffffffffffffffffffffffffffffffffffffffffffffffffffffffffffffff82615345565b61538c8683615345565b95508019841693508086168417925050509392505050565b6000819050919050565b60006153c96153c46153bf846140a5565b6153a4565b6140a5565b9050919050565b6000819050919050565b6153e3836153ae565b6153f76153ef826153d0565b848454615352565b825550505050565b600090565b61540c6153ff565b6154178184846153da565b505050565b5b8181101561543b57615430600082615404565b60018101905061541d565b5050565b601f8211156154805761545181615320565b61545a84615335565b81016020851015615469578190505b61547d61547585615335565b83018261541c565b50505b505050565b600082821c905092915050565b60006154a360001984600802615485565b1980831691505092915050565b60006154bc8383615492565b9150826002028217905092915050565b6154d582613ff3565b67ffffffffffffffff8111156154ee576154ed614514565b5b6154f88254614b51565b61550382828561543f565b600060209050601f8311600181146155365760008415615524578287015190505b61552e85826154b0565b865550615596565b601f19841661554486615320565b60005b8281101561556c57848901518255600182019150602085019450602081019050615547565b868310156155895784890151615585601f891682615492565b8355505b6001600288020188555050505b505050505050565b600060408201905081810360008301526155b8818561404a565b90506155c7602083018461413a565b9392505050565b7f4f776e61626c653a206e6577206f776e657220697320746865207a65726f206160008201527f6464726573730000000000000000000000000000000000000000000000000000602082015250565b600061562a602683613ffe565b9150615635826155ce565b604082019050919050565b600060208201905081810360008301526156598161561d565b9050919050565b7f4552433732313a207472616e736665722066726f6d20696e636f72726563742060008201527f6f776e6572000000000000000000000000000000000000000000000000000000602082015250565b60006156bc602583613ffe565b91506156c782615660565b604082019050919050565b600060208201905081810360008301526156eb816156af565b9050919050565b7f4552433732313a207472616e7366657220746f20746865207a65726f2061646460008201527f7265737300000000000000000000000000000000000000000000000000000000602082015250565b600061574e602483613ffe565b9150615759826156f2565b604082019050919050565b6000602082019050818103600083015261577d81615741565b9050919050565b7f546f6b656e206e6f74206f776e65642062792073656e64657200000000000000600082015250565b60006157ba601983613ffe565b91506157c582615784565b602082019050919050565b600060208201905081810360008301526157e9816157ad565b9050919050565b7f496e76616c696420726563697069656e74206164647265737300000000000000600082015250565b6000615826601983613ffe565b9150615831826157f0565b602082019050919050565b6000602082019050818103600083015261585581615819565b9050919050565b7f496e76616c69642073656e646572206164647265737300000000000000000000600082015250565b6000615892601683613ffe565b915061589d8261585c565b602082019050919050565b600060208201905081810360008301526158c181615885565b9050919050565b60006158d3826140a5565b91506158de836140a5565b92508282039050818111156158f6576158f5614cd5565b5b92915050565b6000615907826140a5565b9150615912836140a5565b925082820190508082111561592a57615929614cd5565b5b92915050565b7f4e487b7100000000000000000000000000000000000000000000000000000000600052603160045260246000fd5b7f4f776e61626c653a2063616c6c6572206973206e6f7420746865206f776e6572600082015250565b6000615995602083613ffe565b91506159a08261595f565b602082019050919050565b600060208201905081810360008301526159c481615988565b9050919050565b7f4552433732313a20617070726f766520746f2063616c6c657200000000000000600082015250565b6000615a01601983613ffe565b9150615a0c826159cb565b602082019050919050565b60006020820190508181036000830152615a30816159f4565b9050919050565b7f4552433732313a207472616e7366657220746f206e6f6e20455243373231526560008201527f63656976657220696d706c656d656e7465720000000000000000000000000000602082015250565b6000615a93603283613ffe565b9150615a9e82615a37565b604082019050919050565b60006020820190508181036000830152615ac281615a86565b9050919050565b7f4f6e6c79207468652063726561746f72206f662074686973206576656e74206360008201527f616e206578656375746520746869730000000000000000000000000000000000602082015250565b6000615b25602f83613ffe565b9150615b3082615ac9565b604082019050919050565b60006020820190508181036000830152615b5481615b18565b9050919050565b7f546f6b656e2068617320616c7265616479206265656e206d696e746564210000600082015250565b6000615b91601e83613ffe565b9150615b9c82615b5b565b602082019050919050565b60006020820190508181036000830152615bc081615b84565b9050919050565b600081519050919050565b600082825260208201905092915050565b6000615bee82615bc7565b615bf88185615bd2565b9350615c0881856020860161400f565b615c1181614039565b840191505092915050565b6000608082019050615c31600083018761413a565b615c3e602083018661413a565b615c4b6040830185614474565b8181036060830152615c5d8184615be3565b905095945050505050565b600081519050615c7781613f64565b92915050565b600060208284031215615c9357615c92613f2e565b5b6000615ca184828501615c68565b91505092915050565b7f4e487b7100000000000000000000000000000000000000000000000000000000600052601260045260246000fd5b7f45524337323155524953746f726167653a2055524920736574206f66206e6f6e60008201527f6578697374656e7420746f6b656e000000000000000000000000000000000000602082015250565b6000615d35602e83613ffe565b9150615d4082615cd9565b604082019050919050565b60006020820190508181036000830152615d6481615d28565b9050919050565b7f4552433732313a206d696e7420746f20746865207a65726f2061646472657373600082015250565b6000615da1602083613ffe565b9150615dac82615d6b565b602082019050919050565b60006020820190508181036000830152615dd081615d94565b9050919050565b7f4552433732313a20746f6b656e20616c7265616479206d696e74656400000000600082015250565b6000615e0d601c83613ffe565b9150615e1882615dd7565b602082019050919050565b60006020820190508181036000830152615e3c81615e00565b905091905056fe68747470733a2f2f676174657761792e70696e6174612e636c6f75642f697066732f516d627754344b624b56786d75336a386f79433666426f675579726d356b6f6d6858346f4d3979434566357076473f5f676c3d312a316e746f686f6e2a5f67612a4d6d5131596a41344d545574596d4d774e7930305954466b4c546c685a4745744d4759794d7a466d4d324a6c5a446c682a5f67615f35524d505847313454452a4d5459344d4451314e4459354e5334784c6a45754d5459344d4451314e4467784d4334324c6a41754d412fa26469706673582212209ab0512a9f55c8c2a2a80f44b8467a80945f6bdd0a8fada72749de4f7c8957f464736f6c63430008120033",
  "immutableReferences": {},
  "source": "// SPDX-License-Identifier: UNLICENSED\npragma solidity >=0.6.0 <0.9.0;\npragma experimental ABIEncoderV2;\n/**\n * @title TicketSmartContract\n * @dev  Implements ticketing system along with its various functions\n */\nimport \"../node_modules/@openzeppelin/contracts/token/ERC721/ERC721.sol\";\nimport \"../node_modules/@openzeppelin/contracts/utils/math/SafeMath.sol\";\nimport \"../node_modules/@openzeppelin/contracts/utils/Counters.sol\";\nimport \"../node_modules/@openzeppelin/contracts/access/Ownable.sol\";\nimport \"../node_modules/@openzeppelin/contracts/token/ERC721/extensions/ERC721URIStorage.sol\";\n\ncontract TicketSmartContract is ERC721URIStorage, Ownable {\n    using Counters for Counters.Counter;\n    Counters.Counter private _lunarCoinIdCounter;\n    constructor() ERC721(\"LunarCoins\", \"LNC\") {}\n\n    // State variable to keep track of how many events were created\n    uint256 private eventsCreated = 0;\n    // This mapping will be (tokenID => TicketInfo) The TicketInfo is mapped to each tokenID. The token ID is the NFT\n    mapping(uint256 => TicketInfo) private ticketNFTS;\n    // Defining a map to hold all of the tickets mapped to a user (address => list of TICKET ID's that maps to the NFT)\n    mapping(address => uint256[]) private userTickets;\n    // Defining a map to hold all of the registered events and to who created them\n    mapping(address => EventInfo[]) private userEvents;\n    // Defining a map to hold all of the events that were registered on the smart contract (eventID => Event struct)\n    mapping(uint256 => EventInfo) private allEvents;\n    // Defining a map to hold all ticktes being sold for a specifc event (eventID => uint256[]))\n    mapping(uint256 => uint256[]) private eventTickets;\n    // Defining an array to hold all of the events\n    EventInfo[] allEventsArray;\n\n    // A structure that will contain all of the Ticket Information: The ticket IS the NFT\n    struct TicketInfo {\n        // Which event the Ticket belongs to\n        uint256 eventID;\n        // TOKEN ID\n        uint256 tokenID;\n        // The price of the ticket\n        uint256 ticketPrice;\n        // The owner of the ticket\n        address owner;\n        // Is the ticket for sale?\n        bool isForSale;\n        // Token URI\n        string tokenURI;\n    }\n\n    // A structure that will contain all of the Event/Organizers information:\n    struct EventInfo {\n        // Event name\n        string eventName;\n        // Event creator\n        address eventCreatorAddress;\n        // Event ID - This will be dependent on 'eventsCreated' state variable \n        uint256 eventID;\n        // Number of tickets that are set to be available to buy [IF the number is set to -1 then that mean \"UNLIMITED tickets]\n        uint256 availableTickets;\n        // Number of tickets sold already\n        uint256 soldTickets;\n        // Max ticket price\n        uint256 maxTicketPrice;\n        // Min ticket price\n        uint256 minTicketPrice;\n        // Is the event still available?\n        bool isEventActive;\n        // The price of the ticket\n        uint256 ticketPrice;\n    }\n\n    // Events\n    event ticketForSale(address seller, uint256 amount);\n    event ticketSold(address buyer, uint256 amountSold);\n    event eventCreated(string eventName, address eventOrganizer);\n\n    // This function will mint tickets based off of how many available tickets there are. It returns a list of tokenID's that will represent the NFTS being put up for 'sale'\n    function mintTicket(address to, string memory tokenURI, uint256 eventID, uint256 availableTickets, uint256 ticketPrice, address owner) private onlyEventOrganzier(eventID){\n        // All of this will be wrapped in a for loop\n        for (uint256 counter = 0; counter < availableTickets; counter++) {\n            _lunarCoinIdCounter.increment();\n            uint256 newlunarCoinId = _lunarCoinIdCounter.current();\n            require(!_exists(newlunarCoinId), \"Token has already been minted!\");\n            _safeMint(to, newlunarCoinId);\n            _setTokenURI(newlunarCoinId, tokenURI);\n            // Each ticketID will have the ticket information mapped to it (ticketID => TicketInfo)\n            TicketInfo memory newTicket = TicketInfo(eventID, newlunarCoinId, ticketPrice, owner, true, tokenURI);\n            ticketNFTS[newlunarCoinId] = newTicket;\n            // We push the tickets to 'eventTickets', (eventID => uint256[] List of tokenIDs for sale) \n            eventTickets[eventsCreated].push(newlunarCoinId);\n            userTickets[to].push(newlunarCoinId);\n        }\n    }\n\n    function _baseURI() internal pure override returns (string memory) {\n        return \"https://gateway.pinata.cloud/ipfs/QmbwT4KbKVxmu3j8oyC6fBogUyrm5komhX4oM9yCEf5pvG?_gl=1*1ntohon*_ga*MmQ1YjA4MTUtYmMwNy00YTFkLTlhZGEtMGYyMzFmM2JlZDlh*_ga_5RMPXG14TE*MTY4MDQ1NDY5NS4xLjEuMTY4MDQ1NDgxMC42LjAuMA/\";\n    }\n\n    // Modifer to make sure ONLY the organizer can execute a specific function\n    modifier onlyEventOrganzier(uint256 eventID) {\n        address eventCreatorAddress = getEventCreatorAddress(eventID);\n        require(msg.sender == eventCreatorAddress, \"Only the creator of this event can execute this\");\n        _;\n    }\n    // Modifier to make sure that only the owner of the ticket can sell\n    modifier onlyTicketOwner(uint256 tokenID) {\n        address ticketOwner = ticketNFTS[tokenID].owner;\n        require(msg.sender == ticketOwner, \"Only the ticket owner can execute this\");\n        _;\n    }\n\n    /** @dev anyone can Create an Event */\n    function createEvent(string memory eventName, uint256 availableTickets, uint256 maxTicketPrice, uint256 minTicketPrice, uint256 ticketPrice) public payable {\n        // We increment the number of events that were created\n        eventsCreated++;\n        // Now we create the Event and add the appropriate info to all of the mappings/structs\n        EventInfo memory eventDetails = EventInfo(eventName, msg.sender, eventsCreated, availableTickets, 0, maxTicketPrice, minTicketPrice, true, ticketPrice);\n        allEvents[eventsCreated] = eventDetails;\n        allEventsArray.push(eventDetails);\n        userEvents[msg.sender].push(eventDetails);\n        // We create the tickets to be put up for sale, we mint each ticket\n        // address to, string memory tokenURI, uint256 eventID, uint256 availableTickets, uint256 ticketPrice, address payable owner\n        mintTicket(msg.sender, \n        \"https://gateway.pinata.cloud/ipfs/QmbwT4KbKVxmu3j8oyC6fBogUyrm5komhX4oM9yCEf5pvG?_gl=1*1ntohon*_ga*MmQ1YjA4MTUtYmMwNy00YTFkLTlhZGEtMGYyMzFmM2JlZDlh*_ga_5RMPXG14TE*MTY4MDQ1NDY5NS4xLjEuMTY4MDQ1NDgxMC42LjAuMA/\", \n        eventsCreated, availableTickets, ticketPrice, msg.sender);\n        // Emit event creation\n        emit eventCreated(eventName, msg.sender);\n\n    }\n\n    /** @dev when buying a ticket, you must provide the tokenID and the eventID */ \n    function buyTicket(uint256 tokenID) public payable {\n        // Get all ticket information from the one selling it\n        require(_exists(tokenID), \"Sorry but it seems like this ticket doesn't even exist. Please Contact Us so we can get this sorted out.\");\n        TicketInfo memory ticket = ticketNFTS[tokenID];\n        require(ticket.isForSale, \"This ticket is not for sale\");\n        require(msg.value == ticket.ticketPrice, \"You must pay the amount that the ticket owner is selling this ticket for.\");\n        require(msg.sender != ticket.owner);\n        address ticketOwner = ownerOf(tokenID);\n        address payable sellerToPay = payable(ticketOwner);\n        // Transfer the ticket from the previous owner to the new owner\n        ticketTransfer(ticketOwner, msg.sender, tokenID);\n        sellerToPay.transfer(msg.value);\n        // Modify 'ticketNFT' to set 'isForSale' to False and 'owner' to msg.sender\n        ticketNFTS[tokenID].isForSale = false;\n        ticketNFTS[tokenID].owner = msg.sender;\n        // Update 'userTickets' so that it gets added to the new owner and removed from old owner\n        // (address => list of TICKET ID's that maps to the NFT)\n        // Removing from old owner\n        for (uint256 index = 0; index < userTickets[ticketOwner].length; index++){\n            if (userTickets[ticketOwner][index] == tokenID){\n                removeTicketFromSellList(ticketOwner, index);\n                break;\n            }\n        }\n        // Adding to new owner\n        userTickets[msg.sender].push(tokenID);\n        // Remove the ticketID from 'eventTickets' (eventID => uint256[])\n        for (uint256 index = 0; index < eventTickets[ticket.eventID].length; index++){\n            if (eventTickets[ticket.eventID][index] == tokenID){\n                removeEventTicket(ticket.eventID, index);\n                break;\n            }\n        }\n        // Update EventInfo if we buy from organizer\n        if (ticketOwner == allEvents[ticket.eventID].eventCreatorAddress){\n            allEvents[ticket.eventID].availableTickets--;\n            allEvents[ticket.eventID].soldTickets++;\n        }\n        // Emit ticket being sold\n        emit ticketSold(msg.sender, ticket.ticketPrice);\n\n    }\n\n    function sellTicket(uint256 sellingAmount, uint256 tokenID) onlyTicketOwner(tokenID) public payable {\n        // Get all ticket information from the one selling it\n        require(_exists(tokenID), \"Sorry but it seems like this ticket doesn't even exist. Please Contact Us so we can get this sorted out.\");\n        TicketInfo memory ticket = ticketNFTS[tokenID];\n        address ticketOwner = ownerOf(tokenID);\n        require(ticket.isForSale == false, \"This ticket is already up for sale.\");\n        require(ticketOwner == msg.sender);\n        // We modify ticketsNFT to match new price and set 'isForSale' to True.\n        ticketNFTS[tokenID].isForSale = true;\n        ticketNFTS[tokenID].ticketPrice = sellingAmount;\n        // Add it to Event Tickets\n        eventTickets[ticket.eventID].push(tokenID);\n        // Emit event\n        emit ticketForSale(ticketOwner, sellingAmount);\n        \n\n    }\n\n    // This is the function to see all of the tickets being sold for a specific event\n    function viewAllEventTickets(uint256 eventID) public view returns(TicketInfo[] memory) {  \n        require(eventID <= eventsCreated, \"This event does not exist\");  \n        uint256[] memory retrievedTicketsForSale = eventTickets[eventID];\n        TicketInfo[] memory dataToReturn = new TicketInfo[](retrievedTicketsForSale.length);\n        for (uint256 counter = 0; counter < retrievedTicketsForSale.length; counter++){\n            uint256 currentTokenID = retrievedTicketsForSale[counter];\n            TicketInfo memory currTicketInfo = ticketNFTS[currentTokenID];\n            dataToReturn[counter] = currTicketInfo;\n        }\n        return(dataToReturn);\n    }\n\n    // This is the function that will be called when a user wants to view their ticket information\n    function viewTicketInfo(uint tokenID) public view returns(TicketInfo memory) {\n        require(_exists(tokenID), \"Sorry but it seems like this ticket doesn't even exist. Please Contact Us so we can get this sorted out.\");\n        // The returned value will be an instance of the TicketInfo, it has the following information:\n        //  - Which event the Ticket belongs to: uint256 eventID;\n        //  - The token ID: uint256 tokenID;\n        //  - The price of the ticket: uint256 ticketPrice;\n        //  - The owner of the ticket: address payable owner;\n        //  - Is the ticket for sale: bool isForSale;\n        return ticketNFTS[tokenID];\n    }\n\n    function getEventDetails(uint256 eventID) public view returns(string memory, address, uint256, uint256, uint256,\n                                                                    uint256, uint256, bool, uint256) {\n        require(eventID <= eventsCreated, \"This event does not exist\");                                                     \n        EventInfo memory eventInformation = allEvents[eventID];\n        return (eventInformation.eventName, eventInformation.eventCreatorAddress, eventInformation.eventID,\n                eventInformation.availableTickets, eventInformation.soldTickets,\n                eventInformation.maxTicketPrice, eventInformation.minTicketPrice, eventInformation.isEventActive, eventInformation.ticketPrice);\n    }\n    \n    // This function will return all of the tickets that belong to a user\n    function getAllUserTickets(address from) public view returns(TicketInfo[] memory) {\n        // 'userTickets' is a map to hold all of the tickets mapped to a user (address => list of TICKET ID's that maps to the NFT)\n        uint256[] memory userTokens = userTickets[from];\n        TicketInfo[] memory dataToReturn = new TicketInfo[](userTokens.length);\n        // We go through each ticketID that belongs to them\n        for (uint256 counter = 0; counter < userTokens.length; counter++) {\n            uint256 currTokenID = userTokens[counter];\n            // Then we get the sepcifc TicketInfo using currTokenID\n            dataToReturn[counter] = ticketNFTS[currTokenID];\n        }\n        return (dataToReturn);\n    }\n\n    /** @dev This function will return all of the events that were created */\n    function viewAllEvents() public view returns(EventInfo[] memory){\n        return(allEventsArray);\n    }\n\n    function viewMyEvents(address from) public view returns(EventInfo[] memory){\n        return(userEvents[from]);\n    }\n\n    function getEventCreatorAddress(uint256 eventID) private view returns(address){\n         return allEvents[eventID].eventCreatorAddress;\n    } \n\n    function removeTicketFromSellList(address ticketOwner, uint256 index) private {\n        for (uint256 newIndex = index; newIndex < userTickets[ticketOwner].length - 1; newIndex++) {\n            userTickets[ticketOwner][newIndex] = userTickets[ticketOwner][newIndex + 1];\n        }   \n        userTickets[ticketOwner].pop();\n    }\n\n    function removeEventTicket(uint256 eventID, uint256 index) private {\n        for (uint256 newIndex = index; newIndex < eventTickets[eventID].length - 1; newIndex++) {\n            eventTickets[eventID][newIndex] = eventTickets[eventID][newIndex + 1];\n        }   \n        eventTickets[eventID].pop();\n    }\n\n    /**\n     * @dev See {IERC721-transferFrom}.\n     * References: \n     *  - https://docs.openzeppelin.com/contracts/4.x/api/token/erc721#IERC721-setApprovalForAll-address-bool-\n     *  - https://github.com/OpenZeppelin/openzeppelin-contracts/blob/master/contracts/token/ERC721/ERC721.sol\n     */\n    function ticketTransfer(address from, address to, uint256 tokenId) private  {\n        //solhint-disable-next-line max-line-length\n        require(ownerOf(tokenId) == from, \"Token not owned by sender\");\n        require(to != address(0), \"Invalid recipient address\");\n        require(from != address(0), \"Invalid sender address\");\n        _transfer(from, to, tokenId);\n    }\n\n\n}",
  "sourcePath": "/Users/mahdyfer/Desktop/Decentralized-Ticket-System/ticket-contract/contracts/TicketSmartContract.sol",
  "compiler": {
    "name": "solc",
    "version": "0.8.18+commit.87f61d96.Emscripten.clang"
  },
  "schemaVersion": "3.4.13",
  "updatedAt": "2023-04-28T19:28:54.981Z",
  "networkType": "ethereum",
  "devdoc": {
    "events": {
      "Approval(address,address,uint256)": {
        "details": "Emitted when `owner` enables `approved` to manage the `tokenId` token."
      },
      "ApprovalForAll(address,address,bool)": {
        "details": "Emitted when `owner` enables or disables (`approved`) `operator` to manage all of its assets."
      },
      "Transfer(address,address,uint256)": {
        "details": "Emitted when `tokenId` token is transferred from `from` to `to`."
      }
    },
    "kind": "dev",
    "methods": {
      "approve(address,uint256)": {
        "details": "See {IERC721-approve}."
      },
      "balanceOf(address)": {
        "details": "See {IERC721-balanceOf}."
      },
      "buyTicket(uint256)": {
        "details": "when buying a ticket, you must provide the tokenID and the eventID "
      },
      "createEvent(string,uint256,uint256,uint256,uint256)": {
        "details": "anyone can Create an Event "
      },
      "getApproved(uint256)": {
        "details": "See {IERC721-getApproved}."
      },
      "isApprovedForAll(address,address)": {
        "details": "See {IERC721-isApprovedForAll}."
      },
      "name()": {
        "details": "See {IERC721Metadata-name}."
      },
      "owner()": {
        "details": "Returns the address of the current owner."
      },
      "ownerOf(uint256)": {
        "details": "See {IERC721-ownerOf}."
      },
      "renounceOwnership()": {
        "details": "Leaves the contract without owner. It will not be possible to call `onlyOwner` functions anymore. Can only be called by the current owner. NOTE: Renouncing ownership will leave the contract without an owner, thereby removing any functionality that is only available to the owner."
      },
      "safeTransferFrom(address,address,uint256)": {
        "details": "See {IERC721-safeTransferFrom}."
      },
      "safeTransferFrom(address,address,uint256,bytes)": {
        "details": "See {IERC721-safeTransferFrom}."
      },
      "setApprovalForAll(address,bool)": {
        "details": "See {IERC721-setApprovalForAll}."
      },
      "supportsInterface(bytes4)": {
        "details": "See {IERC165-supportsInterface}."
      },
      "symbol()": {
        "details": "See {IERC721Metadata-symbol}."
      },
      "tokenURI(uint256)": {
        "details": "See {IERC721Metadata-tokenURI}."
      },
      "transferFrom(address,address,uint256)": {
        "details": "See {IERC721-transferFrom}."
      },
      "transferOwnership(address)": {
        "details": "Transfers ownership of the contract to a new account (`newOwner`). Can only be called by the current owner."
      },
      "viewAllEvents()": {
        "details": "This function will return all of the events that were created "
      }
    },
    "version": 1
  },
  "userdoc": {
    "kind": "user",
    "methods": {},
    "version": 1
  }
}